:020000040800F2
:10000000F00C0020BD0200085D5A000825370008EA
:10001000595A00089D0F0008FD6700080000000005
:10002000000000000000000000000000895B0008E4
:10003000A10F000800000000615A00088D5B000855
:10004000D7020008D7020008D7020008D70200082C
:10005000D7020008D7020008D7020008D70200081C
:10006000D7020008D7020008D7020008D70200080C
:10007000D7020008D7020008D7020008D7020008FC
:10008000D7020008D7020008D7020008D7020008EC
:10009000D7020008D7020008D7020008D7020008DC
:1000A000D7020008D7020008D7020008D7020008CC
:1000B000D7020008D7020008D7020008D7020008BC
:1000C000D7020008D7020008D7020008D7020008AC
:1000D000D7020008D7020008D7020008D70200089C
:1000E000A50F0008D7020008D7020008D7020008B1
:1000F000D7020008D7020008D7020008D70200087C
:10010000D7020008D7020008D7020008D70200086B
:10011000D7020008D7020008D7020008D70200085B
:10012000D7020008D7020008D7020008D70200084B
:10013000D70200080000000000000000D7020008FD
:10014000D7020008D7020008D7020008D70200082B
:10015000D7020008D7020008D7020008D70200081B
:10016000D7020008D7020008D7020008D70200080B
:10017000D7020008D7020008D702000800000000DC
:1001800000000000D702000800000000000000008E
:10019000D70200080000000000000000D70200089D
:1001A000000000000000000000000000D70200086E
:1001B000D7020008D7020008D7020008D7020008BB
:1001C000D702000800F002F800F068F814A696E8DC
:1001D000000CB244B344DA4501D100F05FF8BAE84C
:1001E0000F000FA696E83000A5EB040504EB060708
:1001F000AAEB0704A7F101074FEA15154FEA3414DB
:10020000A4F10104AC4201D300F048F813F0010F4F
:1002100018BFFB1A43F0010300F001F8DBE71847B1
:100220007480000094800000103A24BF78C878C120
:10023000FAD8520724BF30C830C144BF04680C60EC
:1002400070470000704700000023002400250026AE
:10025000103A28BF78C1FBD8520728BF30C148BF29
:100260000B607047662907F08687642900F01C81BF
:10027000632900F01085732900F015850020704770
:100280001FB507F06BFF00F013FD040000200021F4
:1002900007F0AEFBE0601FBD10B510BD00F008FE1A
:1002A0001146FFF7EDFF06F0ABFA00F026FE03B4AF
:1002B000FFF7F2FF03BC00F069FE00000948804729
:1002C00009480047FEE7FEE7FEE7FEE7FEE7FEE738
:1002D000FEE7FEE7FEE7FEE704480549054A064B50
:1002E000704700003D5C0008C5010008F0060020D2
:1002F000F00C0020F0080020F008002053EA020C67
:1003000000F069802DE9F04B4FF00006002B1FBF75
:10031000B3FA83F503FA05F424FA05F65E4012BF3A
:100320001643B2FA82F502FA05F4C5F120051EBFA4
:1003300022FA05FC44EA0C04203556EA044C4FEA44
:10034000144418BF641C4FF000084FF0000990429D
:1003500071EB030C39D3002919BFB1FA81F701FA07
:1003600007F6B0FA80F700FA07F6C7F120071EBFBC
:1003700020FA07FC46EA0C062037B6FBF4FCA7EB94
:100380000507103F07F01F0BCBF120062CFA06F6ED
:100390000CFA0BFB44BFB3460026202FA4BF5E46D9
:1003A0004FF0000B5BEA060C08BF4FF0010B19EB96
:1003B0000B0948EB0608ABFB027C06FB02CC0BFBEF
:1003C00003CCC01B71EB0C01C1E70B460246414652
:1003D0004846BDE8F08B13B5084318BF4FF0FF3017
:1003E0000146AFF30080BDE81C4070470FB41CB558
:1003F000074B06AA7B4469460090059800F021FC53
:100400000020694600F030FC1CBC5DF814FB0000C5
:10041000710800000FB41CB50C0007AA009007D0AB
:100420004142A14202D32044401E01E04FF0FF3080
:10043000074B7B4469460190069800F002FC0020BF
:10044000002C01D0009908701CBC5DF814FB000062
:100450003D08000070B50C460546012A05D02878F5
:10046000800600D5EA69002302E0012305E05B1C59
:10047000934202D2E05C0028F9D1A869E618C01ABC
:10048000A861286A184428622846AFF3008004E077
:10049000D5E9012114F8010B9047B442F8D328465E
:1004A000AFF3008070BD00002DE9F0410646002446
:1004B00010687529314616A510D0AFF300800028CA
:1004C00002DA404213A507E031688A0701D512A578
:1004D00002E0490704D511A5012401E0AFF3008033
:1004E00000210A2206F1240709E0B0FBF2FCB0FB70
:1004F000F2F302FB1C00303078541846491C0028E7
:10050000F3D123462A463046BDE8F04100F02CB92D
:10051000000000002D0000002B0000002000000063
:100520002DE9F0474FF0000A89460446C0F820A0A4
:100530002046E1688847002876D0252806D0D4E9EF
:1005400001219047206A401C2062F1E7E1682046C3
:1005500000258847C4F81CA006460027C4F818A048
:100560002A2E09D0304607F03BFA38B304EB87084F
:10057000303EC8F8186019E059F8041B204604EB17
:1005800087029161E1688847012F064618D1E0692A
:10059000002820DA25F020051DE0D8F8180000EB2F
:1005A000800006EB40003038C8F818002046E168AB
:1005B0008847064607F014FA0028EED1012F0AD02A
:1005C0002E2E08D12046E16888477F1C0646022F60
:1005D00045F02005C4DBA069002803DA404245F05D
:1005E0000105A061E80701D025F01005B6B1A6F11C
:1005F0004100192802D8203645F400654A463146A4
:10060000204625604D46FFF72DFE58B1012806D043
:10061000ED1D25F0070000F1080989E704E005F168
:10062000040985E730468AE7206ABDE8F08710B5FF
:10063000431C02E010F8011B71B18107FAD14FF0A1
:10064000013202C88C1A8C4314EAC211F9D0C01AC4
:100650000A0603D0C01E10BDC01A10BD0A0401D086
:10066000801E10BD0902FCD0401E10BD10B5203AFE
:10067000C0F00B80B1E81850A0E81850B1E818504D
:10068000A0E81850203ABFF4F5AF5FEA027C24BF1F
:10069000B1E81850A0E8185044BF18C918C0BDE808
:1006A00010405FEA827C24BF51F8043B40F8043BD1
:1006B00008BF7047D20728BF31F8023B48BF11F886
:1006C000012B28BF20F8023B48BF00F8012B7047E0
:1006D0004FF000020429C0F0128010F0030C00F06B
:1006E0001B80CCF1040CBCF1020F18BF00F8012BE9
:1006F000A8BF20F8022BA1EB0C0100F00DB85FEAB7
:10070000C17C24BF00F8012B00F8012B48BF00F882
:10071000012B70474FF0000200B5134694469646F1
:10072000203922BFA0E80C50A0E80C50B1F1200104
:10073000BFF4F7AF090728BFA0E80C5048BF0CC0B2
:100740005DF804EB890028BF40F8042B08BF704710
:1007500048BF20F8022B11F0804F18BF00F8012B82
:1007600070477047704770472DE9F0470D4699462E
:100770009246044600F124080168880604D5E06921
:1007800021F01001216000E00120A84201DD471B9B
:1007900000E00027A1697A1902EB0900081AA0619C
:1007A0002078C00602D42046AFF30080002608E07F
:1007B000D4E901211AF806009047206A401C761CF3
:1007C00020624E45F4DB2078C0060AD52046AFF300
:1007D000008006E0D4E9012130209047206A401CC7
:1007E0002062381EA7F10107F4DC07E0D4E90121FB
:1007F00018F805009047206A401C2062281EA5F1C9
:100800000105F3DC2046AFF300802078000602D516
:100810000220BDE8F0870120FBE72DE9FF4F0C46E1
:100820001E464FF0FF378BB0D2E90001DDF8608043
:100830000A908A46C1F30A5505B93D46002108468B
:100840004FF00000BAF1000F00F4400005DA00EBB1
:1008500080004FF4400101EA50004FEA9059B9F18D
:10086000010F00DDB9460A9850EA4A000ED044F65E
:100870001050A5F2FF3545432F14B8F1000F1ED0DC
:100880007542291E1EDDC9F100021CE0B8F1010FFE
:100890004FF0000001D0302103E0F24305E0215485
:1008A000401CB042FBDB30460022002121540B9952
:1008B000C1F80880C1E900200FB0BDE8F08FBD1B72
:1008C0006D1CDEE74A4600DA694206A800F07AFAB3
:1008D00006AB93E8070003AB83E8070050460A998C
:1008E00006F09EFC8DE80700A0F500501F38009030
:1008F0000398002D0ADD42F21F014A4608440023F6
:1009000003A90390684606F007FF09E0A0F5005030
:100910004A461F38002303A90390684606F011FFDA
:100920008DE807000004000C03D04FF0FF304108B1
:1009300000E01046B8F1000F03D0002200921546E7
:100940001EE0751E05D400F0B7F9303262556D1EF9
:10095000F9D5B3460122084302D000227F1C04E0EF
:100960002078302801D100227F1E002A099784D0E8
:100970001DE0112D07DA00F09FF9303262556D1C31
:1009800050EA0102F5D1084302D00098C8B10EE048
:100990000021681E05E0235C625C63542254401E03
:1009A000491C8142F7DBAB46A81B401E0990002082
:1009B00004F80B000B98099AC0F80880C0E9002BD6
:1009C0007AE711264FF0000857E72DE9F04F8846E7
:1009D0000446D21D22F0070191B0D1E90001CDE912
:1009E0000A0106F0E5FF02460B98C00F01D02D204A
:1009F00007E02068810701D52B2002E0202101EAD1
:100A0000C000032A099001D0072A05DB03464146AE
:100A1000204600F097F90BE12078800601D5E069C7
:100A200000E00620B8F1650F814606D0B8F1660FE8
:100A300018D0B8F1670F70D131E00020B9F1110F73
:100A4000009001DB112301E009F101030AAA01A9C9
:100A50000CA8FFF7E2FEDDE90C70002609F10105A4
:100A6000834647E001204B4600904FF000470AAA1A
:100A700001A90CA8FFF7D1FEDDE90DB00C995D4688
:100A8000002610B909F101000D18B9EB050003D4D7
:100A9000C0F1FF3609F10105A5EB09002BE0B9F122
:100AA000010F01DA4FF001090020B9F1110F009098
:100AB000484601DD112300E003460AAA01A90CA85B
:100AC000FFF7ABFEDDE90C704D460026834620782B
:100AD00000070AD4AB4500DA5D4601A8012D04DD0C
:100AE000411911F8011C302907D04F4502DA17F1DE
:100AF000040F04DA012082460FE06D1EEEE7002F9E
:100B000002DCED1B3E4403E0781CA84200DD7D1CA6
:100B1000B81B00F1010A4FF000472078000703D40A
:100B2000AA4501DB4FF0FF3A0021B7F1004F0DF16C
:100B300043088DF8431024D002202B23002F01DA24
:100B40007F422D230A21021EA0F1010000DC5FB1CB
:100B500097FBF1FC97FBF1F201FB1C7C17460CF1B3
:100B6000300C08F801CDEEE7A8F1010003702188F0
:100B7000090501D5452100E06521A0F1010800F833
:100B8000011C09980FA9A1EB0807FF1D00B1012066
:100B9000411901EBEA70A1693844081A401EA061AE
:100BA0002078C00602D42046AFF30080099828B10F
:100BB000D4E901219047206A401C20622078C006B9
:100BC00022D52046AFF300801EE0002E04DBB345A3
:100BD00002DD01A8805D00E03020D4E901219047CA
:100BE000206A401C2062761CAAF101005FEA000A1C
:100BF0000AD100F05DF8C0680168405CD4E90121C9
:100C00009047206A401C2062281EA5F10105DCDC0B
:100C100007E0D4E9012118F8010B9047206A401C35
:100C20002062381EA7F10107F3DC2046AFF30080F5
:100C3000032011B041E6000001694A1C02610878F6
:100C4000704700B58FB0CDE901310021059105490C
:100C50007944CDE9031011466846FFF761FC0FB0F7
:100C600000BD0000E5FFFFFF0A6802F8010B0A6003
:100C70007047D1E900239A4202D2531C0B601070D6
:100C8000704710B5436913B1AFF3008001E0FFF77F
:100C9000E1FB012010BD127800F124010A7000224E
:100CA0004A700122EDE711684FF0FF32E9E70000DA
:100CB000004870473000002030B5B0F10A0271F1F1
:100CC00000034FEA900E4EEA817EB0EB0E0061EB1E
:100CD00091014FEA101E4EEA017E10EB0E0041EB2F
:100CE00011114FEA102E4EEA016E10EB0E0041EB8F
:100CF00011214FEA104E4EEA014E10EB0E0041EB6F
:100D00001141401841F100014FEAD00040EA417022
:100D10004FEAD1014FEA810444EA907410EB800558
:100D200044EB01046D1944EB0404521BA3414FF042
:100D3000000348BF0A3200D530BD401C41F100011C
:100D400030BD00002DE9F0411F460446032601682E
:100D5000072A01F4006004DB08B116A505E016A51A
:100D600003E008B115A500E015A521F010002060F2
:100D7000A069C01EA0610FB1401EA0612046AFF364
:100D800000804FB1D4E9012138469047206A401CC9
:100D90002062C01C206206E0206AFAE7D4E9012143
:100DA00015F8010B9047761EF8D22046AFF300806D
:100DB000BDE8F0814E414E006E616E00494E460026
:100DC000696E66002DE9F047814616468AB03548BF
:100DD00078440DC88DE80D0032487844801C03AC7F
:100DE0000DC884E80D0041F69B300844372190FB84
:100DF000F1F290FBF1F5A5F1800501FB12041B3C1B
:100E000002D56442012000E00020DFF898A080466F
:100E10000027FA44AAF1BE0A0EE0E0070AD03246E3
:100E2000684607EB470101230AEB810106F089FCC4
:100E30008DE8070064107F1C002CEED1194F7F4411
:100E4000AE3F19E0E80715D007EB04100DF1180AC2
:100E500090E80E008AE80E00C068F04201D19819AF
:100E600008903246012306A903A806F06AFC03ABEA
:100E700083E807006D10641C002DE3D14FF00103DF
:100E800032466946B8F1000F03A802D006F044FCD0
:100E900001E006F056FCC9E90001C9F808200AB0D3
:100EA000BDE8F0872474000000487047100000205F
:100EB0007546FFF7F9FFAE4605006946534620F038
:100EC0000700854618B020B5FFF706FABDE82040B8
:100ED0004FF000064FF000074FF000084FF0000BF6
:100EE000AC46ACE8C009ACE8C009ACE8C009ACE865
:100EF000C00921F007018D46704710B50446AFF3D5
:100F000000802046BDE81040FFF7D1B90000000086
:100F100030B44FF0013C50F8042B51F8043BCCFAAC
:100F200052F4D51A20D1FCB950F8042B51F8043BE7
:100F3000CCFA52F4D51A17D1B4B950F8042B51F8A1
:100F4000043BCCFA52F4D51A0ED16CB950F8042BEC
:100F500051F8043BCCFA52F4D51A05D1002CDAD062
:100F600030BC4FF00000704729BAB1FA81F111F09E
:100F70001801D1F120008440F2D1CA40CB4012F0D8
:100F8000FF0213F0FF0330BCD01A7047014918204C
:100F9000ABBEFEE72600020070470000FEE700003F
:100FA0007047000080B54FF4805000F0ABF94FF46B
:100FB0000050BDE8804000F0A5B9000072B600BF47
:100FC000FEE70000000000002DE9F04F85B00D465F
:100FD00038218146FFF79EFB286829790DF10E061E
:100FE000072201234FF0640B4FF0060A8DE8400CF6
:100FF000012400F02BFCB8BB9DF811109DF81020C7
:1010000009029DF80E0041EA02419DF812209DF868
:101010000F7001EB020806F04BFF064638460C46FF
:1010200006F046FF9FED880B53EC102B06F09EFD5B
:101030003246234606F0F2FC044640460F460DF1C8
:101040000E0606F035FF9FED820B53EC102B06F0D9
:101050008DFD02460B4620463946012406F0DEFC93
:1010600041EC100B89ED000B2868297909F1100279
:10107000CDE9002412220123CDF808B000F0E6FBF0
:10108000286829790D220123CDE9006ACDF808B03E
:1010900000F0DCFBB0BB9DF811109DF81020090298
:1010A0009DF80E0041EA02419DF812209DF80F4084
:1010B000B24601EB020806F0FBFE074620460E464C
:1010C00006F0F6FE9FED600B53EC102B06F04EFD84
:1010D0003A46334606F0A2FC044640460F465646C2
:1010E00006F0E6FE9FED5A0B53EC102B06F03EFD8A
:1010F00002460B462046394606F090FC41EC100BA8
:1011000089ED020B2868297909F11102012464276D
:10111000CDE900240C220123029700F097FB002266
:101120004B462868297903F8302FCDE90034132283
:101130000123029700F08AFB286829794FF0030BFE
:1011400014220123CDE9006B029700F07FFBF0B978
:101150009DF80E009DF80F1000F07F009DF81040E4
:1011600041EA002006F0A4FE804620468A4606F0AA
:101170009FFE9FED390B53EC102B06F0F7FC424617
:10118000534606F04BFC41EC100B89ED060B28682A
:10119000297917220123CDE9006B029700F056FB55
:1011A000F0B99DF80E009DF80F1000F07F009DF83B
:1011B000104041EA002006F07BFE804620460F46A4
:1011C00006F076FE9FED240B53EC102B06F0CEFCC0
:1011D00042463B4606F022FC41EC100B89ED080B21
:1011E0002868297903226427CDE900621A220123A5
:1011F000029700F02BFB18B105B0BDE8F08F00BFDF
:101200009DF80E009DF80F1000F07F009DF8104033
:1012100041EA002006F04CFE054620460E4606F048
:1012200047FE9FED0D0B53EC102B06F09FFC2A465A
:10123000334606F0F3FB41EC100B89ED0A0B05B0C9
:10124000BDE8F08F00BF00BF0000000000004E406E
:101250000000000060E3564100000000000059401B
:101260000160CC21017100218160704780B584B09C
:1012700081F00103026801798DF80F3001200DF132
:101280000F034FF0640CCDE90030104623220123F8
:10129000CDF808C000F006FC322000F01DF804B0C4
:1012A00080BD000080B584B0026803798DF80F100E
:1012B00001200DF10F014FF0640CCDE90010104634
:1012C000194622220123CDF808C000F0EBFB3220A2
:1012D00000F002F804B080BDB0B5044600F0F4F8A8
:1012E000054640F20000C2F200000078611C18BF01
:1012F000044400BF00F0E8F8401BA042FAD3B0BDA0
:101300007047000043F61441C4F201010A6802422A
:1013100014BF08607047FFF7F3BF00002DE9F04FDE
:1013200083B000F1200200F13E4741F60005009233
:1013300007F1FF77C4F2020507224FEAB726A84259
:1013400008BF062200254FF000084FF00009062EC6
:1013500038BF4FEAB72201920AE000BF09F1010944
:1013600008F10208B9F1100F05F1040500F0A280A0
:101370000F68012202FA09FE17EA0E0AEED0D1F830
:1013800004C003220CF003077E1E02FA08F4012EAB
:101390006FEA040B12D88468CE6804EA0B0406FADC
:1013A00008F634438460446824EA0E06CCF3001443
:1013B00004FA09F42643466004E000BF032F01D17C
:1013C00003271EE0C6688C6806EA0B0604FA08F4D8
:1013D0002643022FC66014D16FF00302009E02EA7A
:1013E000590756F807C005F01C040F220B69A240EC
:1013F0002CEA0202A3401A43F251D1F804C00CF0C7
:101400000307026807FA08F302EA0B021A431CF406
:10141000403F0260A2D0002243F644030292C4F28D
:1014200002031A6843F6004442F480421A601A68C4
:10143000C4F2010402F480420292029A29F00302EB
:101440004FF6084C2244CFF6FF7C52F80C3005F0E2
:101450000C070F26BE40B343019E06FA07F73B4335
:1014600042F80C30A2684B6842EA0A0743F60C4C7B
:10147000DE0258BF22EA0A07A760C4F2010CDCF8BA
:1014800000209E0242EA0A0758BF22EA0A07CCF867
:10149000007062689E0342EA0A0758BF22EA0A0700
:1014A00067602268DB0342EA0A0758BF22EA0A079C
:1014B000276053E703B0BDE8F08F0000002A08BFA3
:1014C000090481617047000040F2E860C2F2000048
:1014D00000687047002804BF01207047F0B581B054
:1014E000044690F83D0028B9002084F83C002046CE
:1014F00000F086FB242084F83D002068016821F07C
:1015000001010160016841F400410160016821F4BA
:101510000041016001F0E2F8636848F2A16CC0F29A
:10152000010C40F60011C0F23D0163453CBF48F29A
:101530008041C0F21E01884202D2012001B0F0BDFC
:101540004DF68361C4F21B31A0FB01122168970C98
:10155000D1F804E04FF496762EF03F0545EA924527
:101560004D60774348F638160D6AC0F24106A7FB76
:10157000067625F03F07634538BF960C721C3A4348
:101580000A62CA6948F2A0664CF6FF77C0F201060B
:10159000B34222EA07020BD801385B00B0FBF3F03C
:1015A00001306FF31F30042898BF04201BE000BFF8
:1015B000A768013857B119277B43B0FBF3F001301E
:1015C0006FF31F3070B100F5804007E003EB430379
:1015D000B0FBF3F001306FF31F3018B100F500409D
:1015E00001E000BF01201043C8610868D4E9072367
:1015F00020F0C000104318430860886848F2FF32AA
:1016000004F10C0790438CCF18431043A6698860FF
:10161000C86820F0FF0038433043C860086840F0D5
:101620000100086000202021206484F83D10206320
:1016300084F83E0001B0F0BD2DE9F04F83B01E46A6
:10164000924688460446FFF73FFF94F83D10202954
:1016500024D12168054600BF886980071AD5FFF7A5
:1016600033FF401B21681A28F6D388698007F3D519
:1016700000202021206384F83D1084F83E00216C76
:1016800041F02001216484F83C00022003B0BDE851
:10169000F08F00BF94F83C00012803D1022003B072
:1016A000BDE8F08F4FF0010984F83C900868C0074E
:1016B00003D1086840F0010008600868002720F4A2
:1016C00000600860242084F83D000020CFF6FF7001
:1016D0002764E06208F0FE08BAF1010F88BFD14626
:1016E0004FF0A00A4FF0200B04E000BF01374F4538
:1016F00000F0A2800868002240F480700860204654
:101700004FF001113346009502F05AF92168002884
:1017100056D1C1F81080FFF7D7FE21684B694A699E
:1017200094F83D50A02D054605D013F0020008BFE7
:1017300012F480601AD084F83DB048690A688007C6
:1017400042F400720A6045D46FF48060486100BFC3
:1017500088698007CAD5FFF7B7FE401B21681A28A1
:10176000F6D388698007F3D54AE000BFB6B100BF61
:10177000FFF7AAFE401BB04288BF84F83DA0216855
:101780004A69486994F83D30A02BD4D012F0020287
:1017900008BF10F48060EBD0CDE700BFFFF794FEE8
:1017A00084F83DA021684A69486994F83D30A02B2F
:1017B000C1D012F00202BED110F48060EED0BAE7C0
:1017C0000868C00544BF4FF400702064032003B0D4
:1017D000BDE8F08F0020029048690290886902906D
:1017E0000298886901E000BF806980071AD5FFF779
:1017F0006BFE411B20681A29F6D381698907F3D54E
:1018000000202021206384F83D1084F83E00216CE4
:1018100041F02001216484F83C00012003B0BDE8C0
:10182000F08F00BF202084F83D00002084F83C00A9
:1018300003B0BDE8F08F00BF202084F83D000020F9
:1018400084F83C00012003B0BDE8F08F2DE9F0479B
:1018500084B0994616460F460446FFF735FE94F8C5
:101860003D10202927D10546206800BF81698907DE
:101870001CD5FFF729FE411B20681A29F6D3816980
:101880008907F3D500202021206384F83D1084F8D7
:101890003E00206C04F13C0A40F02000206402204D
:1018A00000218AF8001004B0BDE8F087A2461AF8BB
:1018B0003C1F012904D1022004B0BDE8F08700BF1D
:1018C00001228AF800200368DDE90D180C9ADB0775
:1018D00003D1036843F001030360036823F400634A
:1018E0000360222084F83D00402084F83E00002060
:1018F000206462626185608D394620850020CFF6C4
:10190000FF70E062204632464B46CDE9008501F08B
:101910000BFF18B1012004B0BDE8F087208D08B39B
:10192000022813D0012835D121680A6822F4806288
:101930000A60002203924A6903928A690392039A19
:101940000A6842F400720A602CE000BF21680A684D
:1019500022F480620A600A6842F400620A6000228F
:1019600003921AE000200390206841690391816985
:1019700003910399016841F400710160202084F80B
:101980003D00002084F83E0000218AF8001004B0D9
:10199000BDE8F0870021039121684A6903928969B3
:1019A000039103990427C0F201070CE01069087045
:1019B000606A218D01306062481E2085618D013989
:1019C00061850104DAD080B203280FD802284AD0FA
:1019D00001282DD1204641462A4602F043F900282D
:1019E00098D12068616A0069E1E700BF204641465E
:1019F0002A4602F037F900287FF48CAF2068616A2C
:101A000000690870606A2268411C208D616201389B
:101A10002085638D013B638553695B07D1D580B217
:101A20000328C3D1106820F480601060BEE700BFB7
:101A30002046394600224346009501F0C1FF0028A8
:101A40007FF468AF2068616A026822F480620260F5
:101A500000690870606A218D01306062481E20852F
:101A6000608D013860852046394600224346009546
:101A700001F0A6FF00287FF44DAF2068616A02687C
:101A800042F40072026000690870606A2268411CBA
:101A90006162218D01392185618D0139618511696D
:101AA000417085E72DE9F04383B0994616460F460D
:101AB0000446FFF709FD94F83D10202924D105467E
:101AC000206800BF816989071AD5FFF7FDFC411B1B
:101AD00020681A29F6D381698907F3D500202021CF
:101AE000206384F83D1084F83E00216C41F0200111
:101AF000216484F83C00022003B0BDE8F08300BFFD
:101B000094F83C10012903D1022003B0BDE8F08312
:101B1000012284F83C200368DDE90B180A9ADB07F0
:101B200003D1036843F001030360036823F40063F7
:101B30000360212084F83D00402084F83E0000200E
:101B4000206462626185608D394620850020CFF671
:101B5000FF70E062204632464B46CDE9008501F039
:101B60006DFE18B1012003B0BDE8F083208D98B957
:101B7000204641462A4601F0C5FE88B3206C042861
:101B8000F0D12068016841F400710160012003B0C8
:101B9000BDE8F0830004EBD0204641462A4602F01F
:101BA000A9F80028EAD1616A2268084610F8013BCA
:101BB0001361238D6062581E2085678D013F678504
:101BC00057697F07E6D50704E4D048781061881C80
:101BD0006062981E2085618D01396185DAE700BF5A
:101BE0002068016841F400710160202084F83D0004
:101BF000002084F83E0084F83C0003B0BDE8F08388
:101C0000B0B586B045F600010068C4F200010024BA
:101C100088420594CDE903440294019402D006B0B1
:101C2000B0BD00BF43F630050094C4F20205286839
:101C3000122240F020002860286800F02000009068
:101C400000980320019004900420059001F5DE30F7
:101C500001A9CDE90224FFF761FB0094286940F453
:101C600080002861286900F480000090009806B088
:101C7000B0BD000040F2000040F2E861C2F2000096
:101C8000C2F2000100780A68104408607047000042
:101C900080B543F60040C4F20200016841F40071CF
:101CA0000160016841F480610160016841F4807164
:101CB0000160032000F086F8002000F005F800F035
:101CC00027F8002080BD000070B540F20006C2F287
:101CD000000640F208013278C2F200014FF47A7334
:101CE0000968B3FBF2F20446B1FBF2F1084601F0D9
:101CF000CDFB0F2C4FF0010508D838B94FF0FF305D
:101D000021460022002500F031F87460284670BD9D
:101D100082B0002043F640010190C4F202014A68FB
:101D200042F480424A604A6802F480420192019A79
:101D30000090086840F080500860086800F080500B
:101D40000090009802B07047002848BF704700F02C
:101D50001F01012202FA01F11C2202EAD0004EF218
:101D60000012CEF2000281507047000010B54EF60E
:101D70000C5CCEF2000CDCF80030C3F3022E8EF0C7
:101D80000704042C28BF0424BEF103034FF0FF3ED8
:101D90000EFA04F438BF0023A14399400EFA03F36E
:101DA0009A43114300F00F0200F160430901043A25
:101DB00003F564436244002848BF02F10C03197024
:101DC00010BD00004EF60C51CEF200010A684FF62D
:101DD000FF031A4060F30A2242F0806040F0FD7079
:101DE0000860704701220168C0F8D824002280F8FA
:101DF000CC24886940F000608861486D40F08050D4
:101E000040F0030200204A6570470000002804BF2C
:101E100001207047F0B581B00446056890F895043C
:101E200028B9002084F89404204600F02DF90320FE
:101E3000B5F1A04F84F8950404BF0020A07120687C
:101E400004F020FB94E80F00267C009603F074FF5A
:101E5000002840F000812068002104F01BFB0028CE
:101E600040F0F98094F804E0BEF1000F00F0EC803F
:101E70000EF0030CBEF1040F4FF0000240D30EF041
:101E8000FC03A4F190000321012500BFCE1E80F8C1
:101E9000A460A0F8BE608E1E80F8C860A0F8E26062
:101EA0004E1E80F8EC60A0F8066180F81011A0F8D2
:101EB0002A110E1D013180F8A55080F8A820C0E934
:101EC0002B22C0F8B42080F8C95080F8CC20C0E99B
:101ED0003422C0F8D82080F8ED5080F8F020C0E916
:101EE0003D22C0F8FC2080F8115180F81421C0E98F
:101EF0004622C0F82021903099423146C6D1F21EC8
:101F0000BCF1000F31D004F1140002EBC20100EB70
:101F10008105012300F821200021BCF1010F6B7025
:101F20006A832971C5E9021129611ED0551C05EB90
:101F3000C50600EB8607BCF1020F7B7000F8265047
:101F40007D833971C7E9021139610ED0911C01EB13
:101F5000C10200EB8203012500F8221000205D7011
:101F600059831871C3E902001861BEF1000F6BD0EC
:101F7000BEF1040F4FF0000236D30EF0FC00032137
:101F8000234600BFCF1E83F854728F1E83F87872E9
:101F90004F1E83F8C0120D1D013183F8552283F8BE
:101FA0005822C3E99722C3F8642283F8792283F880
:101FB0007C22C3E9A022C3F8882283F89D2283F8FB
:101FC0009C7283F8A022C3E9A922C3F8AC2283F84B
:101FD000C12283F8C422C3E9B222C3F8D0229033CD
:101FE00081422946CED1EA1EBCF1000F2CD004F567
:101FF000157002EBC20300EB83070021BCF1010F57
:10200000797000F823203971C7E9021139611BD0BA
:10201000531C03EBC30700EB8706BCF1020F717082
:1020200000F827303171C6E9021131610CD0911CE2
:1020300001EBC10200EB820300275F7000F8221061
:102040001F71C3E902771F6194E80F00277C009796
:1020500003F0BEFF30B1022084F89504012001B0E6
:10206000F0BD00BF00206074012084F89504207B3F
:10207000012802D12046FFF7B5FE206803F098FF43
:10208000002001B0F0BD0000F0B59DB00446002076
:102090001C90CDE91A00CDE9180001A804305821A0
:1020A000FEF738FB2068B0F1A04F01D01DB0F0BDA5
:1020B0004FF48070019001A800F03EF8002818BF8E
:1020C000FEF77CFF002743F630060097C4F20206B5
:1020D0003068002440F0010030603068C4F202042F
:1020E00000F00100009000984FF4E8501890022092
:1020F000CDE9190703201B900A2018AD1C9020463B
:102100002946FFF70BF94FF40070CDE91807204678
:1021100029461A97FFF702F9706840F08000706056
:102120000097706940F480407061706900F48040ED
:10213000009000981DB0F0BD2DE9F04381B0044639
:10214000006843F68C06C107C4F2020604D14FF0C2
:10215000000981070CD415E03168A26B21F0C06141
:1021600011433160B2FA82F14FEA5119810709D562
:102170003168E26B21F0C05111433160002A08BF81
:102180004FF00109410705D44FF00008010712D4B0
:1021900020E000BF3168226B21F44011114331600F
:1021A000B2FA82F14FEA5118B2F5801F08BF4FF022
:1021B000010901070ED53168626B21F4400111431A
:1021C000B2F5800F316008BF4FF00109002A08BF47
:1021D0004FF0010881065AD50020009056F84C0CAB
:1021E00047F2000740F0805046F84C0C56F84C0C73
:1021F000C4F2000700F0805000900098386840F466
:1022000080703860FFF760F9054600BF3868C00588
:1022100006D4FFF759F9401B0228F7D990E100BF17
:1022200056F81C0C10F4407017D0216C01F440716A
:10223000884212D056F81C0C40F64061C4F2472187
:10224000012220F440700A6000220A6046F81C0C4B
:1022500056F81C0CC00740F07B812068216C56F8B2
:10226000842C4FF6FF4701F4407322F4F812C0F6B5
:10227000FF770F40B3F5407F08BF3A4346F8842C00
:1022800056F81C2C6FF31F31114346F81C1CC10675
:1022900010D4010619D441061FD4C10525D48105E7
:1022A00030D4410536D4B9F1010F18BFB0F5006F35
:1022B0003CD062E094F8580040F64061C4F24721F7
:1022C000C1F8A00320680106E5D5B168E26C21F4ED
:1022D00040011143B1604106DFD5B168A26C21F025
:1022E00080611143B160C105D9D5B168626D21F03B
:1022F00000611143B160B2F1006F08BF4FF00108F7
:102300008105CED5B168626C21F080511143B16076
:102310004105C8D5B268216D22F000520A43B0F5DC
:10232000006FB26018BFB1F1005F23D140F26809BD
:10233000C4F247290020C9F80000FFF7C5F8054698
:1023400056F88C0C000105D5FFF7BEF8401B02289B
:10235000F6D9F5E02068C10702D0A16B00296FD043
:10236000810702D5E16B00296AD0410700F17D8029
:102370007FE000BFB9F1010FD8D0B8F1000F4FF0E6
:10238000000000F0DE806827C4F24727B860FFF73E
:102390009BF8054656F88C0C800005D5FFF794F89D
:1023A000401B0228F6D9CBE02068410701D5216BFC
:1023B00019B101071AD5616BC1B956F8041CD4E9EB
:1023C000062301F44031656A114341EA831141EA71
:1023D0000561D4F82CC046F8041C31686FF0FF0288
:1023E00021F4F85102EB0C2211433160C00516D5DF
:1023F000606DB0F1006F12D156F8040C226AD4E976
:10240000061300F07060D2034FF6FF75AA4308432D
:10241000A2F5803240EA8310104346F8040C0120F4
:10242000B860FFF751F8044656F88C0C800000F1B4
:102430008B80FFF749F8001B0328F5D380E000BF2D
:1024400056F8081C56F8082CD4E9013501F440313F
:1024500002F0706219436769114341EA851141EA4C
:10246000077146F8081C410703D5216BB1F5801FA1
:1024700005D001071FD5616BB1F5800F1BD156F850
:10248000081C56F8082CD4E9013701F4403102F059
:10249000E04219432569114341EA871141EA056188
:1024A000D4F828C046F8081C3168ACF1010221F0CC
:1024B0001F011143316041051FD5216DB1F1005F4E
:1024C0001BD1271D56F808CC56F8082CA8CFFF03BF
:1024D0004FF6FF7127EA01014FF0C06702F0E042BA
:1024E00007EA4C2707F100771A433A43A1F58031F8
:1024F00042EA8512114346F8081C000510D5271D35
:102500008FCF40EA8110D1034FF6FF729143A1F5BE
:10251000803140EA0360084340EA077046F8080C3F
:102520000120C9F80000FEF7CFFF054656F88C0CD5
:1025300000013FF522AFFEF7C7FF401B0228F5D987
:10254000032001B0BDE8F083002001B0BDE8F083B6
:10255000FEF7BAFF054641F2883700BF56F81C0C5B
:1025600080073FF57AAEFEF7AFFF401BB8424FF051
:102570000300F3D9E5E70000002804BF01207047FD
:102580002DE9F04143F60808C4F202080446D8F8E1
:10259000F8030D4600F00F00814207D988F8F85380
:1025A000D8F8F80300F00F00A84277D1206881071F
:1025B00017D5410705D5D8F8001041F4E051C8F807
:1025C0000010010705D5D8F8001041F46041C8F8A3
:1025D0000010D8F80010A26821F0F0011143C8F8EB
:1025E0000010C00740D1D8F8F80300F00F00854272
:1025F00007D288F8F853D8F8F80300F00F00A84283
:102600004CD12068410707D5D8F80010E26821F4C2
:10261000E0511143C8F80010000708D5D8F80000B1
:10262000216920F4604040EAC100C8F8000000F0D1
:102630007DF8D8F8001048F26022C1F30311C0F60B
:102640000002515C40F2080220FA01F140F204005D
:10265000C2F200000068C2F200021160FFF734FB12
:102660000020BDE8F08100BF6068811E022907D20A
:1026700058F8081C89015CBF0120BDE8F08111E019
:10268000012807D158F8081C89035CBF0120BDE868
:10269000F08107E058F8081C890703D40120BDE841
:1026A000F08100BFD8F8001021F003010843C8F8FA
:1026B0000000FEF709FF064641F28837D8F800000F
:1026C000616800F00C00B0EB810F8CD0FEF7FCFECF
:1026D000801BB842F2D90320BDE8F08140F2080027
:1026E00043F60801C2F20000C4F202010068096862
:1026F00048F27022C1F38221C0F60002515CC8404A
:102700007047000040F2080043F60801C2F20000E2
:10271000C4F202010068096848F27022C1F3423134
:10272000C0F60002515CC8407047000010B543F687
:102730000404C4F202046068C0F3810142F2004064
:10274000C0F2F400DFE801F04202081841F2002074
:10275000C0F27A0010BD00BF216801F03F0221687D
:1027600023684902C3F3881116D4A1FB000100239A
:10277000FDF7C4FD17E000BF216801F03F022168AA
:1027800023684902C3F3881114D4A1FB000100237C
:10279000FDF7B4FD15E000BF41F20020C0F27A0061
:1027A0004843B0FBF2F021680222C1F3014102EB81
:1027B000410109E041F20020C0F27A004843B0FB39
:1027C000F2F02168C1F30271B0FBF1F010BD00001E
:1027D000002804BF012070472DE9F04182B0044673
:1027E000007843F60006C007C4F202060CD0B068B9
:1027F00000F00C00042840F089803068800303D585
:102800006068002800F050812078800723D5B068E8
:1028100010F00C0F11D0B06800F00C00082802D1A5
:102820007068400209D5B06800F00C000C2840F038
:102830009F807068400200F19B803068800703D55C
:10284000E068012840F030813068216920F0F8000C
:1028500040EAC10030602078000713D42078400798
:102860002AD4A569002D00F01A81B06800F00C0090
:10287000082840F0AB80012D40F0E880012002B034
:10288000BDE8F0816069002840F20000C4F24720F2
:1028900000F088800121C0F8801EFEF715FE054675
:1028A000706F8007DAD4FEF70FFE401B0228F7D9BD
:1028B000032002B0BDE8F081306C5FEAC0080AD4A2
:1028C00000200190306C40F080503064306C00F09B
:1028D00080500190019847F20007C4F20007386861
:1028E000C00537D4386840F480703860FEF7ECFDDE
:1028F000054600BF3868C0052CD4FEF7E5FD401B37
:102900000228F7D9032002B0BDE8F081B06800F0DA
:102910000C00082803D1706840023FF56EAFB06824
:1029200000F00C000C2803D1706840023FF565AF41
:1029300061683068B1F5803F07D0B1F5A02F40F055
:10294000CB8040F480203060306840F480303060CC
:10295000CBE000BFA168306F012905D0052957D110
:1029600040F004003067306F40F00100306759E0FC
:10297000E068002800F09C800020C4F2472001217C
:102980000160FEF7A1FD0546306880073FF55CAFAA
:10299000FEF79AFD401B02284FF00300F4D902B065
:1029A000BDE8F0810021C0F8801EFEF78DFD0546D0
:1029B000706F80077FF552AFFEF786FD401B02283F
:1029C000F6D9032002B0BDE8F08100BF0027C4F2B1
:1029D000472700203866FEF777FD022D05460BD10C
:1029E0003068800140F19280FEF76EFD401B0228A6
:1029F0004FF00300F4D9D2E7306880014FD5FEF7DD
:102A000063FD401B02284FF00300F5D9C7E700BF64
:102A100020F001003067306F002920F0040030679B
:102A200000F09880FEF750FD054641F2883700BF60
:102A3000306F800700F1A080FEF746FD401BB842D2
:102A4000F6D9032002B0BDE8F08100BF7068E169EB
:102A500000F480028A4227D1216A00F03F028A42B4
:102A600022D147F6C071626A0140B1EB821F1BD1CF
:102A7000A16A4FF6FF73C903994300F44032A1F5F0
:102A800080318A4210D1E16A00F07062B2EB016FCE
:102A90000AD1216B00F0E040B0EB017F04D10020AF
:102AA00002B0BDE8F08100BF012002B0BDE8F081B6
:102AB0000020C4F2472000210160FEF705FD054615
:102AC000306880077FF5C7AEFEF7FEFC401B02288A
:102AD0004FF00300F4D962E720F4803030603068B2
:102AE000002920F48020306050D0FEF7EDFC054630
:102AF000306880033FF588AEFEF7E6FC401B642893
:102B0000F6D9032002B0BDE8F08100BF04F11C0536
:102B10002FCD246B084340EA8210D9034FF6FF7291
:102B20009143A1F5803140EA0560084340EA047012
:102B3000706001203866FEF7C7FC044630688001EB
:102B4000ADD4FEF7C1FC001B02284FF00300F5D9FD
:102B500025E700BFFEF7B8FC054641F2883700BF05
:102B6000306F800708D5FEF7AFFC401BB8424FF02E
:102B70000300F5D913E700BFB8F1000F3FF571AEC0
:102B8000306C20F0805030646BE600BFFEF79CFC98
:102B9000054600BF306880037FF536AEFEF794FC33
:102BA000401B64284FF00300F4D9F8E690F8510078
:102BB0007047000070B528B1416A29B10021016158
:102BC000142106E0012070BD4168B1F5827F02D07A
:102BD0001C21002242500026866290F8511029B92B
:102BE00080F85060054600F03DF82846022180F844
:102BF000511090E82E0002F482720C6803F4044332
:102C000024F040040C601A4405F4006305691A447A
:102C100005F0020345691A4405F001038569C4699A
:102C20001A4405F400731A4404F03803046A1A4481
:102C300004F08003846A1A4304F400531A430A60C0
:102C4000436A042202EA154203F010031A444A6060
:102C5000CA6922F40062CA610121466580F85110F8
:102C6000304670BD80B586B043F200010068C4F202
:102C70000101002288420592CDE9032202920192CD
:102C800002D006B080BD00BF43F630000092C4F20F
:102C90000200436943F480534361436903F4805362
:102CA0000093009B0092036843F0010303600068F7
:102CB00000F0010000900098E02001900220CDE992
:102CC0000202032004900520059001F5504001A95F
:102CD000FEF724FB06B080BD2DE9F04182B004462A
:102CE00090F8510001281AD100294FF0010018BFB7
:102CF000002A03D102B0BDE8F08100BF60681D4624
:102D00001746B0F5827F03D1A068002800F0BC8090
:102D10000E46FEF7D9FB94F85010012904D1022089
:102D200002B0BDE8F08100BF8046012084F8500069
:102D30000420002184F851006165A663A787E78716
:102D40002163A186E186A2682068B2F5004F216464
:102D5000616437D0016849063FD5E168E08F0029FA
:102D600043D000287AD0681C0BD11AE0C068A16B50
:102D700021F8020BA163E08F0138E087E08F002883
:102D80006CD020688168C907F0D1FEF79DFBA0EBED
:102D90000800A842F2D342E0FEF796FBE08F00283D
:102DA0005CD020688168C907F6D0C068A16B21F8A3
:102DB000020BA163E08F0138E087E08F0028F0D19B
:102DC0004CE000BF016821F040010160016821F47E
:102DD0008041016001684906BFD4016841F04001AB
:102DE0000160E168E08F0029BBD1B8B3681C0CD149
:102DF00024E000BF007BA16B0870A06B0130A063D2
:102E0000E08F0138E087E08F40B320688168C90710
:102E1000F0D1FEF759FBA0EB0800A842F3D3012044
:102E200084F85100002084F85000032002B0BDE86F
:102E3000F08100BFFEF748FBE08F78B12068816821
:102E4000C907F7D0007BA16B0870A06B0130A063AD
:102E5000E08F0138E087E08F0028EFD16068B0F59F
:102E6000827F0ED1A068B0F5004F02D0B0F5806F20
:102E700016D12168B0F5806F0A6822F040020A601E
:102E80000ED1204601210DE0042084F85100204697
:102E90000A463B46009500F059F902B0BDE8F081C2
:102EA0002046802100222B46CDF8008002F0DAFD7A
:102EB00028B1606D40F02000606520206065012031
:102EC00084F85100002084F85000606D002818BF7D
:102ED000012002B0BDE8F0812DE9F04184B01D462B
:102EE00016460F460446FEF7EFFA94F851100129F2
:102EF0000ED18046002F4FF0010018BF002E03D1E5
:102F000004B0BDE8F08100BF94F85000012803D15F
:102F1000022004B0BDE8F081012084F850000320B5
:102F2000002184F8510061652763A686E686A163C7
:102F3000A187E187A0682164B0F5004F2068616433
:102F400007D1016821F040010160016841F480412E
:102F500001600168490603D4016841F04001016045
:102F60006168731EE268B1FA81F1B3FA83F349092B
:102F70005B09B2F5006F41EA030139D131B137F88D
:102F8000021BC1602763E08E0138E086E08E0028D6
:102F900070D0681C0BD11AE0216B31F8022BC26093
:102FA0002163E08E0138E086E08E002862D0206840
:102FB00081688907F0D4FEF787FAA0EB0800A842E1
:102FC000F2D338E0FEF780FAE08E002852D0206875
:102FD00081688907F6D5216B31F8022BC260216325
:102FE000E08E0138E086E08E0028F0D142E000BF9C
:102FF00039B139780173206B01302063E08E0138DC
:10300000E086E08EB0B3681C0BD123E0216B097819
:103010000173206B01302063E08E0138E086E08E82
:1030200040B3206881688907F0D4FEF74DFAA0EB21
:103030000800A842F3D3012084F85100002084F84E
:103040005000032004B0BDE8F08100BFFEF73CFA59
:10305000E08E78B1206881688907F7D5216B0978FF
:103060000173206B01302063E08E0138E086E08E32
:103070000028EFD12046022101222B46CDF8008006
:1030800002F0F0FCE0B1606D40F0200060652020AF
:103090006065A06838B9002002902068C16802917C
:1030A000806802900298012084F85100002084F882
:1030B0005000606D002818BF012004B0BDE8F08109
:1030C00040F20800C2F20000006849F68171C1F2C6
:1030D0005E61A0FB0101480D4FF47A7148430390F3
:1030E0006068B0F5827F0BD12046802100222B46FC
:1030F000CDF8008002F0B6FC0028C4D1C9E700BFBB
:1031000003980028C5D0039801380390206881688F
:103110000906BED503990029BBD003990139039153
:1031200081680906B5D503990029B2D00399013900
:10313000039181680906ACD503990029A9D00399A8
:103140000139039180680006DAD4A2E72DE9F04343
:1031500083B01E4615460F460446FEF7B5F994F8AF
:1031600051108146012909D1002F4FF0010018BFED
:10317000002D0FD103B0BDE8F08300BF6068B0F54B
:10318000827F0DD104294FF00200F3D1A1680029FC
:10319000EAD0EFE7002EEDD094F85000012803D1DB
:1031A000022003B0BDE8F083012084F8500094F8B9
:1031B0005100002104281CBF052084F851006165DE
:1031C000A563E687A6872763E6862068A68621642E
:1031D00061640168490603D4016841F0400101605F
:1031E0006168731EE268B1FA81F1B3FA83F3DDF826
:1031F000288049095B09B2F5006F41EA030165D1F6
:1032000031B137F8021BC1602763E08E0138E086D8
:10321000012518F1010032D102E000BFFEF754F998
:10322000E08E18B9E08F002800F0B880206881682F
:1032300089070CD5E18E51B1012D08D1216B0025F4
:1032400031F8022BC2602163E18E0139E186816889
:10325000C907E3D0E18F0029E0D0C068A16B012548
:1032600021F8020BA163E08F0138E087D6E700BFA9
:10327000FEF72AF9A0EB0900404580F0A580E08E1A
:1032800018B9E08F002800F08980206881688907DC
:103290000CD5E18E51B1012D08D1216B002531F8FB
:1032A000022BC2602163E18E0139E1868168C90782
:1032B000DED0E18F0029DBD0C068A16B012521F8A9
:1032C000020BA163E08F0138E087D1E739B139788B
:1032D0000173206B01302063E08E0138E086012508
:1032E00018F1010032D101E0FEF7EEF8E08E10B9DE
:1032F000E08F002852D02068816889070ED5E18EC2
:1033000061B1012D0AD1216B002509780173216B70
:10331000206801312163E18E0139E1868168C907A6
:10332000E2D0E18F0029DFD0C068A16B01250870D1
:10333000A06B0130A063E08F0138E087D4E700BFC5
:10334000FEF7C2F8A0EB090040453DD2E08E08B977
:10335000E08F18B32068816889070ED5E18E61B1CE
:10336000012D0AD1216B002509780173216B20689A
:1033700001312163E18E0139E1868168C907DFD01F
:10338000E18F0029DCD0C068A16B01250870A06B1B
:103390000130A063E08F0138E087D1E720460221A9
:1033A00001224346CDF8009002F05CFBB0B1606DA5
:1033B00040F02000606520206065002084F8500007
:1033C000012003B0BDE8F083012084F85100002003
:1033D00084F85000032003B0BDE8F08340F20800F9
:1033E000C2F20000006849F68171C1F25E61A0FB83
:1033F0000101480D4FF47A71484302906068B0F5BE
:10340000827F0BD12046802100224346CDF80090D8
:1034100002F028FB0028CAD121E000BF0298F0B1D9
:1034200002980138029020688168090617D5029930
:10343000A9B1029901390291816809060FD5029953
:1034400069B10299013902918168090607D502998B
:1034500029B102990139029180680006DED4A06882
:1034600038B9002001902068C168019180680190FE
:103470000198012084F85100002084F85000606D0C
:10348000002818BF012003B0BDE8F083411E0020D2
:10349000B0EB116F1CBF012070474EF21002CEF24C
:1034A000000251604EF62351CEF20001F0230B7062
:1034B0000721906011607047002804BF0120704709
:1034C00010B5044690F8410028B9002084F8400067
:1034D000204600F021F8242084F841002068C168CB
:1034E00021F40051C160204602F0B2FB206801695E
:1034F00021F490410161416921F02A014161C168D3
:1035000041F40051C16000202021606484F8411022
:1035100084F84210606310BD80B586B044F60001A7
:103520000068C4F20001002288420592CDE903221E
:103530000292019202D006B080BD00BF43F6300077
:103540000092C4F20200036943F48023036103691B
:1035500003F480230093009B0092036843F0080368
:103560000360006800F00800009000984FF440707D
:1035700001900220CDE9020203200490072005906B
:1035800001F5E23001A9FDF7C9FE06B080BD0000DB
:103590002DE9F04381B0044690F84100202809D17C
:1035A00000294FF0010018BF002A07D101B0BDE883
:1035B000F08300BF022001B0BDE8F083002060640A
:1035C00021201D460E4684F841001746FDF77CFF7A
:1035D000A784E784A1688146B1F5805F02D12069A4
:1035E00000285DD037460020E28C2168002A5DD09B
:1035F0006A1C24D0002D4AD0804600BF086800060F
:1036000008D4FDF761FFA0EB0900A8427AD8216831
:10361000C868F3E717B117F8010B04E038F8020B9C
:1036200000276FF35F204860E08C0138E084E08C75
:103630000028E3D13AE000BF0A68120609D40A68FC
:10364000120606D40A6812065CBF0A685FEA0262C4
:10365000F2D51FB117F8012B05E000BF30F8022B9F
:1036600000276FF35F224A60E28C013AE284E28C29
:10367000002AE4D11AE000BF30F8022B00276FF3D4
:103680005F224A60E28C013AE284E28C72B10A68FD
:10369000120635D5002FEFD017F8012BF1E700BF48
:1036A00000273046E28C2168002AA1D10868400634
:1036B0001ED42DB3681C14D1086840062AD40868AB
:1036C000400627D40868400624D4086840064FF016
:1036D0000000F1D50DE000BF2068C1680068400619
:1036E00018D4FDF7F1FEA0EB0900A842F4D909E0D7
:1036F0000020202184F8411001B0BDE8F08300BF14
:10370000FDF7E2FE0320202184F8411001B0BDE85E
:10371000F08300BF0020202184F8411001B0BDE8F3
:10372000F0830000FEE700002DE9F04782B0044678
:1037300000689A460B9D0A9E0368914643F4806296
:10374000026002680F4642F48071016020464FF02B
:10375000011100223346009500F032F950B1206883
:103760000068C00544BF4FF400702064032002B01D
:10377000BDE8F08740F202082068C0F2010807F0B7
:10378000FE0707612046414632462B4600F0FEF90F
:1037900020B1012002B0BDE8F08700BF00200190F9
:1037A00020682A464169019180693146019001985B
:1037B000204600F09FFAB0B92068BAF1010F09D095
:1037C0004FEA19210161204631462A4600F092FA5B
:1037D00048B920685FFA89F10161204631462A46DE
:1037E00000F088FA60B1206C0428D2D1206801680A
:1037F00041F400710160012002B0BDE8F08700BF14
:10380000206800220168334641F48071016020463F
:103810004FF00111009500F0D3F800289FD147F038
:10382000010C27682046414632462B46C7F810C097
:1038300002B0BDE8F04700F0A9B900002DE9F0435F
:1038400083B0044600680F4601680A9D0B9E41F450
:10385000807199469046016020464FF00111002288
:103860002B46009600F0ACF850B120680068C00507
:1038700044BF4FF400702064032003B0BDE8F08320
:10388000206807F0FE0101610221C0F2010120461B
:103890002A46334600F07AF920B1012003B0BDE892
:1038A000F08300BF002002902068324641690291F7
:1038B0008069294602900298204600F01BFA58B110
:1038C000206C0428E9D12068016841F4007101608E
:1038D000012003B0BDE8F0832068B9F1010F0AD0E0
:1038E0004FEA1821016120462946324600F002FACB
:1038F0000028E5D120685FFA88F10161002003B05B
:10390000BDE8F08370B50368044653F8140F400710
:1039100011D40E46481C29D086BB00BF186840054C
:1039200027D4FDF7D1FD236853F8140F400737D58E
:1039300018684007F2D5002070BD00BF1868400726
:10394000F9D41868400514D418684007F3D41868EF
:1039500040050ED418684007EDD41868400508D417
:10396000186840074FF0000048BF70BD1868400558
:10397000E4D56FF480601860042012E0154603E07F
:1039800053F8140F4007D6D418684005F1D4FDF75A
:103990009BFD401B2368B042F2D958694007EFD421
:1039A000202000212022216384F83D2084F83E104D
:1039B000226C10432064012084F83C1070BD00008C
:1039C0002DE9F041054600681E46144601F47F02C9
:1039D00001338FB242D0DDF81880B2F5803F40F05D
:1039E000878040693840C01BB0FA80F040098442AB
:1039F00040F0C8804EB924E040693840C01BB0FA9E
:103A000080F04009844240F0BD80FDF75DFDA0EBF1
:103A100008012868B142EFD941693940C91BB1FAA0
:103A200081F149098C42E7D19BE000BF40693840F1
:103A3000C01BB0FA80F0400984424FF0000040F013
:103A4000A280FDF741FD286841693940C91BB1FAE0
:103A500081F149098C42E9D183E000BFB2F5803F92
:103A600024D100BF41693940C91BB1FA81F149092C
:103A70008C4240F0878041693940C91BB1FA81F11D
:103A800049098C4240F07E8041693940C91BB1FA36
:103A900081F149098C4275D141693940C91BB1FA9C
:103AA00081F149098C42DDD06CE000BF8169394069
:103AB000C91BB1FA81F149098C4263D1816939404E
:103AC000C91BB1FA81F149098C425BD18169394046
:103AD000C91BB1FA81F149098C4253D1816939403E
:103AE000C91BB1FA81F149098C42DFD04AE000BF1D
:103AF00080693840C01BB0FA80F04009844241D14F
:103B000046B923E080693840C01BB0FA80F0400914
:103B1000844237D1FDF7D8FCA0EB08012868B142F8
:103B2000F0D981693940C91BB1FA81F149098C4248
:103B3000E8D116E080693840C01BB0FA80F0400937
:103B400084424FF0000018BFBDE8F081FDF7BCFCD7
:103B5000286881693940C91BB1FA81F149098C4251
:103B6000E8D100202021286385F83D1085F83E002B
:103B7000296C41F02001296485F83C000120BDE852
:103B8000F08100BF0020BDE8F0810000F0B581B0F9
:103B9000044600681D4643698FB203EA0701B94233
:103BA00002D1002001B0F0BD4169164601323CD07F
:103BB000490512D47EB300BFFDF786FC411B206887
:103BC000B14203D941693940B9422BD141693940E9
:103BD000B942E6D041694905EED5016841F400716A
:103BE00001606FF480614161042000212022216383
:103BF00084F83D2084F83E10226C1043206484F841
:103C00003C10012001B0F0BD41693940B942C8D033
:103C100041694905E1D4FDF757FC20684169394005
:103C2000B942F1D02020E0E741694905D5D4416986
:103C30003940B942B5D041694905CED441693940CE
:103C4000B942AED041694905C7D441693940B9424A
:103C5000A7D041694905C0D441693940B942E3D18F
:103C60009FE7000070B504460068154650F8143F01
:103C70005A063DD40E4629B926E000BF50F8141F5D
:103C8000490635D40168C90621D4FDF71DFC411B46
:103C90002068B142F2D941694906EFD400202021C1
:103CA000206384F83D1084F83E00206C40F0200032
:103CB00018E000BFFDF708FC206850F8141F490603
:103CC000ECD50168490613D40168C906F2D56FF036
:103CD0001001016000202021206384F83D1084F849
:103CE0003E00206C2064002084F83C00012070BD60
:103CF000002070BD70B50368044653F8140F000629
:103D000011D40E46481C29D086BB00BF1868400558
:103D100027D4FDF7D9FB236853F8140F000637D5D5
:103D200018680006F2D5002070BD00BF18680006B4
:103D3000F9D41868400514D418680006F3D418683C
:103D400040050ED418680006EDD41868400508D464
:103D5000186800064FF0000048BF70BD18684005A5
:103D6000E4D56FF480601860042012E0154603E08B
:103D700053F8140F0006D6D418684005F1D4FDF7A7
:103D8000A3FB401B2368B042F2D958690006EFD468
:103D9000202000212022216384F83D2084F83E1059
:103DA000226C10432064012084F83C1070BD000098
:103DB00001F0FC0100F0F800C90041EA002040EAEF
:103DC000D200704770B540F27004C2F2000405469C
:103DD0002078A17840F23F12002818BF40F2DF128D
:103DE00040F2DF1300294FF000004FF0000118BF30
:103DF00040F23F1302F070FF2078A1784FF4A072D8
:103E000000284FF4F07018BF4FF4F072002918BF6B
:103E10004FF4A07000FB02F641F20040C4F2020031
:103E2000102101222C0AFDF749FBEDB2204603F0D8
:103E3000A7F9284603F0A4F9204603F0A1F9284683
:103E400003F09EF9204603F09BF9284603F098F909
:103E5000204603F095F9284603F092F9204603F036
:103E60008FF9284603F08CF9204603F089F928469B
:103E700003F086F9204603F083F9284603F080F921
:103E8000204603F07DF9284603F07AF9083ECDD1AB
:103E900070BD0000F0B581B041F20044C4F20204EC
:103EA000A4F58055284602210122FDF707FB28468C
:103EB00040210022FDF702FB284604210022FDF7E5
:103EC000FDFA1420FDF708FA284604210122FDF727
:103ED000F5FA7820FDF700FA204610210022FDF7C0
:103EE000EDFA04F5806630464FF400710122FDF7CB
:103EF000E5FA30464FF480410022FDF7DFFA204614
:103F00004FF400410022FDF7D9FAA4F58065284658
:103F10004FF400510022FDF7D1FA20464FF48041C2
:103F20000122FDF7CBFA28464FF400610022FDF78D
:103F3000C5FA28464FF400710022FDF7BFFA20466B
:103F40004FF400510022FDF7B9FAA4F54067384656
:103F500004210022FDF7B2FA38460421012200BFF5
:103F6000FDF7ACFA7820FDF7B7F9204610210022C2
:103F7000FDF7A4FA30464FF400710022FDF79EFAD7
:103F800030464FF480410022FDF798FA20464FF466
:103F900000410022FDF792FA28464FF4005100221A
:103FA000FDF78CFA20464FF480410122FDF786FA96
:103FB00028464FF400610022FDF780FA28464FF4AE
:103FC00000710122FDF77AFA20464FF400510122D8
:103FD000FDF774FA384604210022FDF76FFA3846DF
:103FE0000421012200BFFDF769FA204610210122B9
:103FF000FDF764FA30464FF400710122FDF75EFAD6
:1040000030464FF480410122FDF758FA20464FF424
:1040100000410122FDF752FA28464FF400510022D8
:10402000FDF74CFA20464FF480410022FDF746FA96
:1040300028464FF400610022FDF740FA28464FF46D
:1040400000710022FDF73AFA20464FF40051002299
:10405000FDF734FA384604210022FDF72FFA3846DE
:104060000421012200BFFDF729FA20461021012278
:10407000FDF724FA30464FF400710022FDF71EFAD6
:1040800030464FF480410122FDF718FA20464FF4E4
:1040900000410022FDF712FA28464FF40051002299
:1040A000FDF70CFA20464FF480410022FDF706FA96
:1040B00028464FF400610022FDF700FA28464FF42D
:1040C00000710122FDF7FAF920464FF40051002259
:1040D000FDF7F4F9384604210022FDF7EFF93846E0
:1040E0000421012200BFFDF7E9F920461021012239
:1040F000FDF7E4F930464FF400710022FDF7DEF9D8
:1041000030464FF480410022FDF7D8F920464FF4A5
:1041100000410022FDF7D2F928464FF40051012258
:10412000FDF7CCF920464FF480410122FDF7C6F996
:1041300028464FF400610022FDF7C0F928464FF4ED
:1041400000710022FDF7BAF920464FF40051002219
:10415000FDF7B4F9384604210022FDF7AFF93846DF
:104160000421012200BFFDF7A9F9204610210022F9
:10417000FDF7A4F930464FF400710122FDF79EF9D6
:1041800030464FF480410022FDF798F920464FF465
:1041900000410022FDF792F928464FF40051002219
:1041A000FDF78CF920464FF480410122FDF786F996
:1041B00028464FF400610022FDF780F928464FF4AD
:1041C00000710122FDF77AF920464FF400510122D7
:1041D000FDF774F9384604210022FDF76FF93846DF
:1041E0000421012200BFFDF769F9204610210122B8
:1041F000FDF764F930464FF400710022FDF75EF9D7
:1042000030464FF480410022FDF758F920464FF424
:1042100000410022FDF752F928464FF400510022D8
:10422000FDF74CF920464FF480410022FDF746F996
:1042300028464FF400610022FDF740F928464FF46C
:1042400000710022FDF73AF920464FF40051002298
:10425000FDF734F9384604210022FDF72FF93846DE
:104260000421012200BFFDF729F920461021012277
:10427000FDF724F930464FF400710122FDF71EF9D5
:1042800030464FF480410122FDF718F920464FF4E3
:1042900000410122FDF712F928464FF40051002297
:1042A000FDF70CF920464FF480410022FDF706F996
:1042B00028464FF400610022FDF700F928464FF42C
:1042C00000710022FDF7FAF820464FF40051002259
:1042D000FDF7F4F8384604210022FDF7EFF83846E0
:1042E0000421012200BFFDF7E9F820461021012238
:1042F000FDF7E4F830464FF400710022FDF7DEF8D8
:1043000030464FF480410022FDF7D8F820464FF4A4
:1043100000410022FDF7D2F828464FF40051002258
:10432000FDF7CCF820464FF480410122FDF7C6F896
:1043300028464FF400610022FDF7C0F828464FF4EC
:1043400000710022FDF7BAF820464FF40051002218
:10435000FDF7B4F8384604210022FDF7AFF83846DF
:104360000421012200BFFDF7A9F8204610210022F8
:10437000FDF7A4F830464FF400710022FDF79EF8D7
:1043800030464FF480410122FDF798F820464FF463
:1043900000410122FDF792F828464FF40051002217
:1043A000FDF78CF820464FF480410122FDF786F896
:1043B00028464FF400610122FDF780F828464FF4AB
:1043C00000710022FDF77AF820464FF400510022D8
:1043D000FDF774F8384604210022FDF76FF83846DF
:1043E0000421012200BFFDF769F8204610210122B7
:1043F000FDF764F830464FF400710022FDF75EF8D7
:1044000030464FF480410022FDF758F820464FF423
:1044100000410022FDF752F828464FF400510122D6
:10442000FDF74CF820464FF480410022FDF746F896
:1044300028464FF400610022FDF740F828464FF46B
:1044400000710122FDF73AF820464FF40051002296
:10445000FDF734F8384604210022FDF72FF83846DE
:104460000421012200BFFDF729F820461021002277
:10447000FDF724F830464FF400710022FDF71EF8D6
:1044800030464FF480410122FDF718F820464FF4E2
:1044900000410022FDF712F828464FF40051012296
:1044A000FDF70CF820464FF480410122FDF706F895
:1044B00028464FF400610122FDF700F828464FF42A
:1044C00000710022FCF7FAFF20464FF40051002251
:1044D000FCF7F4FF384604210022FCF7EFFF3846D2
:1044E0000421012200BFFCF7E9FF20461021012230
:1044F000FCF7E4FF30464FF400710122FCF7DEFFC9
:1045000030464FF480410022FCF7D8FF20464FF49C
:1045100000410122FCF7D2FF28464FF4005100224F
:10452000FCF7CCFF20464FF480410122FCF7C6FF88
:1045300028464FF400610022FCF7C0FF28464FF4E4
:1045400000710122FCF7BAFF20464FF4005100220F
:10455000FCF7B4FF384604210022FCF7AFFF3846D1
:104560000421012200BFFCF7A9FF204610210022F0
:10457000FCF7A4FF30464FF400710122FCF79EFFC8
:1045800030464FF480410022FCF798FF20464FF45C
:1045900000410122FCF792FF28464FF4005100220F
:1045A000FCF78CFF20464FF480410022FCF786FF89
:1045B00028464FF400610022FCF780FF28464FF4A4
:1045C00000710122FCF77AFF20464FF400510122CE
:1045D000FCF774FF384604210022FCF76FFF3846D1
:1045E0000421012200BFFCF769FF204610210122AF
:1045F000FCF764FF30464FF400710022FCF75EFFC9
:1046000030464FF480410022FCF758FF20464FF41B
:1046100000410022FCF752FF28464FF400510022CF
:10462000FCF74CFF20464FF480410122FCF746FF87
:1046300028464FF400610022FCF740FF28464FF463
:1046400000710022FCF73AFF20464FF4005100228F
:10465000FCF734FF384604210022FCF72FFF3846D0
:104660000421012200BFFCF729FF2046102100226F
:10467000FCF724FF30464FF400710022FCF71EFFC8
:1046800030464FF480410022FCF718FF20464FF4DB
:1046900000410022FCF712FF28464FF4005101228E
:1046A000FCF70CFF20464FF480410022FCF706FF88
:1046B00028464FF400610022FCF700FF28464FF423
:1046C00000710122FCF7FAFE20464FF4005101224E
:1046D000FCF7F4FE384604210022FCF7EFFE3846D2
:1046E0000421012200BFFCF7E9FE2046102101222F
:1046F000FCF7E4FE30464FF400710022FCF7DEFECA
:1047000030464FF480410022FCF7D8FE20464FF49B
:1047100000410022FCF7D2FE28464FF4005100224F
:10472000FCF7CCFE20464FF480410022FCF7C6FE89
:1047300028464FF400610022FCF7C0FE28464FF4E3
:1047400000710022FCF7BAFE20464FF4005100220F
:10475000FCF7B4FE384604210022FCF7AFFE3846D1
:104760000421012200BFFCF7A9FE204610210122EE
:10477000FCF7A4FE30464FF400710022FCF79EFEC9
:1047800030464FF480410122FCF798FE20464FF45A
:1047900000410022FCF792FE28464FF4005100220F
:1047A000FCF78CFE20464FF480410122FCF786FE88
:1047B00028464FF400610122FCF780FE28464FF4A2
:1047C00000710022FCF77AFE20464FF400510022CF
:1047D000FCF774FE384604210022FCF76FFE3846D1
:1047E0000421012200BFFCF769FE204610210122AE
:1047F000FCF764FE30464FF400710022FCF75EFEC9
:1048000030464FF480410122FCF758FE20464FF419
:1048100000410122FCF752FE28464FF400510022CD
:10482000FCF74CFE20464FF480410122FCF746FE87
:1048300028464FF400610122FCF740FE28464FF461
:1048400000710022FCF73AFE20464FF4005100228E
:10485000FCF734FE384604210022FCF72FFE3846D0
:104860000421012200BFFCF729FE2046102101226D
:10487000FCF724FE30464FF400710122FCF71EFEC7
:1048800030464FF480410022FCF718FE20464FF4DA
:1048900000410122FCF712FE28464FF4005100228D
:1048A000FCF70CFE20464FF480410022FCF706FE88
:1048B00028464FF400610022FCF700FE28464FF422
:1048C00000710122FCF7FAFD20464FF4005100224E
:1048D000FCF7F4FD384604210022FCF7EFFD3846D2
:1048E0000421012200BFFCF7E9FD2046102101222E
:1048F000FCF7E4FD30464FF400710022FCF7DEFDCA
:1049000030464FF480410122FCF7D8FD20464FF499
:1049100000410122FCF7D2FD28464FF4005100224D
:10492000FCF7CCFD20464FF480410022FCF7C6FD89
:1049300028464FF400610022FCF7C0FD28464FF4E2
:1049400000710022FCF7BAFD20464FF4005100220E
:10495000FCF7B4FD384604210022FCF7AFFD3846D1
:104960000421012200BFFCF7A9FD204610210122ED
:10497000FCF7A4FD30464FF400710022FCF79EFDC9
:1049800030464FF480410122FCF798FD20464FF459
:1049900000410122FCF792FD28464FF4005100220D
:1049A000FCF78CFD20464FF480410122FCF786FD88
:1049B00028464FF400610022FCF780FD28464FF4A2
:1049C00000710022FCF77AFD20464FF400510022CE
:1049D000FCF774FD384604210022FCF76FFD3846D1
:1049E0000421012200BFFCF769FD204610210122AD
:1049F000FCF764FD30464FF400710122FCF75EFDC8
:104A000030464FF480410122FCF758FD20464FF418
:104A100000410122FCF752FD28464FF400510022CC
:104A2000FCF74CFD20464FF480410122FCF746FD87
:104A300028464FF400610122FCF740FD28464FF460
:104A400000710022FCF73AFD20464FF4005100228D
:104A5000FCF734FD384604210022FCF72FFD3846D0
:104A60000421012200BFFCF729FD2046102101226C
:104A7000FCF724FD30464FF400710122FCF71EFDC7
:104A800030464FF480410022FCF718FD20464FF4D9
:104A900000410122FCF712FD28464FF4005100228C
:104AA000FCF70CFD20464FF480410122FCF706FD87
:104AB00028464FF400610122FCF700FD28464FF420
:104AC00000710122FCF7FAFC20464FF4005100224D
:104AD000FCF7F4FC384604210022FCF7EFFC3846D2
:104AE0000421012200BFFCF7E9FC2046102101222D
:104AF000FCF7E4FC30464FF400710122FCF7DEFCC9
:104B000030464FF480410122FCF7D8FC20464FF498
:104B100000410122FCF7D2FC28464FF4005100224C
:104B2000FCF7CCFC20464FF480410122FCF7C6FC88
:104B300028464FF400610122FCF7C0FC28464FF4E0
:104B400000710122FCF7BAFC20464FF4005100220C
:104B5000FCF7B4FC384604210022FCF7AFFC3846D1
:104B60000421012200BFFCF7A9FC204610210122EC
:104B7000FCF7A4FC30464FF400710022FCF79EFCC9
:104B800030464FF480410022FCF798FC20464FF459
:104B900000410122FCF792FC28464FF4005100220C
:104BA000FCF78CFC20464FF480410122FCF786FC88
:104BB00028464FF400610022FCF780FC28464FF4A1
:104BC00000710122FCF77AFC20464FF400510022CC
:104BD000FCF774FC384604210022FCF76FFC3846D1
:104BE0000421012200BFFCF769FC204610210122AC
:104BF000FCF764FC30464FF400710022FCF75EFCC9
:104C000030464FF480410022FCF758FC20464FF418
:104C100000410122FCF752FC28464FF400510122CA
:104C2000FCF74CFC20464FF480410022FCF746FC88
:104C300028464FF400610022FCF740FC28464FF460
:104C400000710022FCF73AFC20464FF4005100228C
:104C5000FCF734FC384604210022FCF72FFC3846D0
:104C60000421012200BFFCF729FC2046102101226B
:104C7000FCF724FC30464FF400710022FCF71EFCC8
:104C800030464FF480410022FCF718FC20464FF4D8
:104C900000410022FCF712FC28464FF4005100228C
:104CA000FCF70CFC20464FF480410022FCF706FC88
:104CB00028464FF400610022FCF700FC28464FF420
:104CC00000710022FCF7FAFB20464FF4005100224D
:104CD000FCF7F4FB384604210022FCF7EFFB3846D2
:104CE0000421012200BFFCF7E9FB2046102100222D
:104CF000FCF7E4FB30464FF400710122FCF7DEFBC9
:104D000030464FF480410122FCF7D8FB20464FF497
:104D100000410022FCF7D2FB28464FF4005100224C
:104D2000FCF7CCFB20464FF480410122FCF7C6FB88
:104D300028464FF400610022FCF7C0FB28464FF4E0
:104D400000710022FCF7BAFB20464FF4005100220C
:104D5000FCF7B4FB384604210022FCF7AFFB3846D1
:104D60000421012200BFFCF7A9FB204610210022EC
:104D7000FCF7A4FB30464FF400710122FCF79EFBC8
:104D800030464FF480410022FCF798FB20464FF458
:104D900000410022FCF792FB28464FF4005101220B
:104DA000FCF78CFB20464FF480410022FCF786FB89
:104DB00028464FF400610122FCF780FB28464FF49F
:104DC00000710022FCF77AFB20464FF400510022CC
:104DD000FCF774FB384604210022FCF76FFB3846D1
:104DE0000421012200BFFCF769FB322001B0BDE8BD
:104DF000F040FCF771BA00002DE9F04141F20045A6
:104E0000C4F202050446284610210022FCF756FB96
:104E100005F5806738464FF400710022FCF74EFB21
:104E200038464FF480410122FCF748FB28464FF4F6
:104E300000410122FCF742FBA5F5806630464FF4A5
:104E400000510022FCF73AFB28464FF48041012232
:104E5000FCF734FB30464FF400610122FCF72EFBD7
:104E600030464FF400710022FCF728FB28464FF42F
:104E700000510022FCF722FBA5F5406840460421C2
:104E80000022FCF71BFB40460421012200BFFCF777
:104E900015FB032C88BFBDE8F081DFE804F003BDFB
:104EA000417F00BF284610210122FCF707FB38464E
:104EB0004FF4007100220024FCF700FB38464FF449
:104EC00080410022FCF7FAFA28464FF40041002204
:104ED000FCF7F4FA30464FF400510122FCF7EEFAE9
:104EE00028464FF480410022FCF7E8FA30464FF4A0
:104EF00000610022FCF7E2FA30464FF40071012213
:104F0000FCF7DCFA28464FF400510022FCF7D6FAF1
:104F1000404604210022FCF7D1FA00BFB8E000BFF0
:104F2000284610210122FCF7C9FA38464FF40071D7
:104F300000220024FCF7C2FA38464FF480410022D8
:104F4000FCF7BCFA28464FF400410022FCF7B6FA01
:104F500030464FF400510122FCF7B0FA28464FF4D6
:104F600080410022FCF7AAFA30464FF4006100228B
:104F7000FCF7A4FA30464FF400710022FCF79EFAC9
:104F800028464FF400510122FCF798FA40460421CC
:104F90000022FCF793FA00BF7AE000BF28461021F8
:104FA00001220124FCF78AFA38464FF400710022EE
:104FB000FCF784FA38464FF480410022FCF77EFA71
:104FC00028464FF400410022FCF778FA30464FF4AF
:104FD00000510122FCF772FA28464FF4804100226A
:104FE000FCF76CFA30464FF400610122FCF766FAD8
:104FF00030464FF400710122FCF760FA28464FF466
:1050000000510122FCF75AFA404604210022FCF725
:1050100055FA00BF3CE000BF2846102101220124C0
:10502000FCF74CFA38464FF400710022FCF746FAC0
:1050300038464FF480410022FCF740FA28464FF4EE
:1050400000410022FCF73AFA30464FF400510122A9
:10505000FCF734FA28464FF480410022FCF72EFA80
:1050600030464FF400610122FCF728FA30464FF435
:1050700000710022FCF722FA28464FF4005100226A
:10508000FCF71CFA404604210022FCF717FA00BF87
:10509000404604210122FCF711FA40F27000C2F2EE
:1050A000000004708470BDE8F081000070B582B02B
:1050B0000446164641F080020068A1888DF807205A
:1050C00000221D46FCF7FAF9A0690DF10701012243
:1050D0004FF4FA63FDF700FFA069FDF767FD0128B3
:1050E000FAD1A06931462A464FF4FA63FDF7F4FE7F
:1050F000A069FDF75BFD0128FAD12068A188012293
:10510000FCF7DCF902B070BD2DE9F04182B0012559
:105110000DF106010DF10703012204468DF806503A
:10512000009500F0B9F99DF80700002700F0F8009D
:105130004FF081088DF807000DF106010DF107030E
:1051400020460122E7618DF80680009500F058FCAA
:105150000A20FCF7C1F80DF106010DF10703204606
:1051600001228DF80650009500F096F99DF8076031
:105170000A20FCF7B1F846F080008DF807000DF129
:1051800006010DF10703204601228DF806800095E7
:1051900000F036FC6420FCF79FF8266A8621B008F0
:1051A0008DF806108DF807000DF106010DF10703CB
:1051B00020460122009500F023FC0520FCF78CF826
:1051C000B00187218DF806108DF807000DF106015A
:1051D0000DF1070320460122009500F011FC052087
:1051E000FCF77AF888208DF806000DF106010DF124
:1051F0000703204601228DF80770009500F000FC9F
:105200000520FCF769F894F82A0089218DF806102A
:105210008DF807000DF106010DF10703204601226C
:10522000009500F0EDFB0A20FCF756F894F82B00EF
:10523000CD2301462D2898BF2D21F02928BFF0212C
:10524000A1F12D02D2B25A431E3141F69A135943AD
:10525000090C792838BF910A01F120008B218DF8C3
:1052600006108DF807000DF106010DF10703204629
:105270000122009500F0C4FB0A20FCF72DF88C20D9
:105280008DF8060023208DF807000DF106010DF1C1
:10529000070320460122009500F0B2FB1E208DF886
:1052A00006000DF106010DF10703204601220095CD
:1052B00000F0F2F89DF807009E2140F007008DF8FD
:1052C00006108DF807000DF106010DF107032046C9
:1052D0000122009500F094FB0A20FBF7FDFF94F8F3
:1052E0002410204600F0C0F99F208DF80600FF2012
:1052F0008DF807000DF106010DF10703204601228C
:10530000009500F07DFB94F8260094F825104000ED
:1053100000EB01109D218DF806108DF807000DF1AE
:1053200006010DF1070320460122009500F068FBFD
:1053300094F8240094F8256005FA00F002F0A1FD2D
:1053400048F21022C0F6000202EBC60292ED000BFA
:1053500053EC102B02F00AFC02F064FD10284FF011
:105360002600C8BF01278DF806000DF106010DF1DA
:10537000070320460122009500F08EF89DF80700F3
:10538000A62100F0F70040EAC7008DF806108DF85E
:1053900007000DF106010DF10703204601220095DB
:1053A00000F02EFB0A20FBF797FF94F82900A021BC
:1053B0008DF806108DF807000DF106010DF10703B9
:1053C00020460122009500F01BFB94F82800A12143
:1053D0008DF806108DF807000DF106010DF1070399
:1053E00020460122009500F00BFB40208DF80600BE
:1053F0000DF106010DF1070320460122009500F092
:105400004BF89DF80700C02140F03F008DF80610D2
:105410008DF807000DF106010DF10703204601226A
:10542000009500F0EDFA0DF106010DF1070320469D
:1054300001228DF80650009500F02EF89DF8070027
:105440000DF1060100F0F80001308DF807000DF1B4
:10545000070320460122E5618DF80680009500F0E3
:10546000CFFA0A20E561FBF737FF42208DF80600EE
:105470000DF106010DF1070320460122009500F011
:105480000BF89DF807104FF4CA70122908BFC82006
:1054900002B0BDE8F08100002DE9F0410446174656
:1054A000A2880068069E0D46114600229846FCF729
:1054B00005F8A06929463A464FF4FA63FDF70CFD5A
:1054C000A069FDF773FB0128FAD1A0694146324675
:1054D0004FF4FA63FDF700FCA069FDF767FB0128B4
:1054E000FAD12068A1880122BDE8F041FBF7E6BFB0
:1054F0002DE9F04F83B016468B4680461AB15846C8
:105500003146FBF7E5F801270DF10A010DF10B0318
:10551000404601228DF80A700097FFF7BDFF9DF805
:105520000B00812400F0F80001308DF80B000DF124
:105530000A010DF10B0340460122C8F81C708DF8DA
:105540000A40009700F05CFA12208DF80A000DF175
:105550000A010DF10B03404601220097FFF79CFF63
:105560009DF80B00400659D592208DF80A00FF20C7
:105570008DF80B000DF10A010DF10B0340460122DD
:10558000009700F03DFA13208DF80A000DF10A0192
:105590000DF10B03404601220097FFF77DFF10201D
:1055A0000DF10B059DF80B908DF80A000DF10A0125
:1055B000404601222B460097FFF76EFF8D208DF8A5
:1055C0000A000DF10A01404601222B46009700F027
:1055D00017FA4E4538BFB146B9F1000F4FF0000A37
:1055E0001CD0ABF1010701240DF10A050DF10B06EA
:1055F000CB4600BF40462946012233468DF80AA01B
:105600000094FFF749FF9DF80B00BBF1010B07F871
:10561000010FEFD10127812402E000BF4FF0000904
:105620000DF10A010DF10B03404601228DF80A70BD
:105630000097FFF731FF9DF80B00052100F0F800FF
:105640000530C8F81C108DF80B000DF10A010DF1A2
:105650000B03404601228DF80A40009700F0D0F974
:10566000484603B0BDE8F08FF0B583B00D46044660
:105670000C29A8BF0C251E20072DD8BF07258DF8A3
:105680000400012601A90DF1050320460122009620
:10569000FFF702FF9DF805700A20FBF71DFE07F0DB
:1056A0000F0040EA05109E218DF806108DF80700C6
:1056B0000DF106010DF1070320460122009600F0CE
:1056C0009FF90A20FBF708FE94F8240094F825506F
:1056D00006FA00F002F0D5FB48F21022C0F60002F4
:1056E00002EBC50292ED000B53EC102B02F03EFAD8
:1056F00002F098FB002510284FF02600C8BF0125B6
:105700008DF8080002A90DF1090320460122009638
:10571000FFF7C2FE9DF80900A62100F0F70040EA5D
:10572000C5008DF80A108DF80B000DF10A010DF17E
:105730000B0320460122009600F062F90A20FBF7D5
:10574000CBFD03B0F0BD0000B0B582B0012501A9CA
:105750000DF10503012204468DF804500095FFF772
:105760009BFE9DF80500052100F0F8000530E16181
:1057700081218DF806108DF807000DF106010DF15D
:10578000070320460122009500F03AF902B0B0BDAF
:105790002DE9F04F83B01D4616468846D0F81C9080
:1057A0004FF0010A0DF10A010DF10B03012204462D
:1057B0008DF80AA0CDF800A0FFF76EFE9DF80B0053
:1057C0004FF0810B00F0F80001308DF80B000DF167
:1057D0000A010DF10B0320460122C4F81CA08DF82C
:1057E0000AB0CDF800A000F00BF90E200DF10B0768
:1057F0008DF80A000DF10A01204601223B46CDF842
:1058000000A0FFF749FE8D208DF80A000DF10A0176
:10581000204601223B46CDF800A000F0F1F8A2207E
:105820008DF80A000DF10A010DF10B03204601224B
:105830008DF80B60CDF800A000F0E2F820460021C2
:1058400042463346FFF732FC0DF10A010DF10B031E
:10585000204601228DF80AA0CDF800A0FFF71CFE1B
:105860009DF80B00032100F0F8000330E1618DF892
:105870000B000DF10A010DF10B03204601228DF8FA
:105880000AB0CDF800A000F0BBF84FF012080DF1FF
:105890000A010DF10B03204601228DF80A80CDF894
:1058A00000A0FFF7F9FD9DF80B00000718D40DF1DB
:1058B0000A060DF10B0700BF013D28043CD0012072
:1058C000FBF70AFD2046314601223B468DF80A804F
:1058D000CDF800A0FFF7E0FD9DF80B000007EBD529
:1058E00092208DF80A00FF208DF80B000DF10A01BF
:1058F0000DF10B0320460122CDF800A000F080F846
:105900000DF10A010DF10B03204601228DF80AA0CA
:10591000CDF800A0FFF7C0FD9DF80B00B9F1060F10
:1059200037D8DFE809F005293625362D310000BFCC
:1059300000F0F8002BE000BF01250DF10A010DF188
:105940000B03204601228DF80A500095FFF7A4FDB5
:105950009DF80B00B9F1060F3FD8DFE809F00531DB
:105960003E2D3E35390000BF00F0F80033E000BFA7
:1059700000F0F80003300AE000F0F800013006E023
:1059800000F0F800053002E000F0F8000630C4F83E
:105990001C9081218DF80A108DF80B0001250DF166
:1059A0000A010DF10B0320460122009500F028F8B2
:1059B000284603B0BDE8F08F00F0F80003300AE09D
:1059C00000F0F800013006E000F0F800053002E0D9
:1059D00000F0F8000630C4F81C9081218DF80A1000
:1059E0008DF80B000DF10A010DF10B032046012289
:1059F000009500F005F80025284603B0BDE8F08FBB
:105A00002DE9F04104461746A2880068069E0D461F
:105A1000114600229846FBF751FDA06929463A46F7
:105A20004FF4FA63FDF758FAA069FDF7BFF80128B3
:105A3000FAD1A069414632464FF4FA63FDF74CFAB9
:105A4000A069FDF7B3F80128FAD12068A1880122E6
:105A5000BDE8F041FBF732BDFEE70000FEE70000C5
:105A6000704700002DE9F04381B0089C9846154628
:105A70000E468146FBF728FD201A00EB0804FBF7D1
:105A800023FD40F20801C2F200010968C1F3CB31E5
:105A900061430091D9F800108A683240921BB2FA33
:105AA00082F25209954203D1002001B0BDE8F08393
:105AB000074618F101000ED130E000BF0098013810
:105AC0000090D9F8000080683040801BB0FA80F068
:105AD00040098542E8D0FBF7F7FCC01BA04227D263
