:020000040800F2
:10000000880C0020910200083929000845210008C9
:1000100035290008C9040008D9360008000000008E
:10002000000000000000000000000000652A000839
:10003000CD040008000000003D290008692A0008DE
:10004000AB020008AB020008AB020008AB020008DC
:10005000AB020008AB020008AB020008AB020008CC
:10006000AB020008AB020008AB020008AB020008BC
:10007000AB020008AB020008AB020008AB020008AC
:10008000AB020008AB020008AB020008AB0200089C
:10009000AB020008AB020008AB020008AB0200088C
:1000A000AB020008AB020008AB020008AB0200087C
:1000B000AB020008AB020008AB020008AB0200086C
:1000C000AB020008AB020008AB020008AB0200085C
:1000D000AB020008AB020008AB020008AB0200084C
:1000E000AB020008AB020008AB020008AB0200083C
:1000F000AB020008AB020008AB020008AB0200082C
:10010000AB020008AB020008AB020008AB0200081B
:10011000AB020008AB020008AB020008AB0200080B
:10012000AB020008AB020008AB020008AB020008FB
:10013000AB0200080000000000000000AB02000855
:10014000AB020008AB020008AB020008AB020008DB
:10015000AB020008AB020008AB020008AB020008CB
:10016000AB020008AB020008AB020008AB020008BB
:10017000AB020008AB020008AB0200080000000060
:1001800000000000AB0200080000000000000000BA
:10019000AB0200080000000000000000AB020008F5
:1001A000000000000000000000000000AB0200089A
:1001B000AB020008AB020008AB020008AB0200086B
:1001C000AB02000800F002F800F052F814A696E81E
:1001D000000CB244B344DA4501D100F049F8BAE862
:1001E0000F000FA696E83000A5EB040504EB060708
:1001F000AAEB0704A7F101074FEA15154FEA3414DB
:10020000A4F10104AC4201D300F032F813F0010F65
:1002100018BFFB1A43F0010300F001F8DBE71847B1
:10022000F83C0000183D0000103A24BF78C878C19F
:10023000FAD8520724BF30C830C144BF04680C60EC
:1002400070470000704700000023002400250026AE
:10025000103A28BF78C1FBD8520728BF30C148BF29
:100260000B6070471FB503F015FE1FBD10B510BD24
:1002700000F0EFF81146FFF7F5FF03F02FFA00F05A
:100280000DF903B4FFF7F2FF03BC00F015F900000D
:100290000948804709480047FEE7FEE7FEE7FEE71A
:1002A000FEE7FEE7FEE7FEE7FEE7FEE70448054956
:1002B000054A064B70470000192B0008C5010008CD
:1002C00088060020880C002088080020880800206C
:1002D00053EA020C00F069802DE9F04B4FF0000664
:1002E000002B1FBFB3FA83F503FA05F424FA05F6D1
:1002F0005E4012BF1643B2FA82F502FA05F4C5F168
:1003000020051EBF22FA05FC44EA0C04203556EAFB
:10031000044C4FEA144418BF641C4FF000084FF01F
:100320000009904271EB030C39D3002919BFB1FACF
:1003300081F701FA07F6B0FA80F700FA07F6C7F17D
:1003400020071EBF20FA07FC46EA0C062037B6FB42
:10035000F4FCA7EB0507103F07F01F0BCBF12006BD
:100360002CFA06F60CFA0BFB44BFB3460026202FEE
:10037000A4BF5E464FF0000B5BEA060C08BF4FF0CF
:10038000010B19EB0B0948EB0608ABFB027C06FBE3
:1003900002CC0BFB03CCC01B71EB0C01C1E70B467D
:1003A000024641464846BDE8F08B13B5084318BFE6
:1003B0004FF0FF300146AFF30080BDE81C407047AE
:1003C00010B5431C02E010F8011B71B18107FAD18E
:1003D0004FF0013202C88C1A8C4314EAC211F9D0D2
:1003E000C01A0A0603D0C01E10BDC01A10BD0A04F0
:1003F00001D0801E10BD0902FCD0401E10BD4FF080
:10040000000200B5134694469646203922BFA0E864
:100410000C50A0E80C50B1F12001BFF4F7AF090770
:1004200028BFA0E80C5048BF0CC05DF804EB890061
:1004300028BF40F8042B08BF704748BF20F8022BA4
:1004400011F0804F18BF00F8012B704770477047BC
:100450007047754600F02CF8AE46050069465346D5
:1004600020F00700854618B020B5FFF71FFFBDE854
:1004700020404FF000064FF000074FF000084FF00B
:10048000000BAC46ACE8C009ACE8C009ACE8C00958
:10049000ACE8C00921F007018D46704710B504464D
:1004A000AFF300802046BDE81040FFF7EABE000031
:1004B000004870471000002001491820ABBEFEE73D
:1004C0002600020070470000FEE7000070470000B1
:1004D00072B600BFFEE70000B0B5044600F0E6F8D3
:1004E000054640F20000C2F200000078611C18BF0F
:1004F000044400BF00F0DAF8401BA042FAD3B0BDBC
:100500002DE9F04F83B000F1200200F13E4741F6A3
:100510000005009207F1FF77C4F2020507224FEAB7
:10052000B726A84208BF062200254FF000084FF06A
:100530000009062E38BF4FEAB72201920AE000BF39
:1005400009F1010908F10208B9F1100F05F10405DC
:1005500000F0A2800F68012202FA09FE17EA0E0AD3
:10056000EED0D1F804C003220CF003077E1E02FA7D
:1005700008F4012E6FEA040B12D88468CE6804EAEE
:100580000B0406FA08F634438460446824EA0E0635
:10059000CCF3001404FA09F42643466004E000BFDB
:1005A000032F01D103271EE0C6688C6806EA0B06FC
:1005B00004FA08F42643022FC66014D16FF0030238
:1005C000009E02EA590756F807C005F01C040F22E6
:1005D0000B69A2402CEA0202A3401A43F251D1F85F
:1005E00004C00CF00307026807FA08F302EA0B02E2
:1005F0001A431CF4403F0260A2D0002243F6440399
:100600000292C4F202031A6843F6004442F48042A4
:100610001A601A68C4F2010402F480420292029A3B
:1006200029F003024FF6084C2244CFF6FF7C52F823
:100630000C3005F00C070F26BE40B343019E06FAAE
:1006400007F73B4342F80C30A2684B6842EA0A07BE
:1006500043F60C4CDE0258BF22EA0A07A760C4F238
:10066000010CDCF800209E0242EA0A0758BF22EA89
:100670000A07CCF8007062689E0342EA0A0758BF76
:1006800022EA0A0767602268DB0342EA0A0758BFCA
:1006900022EA0A07276053E703B0BDE8F08F0000A5
:1006A000002A08BF090481617047000040F284609D
:1006B000C2F200000068704740F2000040F284611E
:1006C000C2F20000C2F2000100780A68104408601B
:1006D0007047000080B543F60040C4F20200016894
:1006E00041F400710160016841F4806101600168BA
:1006F00041F480710160032000F074F8002000F0E4
:1007000005F800F027F8002080BD000070B540F229
:100710000006C2F2000640F208013278C2F200017F
:100720004FF47A730968B3FBF2F20446B1FBF2F1BD
:10073000084601F0BBFB0F2C4FF0010508D838B973
:100740004FF0FF3021460022002500F01FF87460B2
:10075000284670BD82B0002043F640010190C4F2EB
:1007600002014A6842F480424A604A6802F48042C8
:100770000192019A0090086840F080500860086873
:1007800000F080500090009802B0704710B54EF60F
:100790000C5CCEF2000CDCF80030C3F3022E8EF0BD
:1007A0000704042C28BF0424BEF103034FF0FF3ECE
:1007B0000EFA04F438BF0023A14399400EFA03F364
:1007C0009A43114300F00F0200F160430901043A1B
:1007D00003F564436244002848BF02F10C0319701A
:1007E00010BD00004EF60C51CEF200010A684FF623
:1007F000FF031A4060F30A2242F0806040F0FD706F
:100800000860704701220168C0F8D824002280F8EF
:10081000CC24886940F000608861486D40F08050C9
:1008200040F0030200204A6570470000002804BF22
:1008300001207047F0B581B00446056890F8950432
:1008400028B9002084F89404204600F02DF90320F4
:10085000B5F1A04F84F8950404BF0020A071206872
:1008600002F07EFD94E80F00267C009602F0D2F99B
:10087000002840F000812068002102F079FD002866
:1008800040F0F98094F804E0BEF1000F00F0EC8035
:100890000EF0030CBEF1040F4FF0000240D30EF037
:1008A000FC03A4F190000321012500BFCE1E80F8B7
:1008B000A460A0F8BE608E1E80F8C860A0F8E26058
:1008C0004E1E80F8EC60A0F8066180F81011A0F8C8
:1008D0002A110E1D013180F8A55080F8A820C0E92A
:1008E0002B22C0F8B42080F8C95080F8CC20C0E991
:1008F0003422C0F8D82080F8ED5080F8F020C0E90C
:100900003D22C0F8FC2080F8115180F81421C0E984
:100910004622C0F82021903099423146C6D1F21EBD
:10092000BCF1000F31D004F1140002EBC20100EB66
:100930008105012300F821200021BCF1010F6B701B
:100940006A832971C5E9021129611ED0551C05EB86
:10095000C50600EB8607BCF1020F7B7000F826503D
:100960007D833971C7E9021139610ED0911C01EB09
:10097000C10200EB8203012500F8221000205D7007
:1009800059831871C3E902001861BEF1000F6BD0E2
:10099000BEF1040F4FF0000236D30EF0FC0003212D
:1009A000234600BFCF1E83F854728F1E83F87872DF
:1009B0004F1E83F8C0120D1D013183F8552283F8B4
:1009C0005822C3E99722C3F8642283F8792283F876
:1009D0007C22C3E9A022C3F8882283F89D2283F8F1
:1009E0009C7283F8A022C3E9A922C3F8AC2283F841
:1009F000C12283F8C422C3E9B222C3F8D0229033C3
:100A000081422946CED1EA1EBCF1000F2CD004F55C
:100A1000157002EBC20300EB83070021BCF1010F4C
:100A2000797000F823203971C7E9021139611BD0B0
:100A3000531C03EBC30700EB8706BCF1020F717078
:100A400000F827303171C6E9021131610CD0911CD8
:100A500001EBC10200EB820300275F7000F8221057
:100A60001F71C3E902771F6194E80F00277C00978C
:100A700002F01CFA30B1022084F89504012001B084
:100A8000F0BD00BF00206074012084F89504207B35
:100A9000012802D12046FFF7B5FE206802F0F6F9E2
:100AA000002001B0F0BD0000F0B59DB0044600206C
:100AB0001C90CDE91A00CDE9180001A80430582196
:100AC000FFF79DFC2068B0F1A04F01D01DB0F0BD34
:100AD0004FF48070019001A800F03EF8002818BF84
:100AE000FFF7F6FC002743F630060097C4F2020633
:100AF0003068002440F0010030603068C4F2020425
:100B000000F00100009000984FF4E8501890022087
:100B1000CDE9190703201B900A2018AD1C90204630
:100B20002946FFF7EDFC4FF40070CDE91807204689
:100B300029461A97FFF7E4FC706840F08000706067
:100B40000097706940F480407061706900F48040E3
:100B5000009000981DB0F0BD2DE9F04381B004462F
:100B6000006843F68C06C107C4F2020604D14FF0B8
:100B7000000981070CD415E03168A26B21F0C06137
:100B800011433160B2FA82F14FEA5119810709D558
:100B90003168E26B21F0C05111433160002A08BF77
:100BA0004FF00109410705D44FF00008010712D4A6
:100BB00020E000BF3168226B21F440111143316005
:100BC000B2FA82F14FEA5118B2F5801F08BF4FF018
:100BD000010901070ED53168626B21F44001114310
:100BE000B2F5800F316008BF4FF00109002A08BF3D
:100BF0004FF0010881065AD50020009056F84C0CA1
:100C000047F2000740F0805046F84C0C56F84C0C68
:100C1000C4F2000700F0805000900098386840F45B
:100C200080703860FFF742FD054600BF3868C00598
:100C300006D4FFF73BFD401B0228F7D990E100BF27
:100C400056F81C0C10F4407017D0216C01F4407160
:100C5000884212D056F81C0C40F64061C4F247217D
:100C6000012220F440700A6000220A6046F81C0C41
:100C700056F81C0CC00740F07B812068216C56F8A8
:100C8000842C4FF6FF4701F4407322F4F812C0F6AB
:100C9000FF770F40B3F5407F08BF3A4346F8842CF6
:100CA00056F81C2C6FF31F31114346F81C1CC1066B
:100CB00010D4010619D441061FD4C10525D48105DD
:100CC00030D4410536D4B9F1010F18BFB0F5006F2B
:100CD0003CD062E094F8580040F64061C4F24721ED
:100CE000C1F8A00320680106E5D5B168E26C21F4E3
:100CF00040011143B1604106DFD5B168A26C21F01B
:100D000080611143B160C105D9D5B168626D21F030
:100D100000611143B160B2F1006F08BF4FF00108EC
:100D20008105CED5B168626C21F080511143B1606C
:100D30004105C8D5B268216D22F000520A43B0F5D2
:100D4000006FB26018BFB1F1005F23D140F26809B3
:100D5000C4F247290020C9F80000FFF7A7FC0546A8
:100D600056F88C0C000105D5FFF7A0FC401B0228AB
:100D7000F6D9F5E02068C10702D0A16B00296FD039
:100D8000810702D5E16B00296AD0410700F17D801F
:100D90007FE000BFB9F1010FD8D0B8F1000F4FF0DC
:100DA000000000F0DE806827C4F24727B860FFF734
:100DB0007DFC054656F88C0C800005D5FFF776FCC7
:100DC000401B0228F6D9CBE02068410701D5216BF2
:100DD00019B101071AD5616BC1B956F8041CD4E9E1
:100DE000062301F44031656A114341EA831141EA67
:100DF0000561D4F82CC046F8041C31686FF0FF027E
:100E000021F4F85102EB0C2211433160C00516D5D4
:100E1000606DB0F1006F12D156F8040C226AD4E96B
:100E2000061300F07060D2034FF6FF75AA43084323
:100E3000A2F5803240EA8310104346F8040C0120EA
:100E4000B860FFF733FC044656F88C0C800000F1C4
:100E50008B80FFF72BFC001B0328F5D380E000BF3D
:100E600056F8081C56F8082CD4E9013501F4403135
:100E700002F0706219436769114341EA851141EA42
:100E8000077146F8081C410703D5216BB1F5801F97
:100E900005D001071FD5616BB1F5800F1BD156F846
:100EA000081C56F8082CD4E9013701F4403102F04F
:100EB000E04219432569114341EA871141EA05617E
:100EC000D4F828C046F8081C3168ACF1010221F0C2
:100ED0001F011143316041051FD5216DB1F1005F44
:100EE0001BD1271D56F808CC56F8082CA8CFFF03B5
:100EF0004FF6FF7127EA01014FF0C06702F0E042B0
:100F000007EA4C2707F100771A433A43A1F58031ED
:100F100042EA8512114346F8081C000510D5271D2A
:100F20008FCF40EA8110D1034FF6FF729143A1F5B4
:100F3000803140EA0360084340EA077046F8080C35
:100F40000120C9F80000FFF7B1FB054656F88C0CEC
:100F500000013FF522AFFFF7A9FB401B0228F5D99E
:100F6000032001B0BDE8F083002001B0BDE8F083AC
:100F7000FFF79CFB054641F2883700BF56F81C0C72
:100F800080073FF57AAEFFF791FB401BB8424FF068
:100F90000300F3D9E5E70000002804BF01207047F3
:100FA0002DE9F04143F60808C4F202080446D8F8D7
:100FB000F8030D4600F00F00814207D988F8F85376
:100FC000D8F8F80300F00F00A84277D12068810715
:100FD00017D5410705D5D8F8001041F4E051C8F8FD
:100FE0000010010705D5D8F8001041F46041C8F899
:100FF0000010D8F80010A26821F0F0011143C8F8E1
:101000000010C00740D1D8F8F80300F00F00854267
:1010100007D288F8F853D8F8F80300F00F00A84278
:101020004CD12068410707D5D8F80010E26821F4B8
:10103000E0511143C8F80010000708D5D8F80000A7
:10104000216920F4604040EAC100C8F8000000F0C7
:101050007DF8D8F8001043F60072C1F30311C0F612
:101060000002515C40F2080220FA01F140F2040053
:10107000C2F200000068C2F200021160FFF746FBF6
:101080000020BDE8F08100BF6068811E022907D200
:1010900058F8081C89015CBF0120BDE8F08111E00F
:1010A000012807D158F8081C89035CBF0120BDE85E
:1010B000F08107E058F8081C890703D40120BDE837
:1010C000F08100BFD8F8001021F003010843C8F8F0
:1010D0000000FFF7EBFA064641F28837D8F8000027
:1010E000616800F00C00B0EB810F8CD0FFF7DEFAE6
:1010F000801BB842F2D90320BDE8F08140F208001D
:1011000043F60801C2F20000C4F202010068096857
:1011100043F61072C1F38221C0F60002515CC84050
:101120007047000040F2080043F60801C2F20000D8
:10113000C4F202010068096843F61072C1F342313B
:10114000C0F60002515CC8407047000010B543F67D
:101150000404C4F202046068C0F3810142F200405A
:10116000C0F2F400DFE801F04202081841F200206A
:10117000C0F27A0010BD00BF216801F03F02216873
:1011800023684902C3F3881116D4A1FB0001002390
:10119000FFF79EF817E000BF216801F03F022168C9
:1011A00023684902C3F3881114D4A1FB0001002372
:1011B000FFF78EF815E000BF41F20020C0F27A0080
:1011C0004843B0FBF2F021680222C1F3014102EB77
:1011D000410109E041F20020C0F27A004843B0FB2F
:1011E000F2F02168C1F30271B0FBF1F010BD000014
:1011F000002804BF012070472DE9F04182B0044669
:10120000007843F60006C007C4F202060CD0B068AE
:1012100000F00C00042840F089803068800303D57A
:101220006068002800F050812078800723D5B068DE
:1012300010F00C0F11D0B06800F00C00082802D19B
:101240007068400209D5B06800F00C000C2840F02E
:101250009F807068400200F19B803068800703D552
:10126000E068012840F030813068216920F0F80002
:1012700040EAC10030602078000713D4207840078E
:101280002AD4A569002D00F01A81B06800F00C0086
:10129000082840F0AB80012D40F0E880012002B02A
:1012A000BDE8F0816069002840F20000C4F24720E8
:1012B00000F088800121C0F8801EFFF7F7F905468D
:1012C000706F8007DAD4FFF7F1F9401B0228F7D9D5
:1012D000032002B0BDE8F081306C5FEAC0080AD498
:1012E00000200190306C40F080503064306C00F091
:1012F00080500190019847F20007C4F20007386857
:10130000C00537D4386840F480703860FFF7CEF9F4
:10131000054600BF3868C0052CD4FFF7C7F9401B4D
:101320000228F7D9032002B0BDE8F081B06800F0D0
:101330000C00082803D1706840023FF56EAFB0681A
:1013400000F00C000C2803D1706840023FF565AF37
:1013500061683068B1F5803F07D0B1F5A02F40F04B
:10136000CB8040F480203060306840F480303060C2
:10137000CBE000BFA168306F012905D0052957D106
:1013800040F004003067306F40F00100306759E0F2
:10139000E068002800F09C800020C4F24720012172
:1013A0000160FFF783F90546306880073FF55CAFC1
:1013B000FFF77CF9401B02284FF00300F4D902B07C
:1013C000BDE8F0810021C0F8801EFFF76FF90546E7
:1013D000706F80077FF552AFFFF768F9401B022856
:1013E000F6D9032002B0BDE8F08100BF0027C4F2A7
:1013F000472700203866FFF759F9022D05460BD123
:101400003068800140F19280FFF750F9401B0228BC
:101410004FF00300F4D9D2E7306880014FD5FFF7D1
:1014200045F9401B02284FF00300F5D9C7E700BF7C
:1014300020F001003067306F002920F00400306791
:1014400000F09880FFF732F9054641F2883700BF77
:10145000306F800700F1A080FFF728F9401BB842E9
:10146000F6D9032002B0BDE8F08100BF7068E169E1
:1014700000F480028A4227D1216A00F03F028A42AA
:1014800022D147F6C071626A0140B1EB821F1BD1C5
:10149000A16A4FF6FF73C903994300F44032A1F5E6
:1014A00080318A4210D1E16A00F07062B2EB016FC4
:1014B0000AD1216B00F0E040B0EB017F04D10020A5
:1014C00002B0BDE8F08100BF012002B0BDE8F081AC
:1014D0000020C4F2472000210160FFF7E7F805462D
:1014E000306880077FF5C7AEFFF7E0F8401B0228A1
:1014F0004FF00300F4D962E720F4803030603068A8
:10150000002920F48020306050D0FFF7CFF8054646
:10151000306880033FF588AEFFF7C8F8401B6428A9
:10152000F6D9032002B0BDE8F08100BF04F11C052C
:101530002FCD246B084340EA8210D9034FF6FF7287
:101540009143A1F5803140EA0560084340EA047008
:10155000706001203866FFF7A9F804463068800102
:10156000ADD4FFF7A3F8001B02284FF00300F5D914
:1015700025E700BFFFF79AF8054641F2883700BF1C
:10158000306F800708D5FFF791F8401BB8424FF045
:101590000300F5D913E700BFB8F1000F3FF571AEB6
:1015A000306C20F0805030646BE600BFFFF77EF8AF
:1015B000054600BF306880037FF536AEFFF776F84A
:1015C000401B64284FF00300F4D9F8E690F851006E
:1015D0007047000070B528B1416A29B1002101614E
:1015E000142106E0012070BD4168B1F5827F02D070
:1015F0001C21002242500026866290F8511029B921
:1016000080F85060054600F03DF82846022180F839
:10161000511090E82E0002F482720C6803F4044327
:1016200024F040040C601A4405F4006305691A4470
:1016300005F0020345691A4405F001038569C46990
:101640001A4405F400731A4404F03803046A1A4477
:1016500004F08003846A1A4304F400531A430A60B6
:10166000436A042202EA154203F010031A444A6056
:10167000CA6922F40062CA610121466580F85110EE
:10168000304670BD80B586B043F200010068C4F2F8
:101690000101002288420592CDE9032202920192C3
:1016A00002D006B080BD00BF43F630000092C4F205
:1016B0000200436943F480534361436903F4805358
:1016C0000093009B0092036843F0010303600068ED
:1016D00000F0010000900098E02001900220CDE988
:1016E0000202032004900520059001F5504001A955
:1016F000FEF706FF06B080BD2DE9F04182B004463A
:1017000090F8510001281AD100294FF0010018BFAC
:10171000002A03D102B0BDE8F08100BF60681D4619
:101720001746B0F5827F03D1A068002800F0BC8086
:101730000E46FEF7BBFF94F85010012904D1022099
:1017400002B0BDE8F08100BF8046012084F850005F
:101750000420002184F851006165A663A787E7870C
:101760002163A186E186A2682068B2F5004F21645A
:10177000616437D0016849063FD5E168E08F0029F0
:1017800043D000287AD0681C0BD11AE0C068A16B46
:1017900021F8020BA163E08F0138E087E08F002879
:1017A0006CD020688168C907F0D1FEF77FFFA0EBFD
:1017B0000800A842F2D342E0FEF778FFE08F00284D
:1017C0005CD020688168C907F6D0C068A16B21F899
:1017D000020BA163E08F0138E087E08F0028F0D191
:1017E0004CE000BF016821F040010160016821F474
:1017F0008041016001684906BFD4016841F04001A1
:101800000160E168E08F0029BBD1B8B3681C0CD13E
:1018100024E000BF007BA16B0870A06B0130A063C7
:10182000E08F0138E087E08F40B320688168C90706
:10183000F0D1FEF73BFFA0EB0800A842F3D3012054
:1018400084F85100002084F85000032002B0BDE865
:10185000F08100BFFEF72AFFE08F78B12068816831
:10186000C907F7D0007BA16B0870A06B0130A063A3
:10187000E08F0138E087E08F0028EFD16068B0F595
:10188000827F0ED1A068B0F5004F02D0B0F5806F16
:1018900016D12168B0F5806F0A6822F040020A6014
:1018A0000ED1204601210DE0042084F8510020468D
:1018B0000A463B46009500F059F902B0BDE8F081B8
:1018C0002046802100222B46CDF8008001F038F818
:1018D00028B1606D40F02000606520206065012027
:1018E00084F85100002084F85000606D002818BF73
:1018F000012002B0BDE8F0812DE9F04184B01D4621
:1019000016460F460446FEF7D1FE94F85110012901
:101910000ED18046002F4FF0010018BF002E03D1DA
:1019200004B0BDE8F08100BF94F85000012803D155
:10193000022004B0BDE8F081012084F850000320AB
:10194000002184F8510061652763A686E686A163BD
:10195000A187E187A0682164B0F5004F2068616429
:1019600007D1016821F040010160016841F4804124
:1019700001600168490603D4016841F0400101603B
:101980006168731EE268B1FA81F1B3FA83F3490921
:101990005B09B2F5006F41EA030139D131B137F883
:1019A000021BC1602763E08E0138E086E08E0028CC
:1019B00070D0681C0BD11AE0216B31F8022BC26089
:1019C0002163E08E0138E086E08E002862D0206836
:1019D00081688907F0D4FEF769FEA0EB0800A842F1
:1019E000F2D338E0FEF762FEE08E002852D0206885
:1019F00081688907F6D5216B31F8022BC26021631B
:101A0000E08E0138E086E08E0028F0D142E000BF91
:101A100039B139780173206B01302063E08E0138D1
:101A2000E086E08EB0B3681C0BD123E0216B09780F
:101A30000173206B01302063E08E0138E086E08E78
:101A400040B3206881688907F0D4FEF72FFEA0EB31
:101A50000800A842F3D3012084F85100002084F844
:101A60005000032004B0BDE8F08100BFFEF71EFE69
:101A7000E08E78B1206881688907F7D5216B0978F5
:101A80000173206B01302063E08E0138E086E08E28
:101A90000028EFD12046022101222B46CDF80080FC
:101AA00000F04EFFE0B1606D40F020006065202046
:101AB0006065A06838B9002002902068C168029172
:101AC000806802900298012084F85100002084F878
:101AD0005000606D002818BF012004B0BDE8F081FF
:101AE00040F20800C2F20000006849F68171C1F2BC
:101AF0005E61A0FB0101480D4FF47A7148430390E9
:101B00006068B0F5827F0BD12046802100222B46F1
:101B1000CDF8008000F014FF0028C4D1C9E700BF51
:101B200003980028C5D00398013803902068816885
:101B30000906BED503990029BBD003990139039149
:101B400081680906B5D503990029B2D003990139F6
:101B5000039181680906ACD503990029A9D003999E
:101B60000139039180680006DAD4A2E72DE9F04339
:101B700083B01E4615460F460446FEF797FD94F8BF
:101B800051108146012909D1002F4FF0010018BFE3
:101B9000002D0FD103B0BDE8F08300BF6068B0F541
:101BA000827F0DD104294FF00200F3D1A1680029F2
:101BB000EAD0EFE7002EEDD094F85000012803D1D1
:101BC000022003B0BDE8F083012084F8500094F8AF
:101BD0005100002104281CBF052084F851006165D4
:101BE000A563E687A6872763E6862068A686216424
:101BF00061640168490603D4016841F04001016055
:101C00006168731EE268B1FA81F1B3FA83F3DDF81B
:101C1000288049095B09B2F5006F41EA030165D1EB
:101C200031B137F8021BC1602763E08E0138E086CE
:101C3000012518F1010032D102E000BFFEF736FDA8
:101C4000E08E18B9E08F002800F0B8802068816825
:101C500089070CD5E18E51B1012D08D1216B0025EA
:101C600031F8022BC2602163E18E0139E18681687F
:101C7000C907E3D0E18F0029E0D0C068A16B01253E
:101C800021F8020BA163E08F0138E087D6E700BF9F
:101C9000FEF70CFDA0EB0900404580F0A580E08E2A
:101CA00018B9E08F002800F08980206881688907D2
:101CB0000CD5E18E51B1012D08D1216B002531F8F1
:101CC000022BC2602163E18E0139E1868168C90778
:101CD000DED0E18F0029DBD0C068A16B012521F89F
:101CE000020BA163E08F0138E087D1E739B1397881
:101CF0000173206B01302063E08E0138E0860125FE
:101D000018F1010032D101E0FEF7D0FCE08E10B9ED
:101D1000E08F002852D02068816889070ED5E18EB7
:101D200061B1012D0AD1216B002509780173216B66
:101D3000206801312163E18E0139E1868168C9079C
:101D4000E2D0E18F0029DFD0C068A16B01250870C7
:101D5000A06B0130A063E08F0138E087D4E700BFBB
:101D6000FEF7A4FCA0EB090040453DD2E08E08B987
:101D7000E08F18B32068816889070ED5E18E61B1C4
:101D8000012D0AD1216B002509780173216B206890
:101D900001312163E18E0139E1868168C907DFD015
:101DA000E18F0029DCD0C068A16B01250870A06B11
:101DB0000130A063E08F0138E087D1E7204602219F
:101DC00001224346CDF8009000F0BAFDB0B1606D3D
:101DD00040F02000606520206065002084F85000FD
:101DE000012003B0BDE8F083012084F851000020F9
:101DF00084F85000032003B0BDE8F08340F20800EF
:101E0000C2F20000006849F68171C1F25E61A0FB78
:101E10000101480D4FF47A71484302906068B0F5B3
:101E2000827F0BD12046802100224346CDF80090CE
:101E300000F086FD0028CAD121E000BF0298F0B171
:101E400002980138029020688168090617D5029926
:101E5000A9B1029901390291816809060FD5029949
:101E600069B10299013902918168090607D5029981
:101E700029B102990139029180680006DED4A06878
:101E800038B9002001902068C168019180680190F4
:101E90000198012084F85100002084F85000606D02
:101EA000002818BF012003B0BDE8F083411E0020C8
:101EB000B0EB116F1CBF012070474EF21002CEF242
:101EC000000251604EF62351CEF20001F0230B7058
:101ED0000721906011607047002804BF01207047FF
:101EE00010B5044690F8410028B9002084F840005D
:101EF000204600F021F8242084F841002068C168C1
:101F000021F40051C160204600F010FE20680169F4
:101F100021F490410161416921F02A014161C168C8
:101F200041F40051C16000202021606484F8411018
:101F300084F84210606310BD80B586B044F600019D
:101F40000068C4F20001002288420592CDE9032214
:101F50000292019202D006B080BD00BF43F630006D
:101F60000092C4F20200036943F480230361036911
:101F700003F480230093009B0092036843F008035E
:101F80000360006800F00800009000984FF4407073
:101F900001900220CDE90202032004900720059061
:101FA00001F5E23001A9FEF7ABFA06B080BD0000F2
:101FB0002DE9F04381B0044690F84100202809D172
:101FC00000294FF0010018BF002A07D101B0BDE879
:101FD000F08300BF022001B0BDE8F0830020606400
:101FE00021201D460E4684F841001746FEF75EFB91
:101FF000A784E784A1688146B1F5805F02D120699A
:1020000000285DD037460020E28C2168002A5DD090
:102010006A1C24D0002D4AD0804600BF0868000604
:1020200008D4FEF743FBA0EB0900A8427AD8216848
:10203000C868F3E717B117F8010B04E038F8020B92
:1020400000276FF35F204860E08C0138E084E08C6B
:102050000028E3D13AE000BF0A68120609D40A68F2
:10206000120606D40A6812065CBF0A685FEA0262BA
:10207000F2D51FB117F8012B05E000BF30F8022B95
:1020800000276FF35F224A60E28C013AE284E28C1F
:10209000002AE4D11AE000BF30F8022B00276FF3CA
:1020A0005F224A60E28C013AE284E28C72B10A68F3
:1020B000120635D5002FEFD017F8012BF1E700BF3E
:1020C00000273046E28C2168002AA1D1086840062A
:1020D0001ED42DB3681C14D1086840062AD40868A1
:1020E000400627D40868400624D4086840064FF00C
:1020F0000000F1D50DE000BF2068C168006840060F
:1021000018D4FEF7D3FAA0EB0900A842F4D909E0ED
:102110000020202184F8411001B0BDE8F08300BF09
:10212000FEF7C4FA0320202184F8411001B0BDE875
:10213000F08300BF0020202184F8411001B0BDE8E9
:10214000F0830000FEE7000070B582B0044616463A
:1021500041F080020068A1888DF8072000221D460A
:10216000FEF79EFAA0690DF1070101224FF4FA6310
:10217000FFF7C2FBA069FFF729FA0128FAD1A0698D
:1021800031462A464FF4FA63FFF7B6FBA069FFF722
:102190001DFA0128FAD12068A1880122FEF780FAF1
:1021A00002B070BD2DE9F04182B001250DF10601AC
:1021B0000DF10703012204468DF80650009500F04A
:1021C000B9F99DF80700002700F0F8004FF08108EA
:1021D0008DF807000DF106010DF1070320460122DD
:1021E000E7618DF80680009500F078FB0A20FEF785
:1021F00073F90DF106010DF10703204601228DF858
:102200000650009500F096F99DF807600A20FEF749
:1022100063F946F080008DF807000DF106010DF11D
:102220000703204601228DF80680009500F056FB3A
:102230006420FEF751F9266A8621B0088DF8061051
:102240008DF807000DF106010DF10703204601226C
:10225000009500F043FB0520FEF73EF9B001872111
:102260008DF806108DF807000DF106010DF107033A
:1022700020460122009500F031FB0520FEF72CF9E5
:1022800088208DF806000DF106010DF107032046A8
:1022900001228DF80770009500F020FB0520FEF765
:1022A0001BF994F82A0089218DF806108DF8070093
:1022B0000DF106010DF1070320460122009500F003
:1022C0000DFB0A20FEF708F994F82B00CD230146F8
:1022D0002D2898BF2D21F02928BFF021A1F12D0232
:1022E000D2B25A431E3141F69A135943090C792848
:1022F00038BF910A01F120008B218DF806108DF86E
:1023000007000DF106010DF107032046012200959B
:1023100000F0E4FA0A20FEF7DFF88C208DF80600C2
:1023200023208DF807000DF106010DF1070320466B
:102330000122009500F0D2FA1E208DF806000DF162
:1023400006010DF1070320460122009500F0F2F886
:102350009DF807009E2140F007008DF806108DF8CB
:1023600007000DF106010DF107032046012200953B
:1023700000F0B4FA0A20FEF7AFF894F824102046D3
:1023800000F004F99F208DF80600FF208DF807006B
:102390000DF106010DF1070320460122009500F022
:1023A0009DFA94F8260094F82510400000EB0110E7
:1023B0009D218DF806108DF807000DF106010DF135
:1023C000070320460122009500F088FA94F82400C3
:1023D00094F8256005FA00F001F0F1FC43F6B062D4
:1023E000C0F6000202EBC60292ED000B53EC102B7C
:1023F00001F05AFB01F0B4FC10284FF02600C8BFD2
:1024000001278DF806000DF106010DF107032046A6
:102410000122009500F08EF89DF80700A62100F03B
:10242000F70040EAC7008DF806108DF807000DF19F
:1024300006010DF1070320460122009500F04EFA37
:102440000A20FEF749F894F82900A0218DF806101B
:102450008DF807000DF106010DF10703204601225A
:10246000009500F03BFA94F82800A1218DF80610A1
:102470008DF807000DF106010DF10703204601223A
:10248000009500F02BFA40208DF806000DF10601B2
:102490000DF1070320460122009500F04BF89DF84E
:1024A0000700C02140F03F008DF806108DF80700AE
:1024B0000DF106010DF1070320460122009500F001
:1024C0000DFA0DF106010DF10703204601228DF8EA
:1024D0000650009500F02EF89DF807000DF106015A
:1024E00000F0F80001308DF807000DF107032046D9
:1024F0000122E5618DF80680009500F0EFF90A20D1
:10250000E561FDF7E9FF42208DF806000DF10601B7
:102510000DF1070320460122009500F00BF89DF80D
:1025200007104FF4CA70122908BFC82002B0BDE8D6
:10253000F08100002DE9F04104461746A2880068AA
:10254000069E0D46114600229846FEF7A9F8A0699E
:1025500029463A464FF4FA63FFF7CEF9A069FFF730
:1025600035F80128FAD1A069414632464FF4FA63A2
:10257000FFF7C2F8A069FFF729F80128FAD120680F
:10258000A1880122BDE8F041FEF78AB8F0B583B01A
:102590000D4604460C29A8BF0C251E20072DD8BFC8
:1025A00007258DF80400012601A90DF10503204639
:1025B00001220096FFF7BEFF9DF805700A20FDF787
:1025C0008BFF07F00F0040EA05109E218DF80610E2
:1025D0008DF807000DF106010DF1070320460122D9
:1025E000009600F07BF90A20FDF776FF94F82400AE
:1025F00094F8255006FA00F001F0E1FB43F6B062D2
:10260000C0F6000202EBC50292ED000B53EC102B5A
:1026100001F04AFA01F0A4FB002510284FF0260033
:10262000C8BF01258DF8080002A90DF10903204655
:1026300001220096FFF77EFF9DF80900A62100F019
:10264000F70040EAC5008DF80A108DF80B000DF177
:102650000A010DF10B0320460122009600F03EF91D
:102660000A20FDF739FF03B0F0BD00002DE9F04F5F
:1026700083B01D4616468846D0F81C904FF0010ADC
:102680000DF10A010DF10B03012204468DF80AA099
:10269000CDF800A0FFF74EFF9DF80B004FF0810B27
:1026A00000F0F80001308DF80B000DF10A010DF17A
:1026B0000B0320460122C4F81CA08DF80AB0CDF807
:1026C00000A000F00BF90E200DF10B078DF80A00A9
:1026D0000DF10A01204601223B46CDF800A0FFF78C
:1026E00029FF8D208DF80A000DF10A0120460122F4
:1026F0003B46CDF800A000F0F1F8A2208DF80A00CA
:102700000DF10A010DF10B03204601228DF80B603B
:10271000CDF800A000F0E2F8204600214246334602
:10272000FFF712FD0DF10A010DF10B032046012206
:102730008DF80AA0CDF800A0FFF7FCFE9DF80B0075
:10274000032100F0F8000330E1618DF80B000DF17A
:102750000A010DF10B03204601228DF80AB0CDF8D5
:1027600000A000F0BBF84FF012080DF10A010DF1C6
:102770000B03204601228DF80A80CDF800A0FFF758
:10278000D9FE9DF80B00000718D40DF10A060DF1D3
:102790000B0700BF013D28043CD00120FDF79CFE43
:1027A0002046314601223B468DF80A80CDF800A034
:1027B000FFF7C0FE9DF80B000007EBD592208DF8C7
:1027C0000A00FF208DF80B000DF10A010DF10B033B
:1027D00020460122CDF800A000F080F80DF10A019A
:1027E0000DF10B03204601228DF80AA0CDF800A0C0
:1027F000FFF7A0FE9DF80B00B9F1060F37D8DFE810
:1028000009F005293625362D310000BF00F0F8000B
:102810002BE000BF01250DF10A010DF10B0320464D
:1028200001228DF80A500095FFF784FE9DF80B00F9
:10283000B9F1060F3FD8DFE809F005313E2D3E35EE
:10284000390000BF00F0F80033E000BF00F0F800EE
:1028500003300AE000F0F800013006E000F0F80074
:10286000053002E000F0F8000630C4F81C90812129
:102870008DF80A108DF80B0001250DF10A010DF1FC
:102880000B0320460122009500F028F8284603B0EB
:10289000BDE8F08F00F0F80003300AE000F0F80027
:1028A000013006E000F0F800053002E000F0F8002A
:1028B0000630C4F81C9081218DF80A108DF80B00A9
:1028C0000DF10A010DF10B0320460122009500F0E5
:1028D00005F80025284603B0BDE8F08F2DE9F0414A
:1028E00004461746A2880068069E0D46114600223F
:1028F0009846FDF7D5FEA06929463A464FF4FA639B
:10290000FEF7FAFFA069FEF761FE0128FAD1A0697F
:10291000414632464FF4FA63FEF7EEFFA069FEF738
:1029200055FE0128FAD12068A1880122BDE8F041B6
:10293000FDF7B6BEFEE70000FEE7000070470000AE
:102940002DE9F04381B0089C984615460E46814615
:10295000FDF7ACFE201A00EB0804FDF7A7FE40F2DD
:102960000801C2F200010968C1F3CB316143009153
:10297000D9F800108A683240921BB2FA82F25209EA
:10298000954203D1002001B0BDE8F083074618F15D
:1029900001000ED130E000BF009801380090D9F856
:1029A000000080683040801BB0FA80F0400985420A
:1029B000E8D0FDF77BFEC01BA04227D2009800287C
:1029C000EAD10024EBE700BF88683040801BB0FAF2
:1029D00080F040098542D5D088683040801BB0FA2D
:1029E00080F040098542CDD088683040801BB0FA25
:1029F00080F040098542C5D088683040801BB0FA1D
:102A000080F040098542DFD1BCE700BFD9E9000171
:102A10004268B1F5827F22F0E00242600BD1D9F822
:102A20000810B1F5004F02D0B1F5806F03D10168F5
:102A300021F040010160D9F82810B1F5005F07D1FD
:102A4000016821F400510160016841F40051016006
:102A5000012089F85100002089F85000032001B0BE
:102A6000BDE8F08370470000FDF726BE70B594B056
:102A700007AC20463421FDF7C2FC002543F6400098
:102A80000695CDE90455CDE902550195C4F2020041
:102A90000168022641F080510160006800F080501A
:102AA0000190019847F200000195C4F2000001680E
:102AB00041F440410160006800F4404001900198F9
:102AC000012007904FF4A02008904FF480000E9052
:102AD00004200F90A820CDE910060720CDE91206AA
:102AE00020460D96FEF784FB10B172B6FEE700BFDC
:102AF0000F20CDE902064FF4A05005904FF480500E
:102B0000069002A805210495FEF746FA10B172B6A8
:102B1000FEE700BF14B070BD4EF68850CEF2000044
:102B2000016841F47001016070470000B0B50446CF
:102B3000006804F108030ECB0569194325F44055DC
:102B40002A4302616269E3691143C268194349F289
:102B50000C639A431143C1604169A26921F4407139
:102B600041F20043114340F48062C4F201039A42EF
:102B7000416103D1FEF7D6FA02E000BFFEF7BEFACC
:102B8000E1694FF69C7563681922C0F6FF75B1F5CF
:102B9000004FA0FB02011FD15A00DB0FFDF798FB8D
:102BA00048F21F51C5F2EB11A0FB01235A0905F1B0
:102BB000805302FB0300322303EBC000A0FB0101A2
:102BC0004FF4F87000EA111000EB0210C1F342114B
:102BD000084421688860B0BD9A009B0FFDF778FB20
:102BE00048F21F51C5F2EB11A0FB01235A0902FB69
:102BF0000500322303EB0010A0FB0101F02000EAE6
:102C0000511000EB0210C1F34311084421688860A1
:102C1000B0BD000082B002F47F42B2F5807F40F088
:102C20009980826B4FF6BF7322F480328263C26850
:102C3000CFF6BD731A40C260029BC268DBB222F4B9
:102C40004012012BC26003D1C26842F48012C260FC
:102C500000220092009A01320092009AB2F1706F45
:102C600000F2F0800269002A21D4009A0132009219
:102C7000009AB2F1706F00F2E5800269002A16D462
:102C8000009A01320092009AB2F1706F00F2DA807D
:102C90000269002A0BD4009A01320092009AB2F124
:102CA000706F00F2CF800269B2F1FF3FD2DC0A22DE
:102CB0000092009AAAB100BF009A013A0092009ACD
:102CC0007AB1009A013A0092009A52B1009A013A00
:102CD0000092009A2AB1009A013A0092009A002AC2
:102CE000EAD1026942F001020261009A01320092C7
:102CF000009AB2F1706F00F2A5800269D20720D06D
:102D0000009A01320092009AB2F1706F00F29A803C
:102D10000269D20715D0009A01320092009AB2F1EE
:102D2000706F00F28F800269D2070AD0009A0132D8
:102D30000092009AB2F1706F00F284800269D207AB
:102D4000D3D14FF0000C01F47F01B1F5803F40F08A
:102D500099808FE0C26842F04002C2600022019276
:102D6000019A01320192019AB2F1706F72D8026930
:102D7000002A1ED4019A01320192019AB2F1706FB9
:102D800068D80269002A14D4019A01320192019A8A
:102D9000B2F1706F5ED80269002A0AD4019A01323A
:102DA0000192019AB2F1706F54D80269B2F1FF3FFB
:102DB000D6DC0A220192019AAAB100BF019A013A17
:102DC0000192019A7AB1019A013A0192019A52B1A3
:102DD000019A013A0192019A2AB1019A013A0192AB
:102DE000019A002AEAD1026942F001020261019AC5
:102DF00001320192019AB2F1706F2BD80269D207A9
:102E00001DD0019A01320192019AB2F1706F21D85E
:102E10000269D20713D0019A01320192019AB2F1EC
:102E2000706F17D80269D20709D0019A0132019256
:102E3000019AB2F1706F0DD80269D207D7D14FF065
:102E4000000C09E04FF0030C01F47F01B1F5803F65
:102E500018D10FE04FF0030C826B13F47F4F14BFB7
:102E600022F4803242F48032826301F47F01B1F5B2
:102E7000803F07D1816841F006018160816841F09F
:102E800020018160604602B0704700000146D0F822
:102E9000000E20F00300C1F8000ED1F8040840F045
:102EA00002020020C1F80428704700002DE9F04F0D
:102EB00086B0C3F3074516468E460021C0F80411BC
:102EC000C0F80811C0F80C11C0F81011C0F81411A6
:102ED000C0F81811C0F81C11C0F82011C0F8241156
:102EE000C0F82811C0F82C11C0F83011C0F8341106
:102EF000C0F83811C0F83C1125B100F138014FF489
:102F000000120FE0D0F80418802241F00201C0F84E
:102F10000418816B21F400118163016841F04001C4
:102F2000016001460B681A430A6006F47F420021E3
:102F3000B2F5807FC0F8001E08D1D0F80028B1EBB0
:102F40001E6F09D1C0F800280AE000BFD0F80018B1
:102F500041F0030102E000BF42F00101C0F8001897
:102F6000002104910499013104910499B1F1706F29
:102F700052D8016900291ED40499013104910499A1
:102F8000B1F1706F48D80169002914D40499013156
:102F900004910499B1F1706F3ED8016900290AD4F7
:102FA0000499013104910499B1F1706F34D8016929
:102FB000B1F1FF3FD6DC002104914FF4846101613F
:102FC0000499013104910499B1F1706F24D8016919
:102FD00089061DD50499013104910499B1F1706FEE
:102FE0001AD80169890613D504990131049104990D
:102FF000B1F1706F10D80169890609D504990131C2
:1030000004910499B1F1706F06D801698906D7D48B
:103010004FF0000A02E000BF4FF0010A00210591C5
:103020000599013105910599B1F1706F4ED801698B
:1030300000291ED40599013105910599B1F1706FF0
:1030400044D80169002914D40599013105910599E5
:10305000B1F1706F3AD8016900290AD4059901319C
:1030600005910599B1F1706F30D80169B1F1FF3F59
:10307000D6DC0021059110210161059901310591EE
:103080000599B1F1706F21D80169C90620D505995C
:10309000013105910599B1F1706F17D80169C90621
:1030A00016D50599013105910599B1F1706F0DD8CB
:1030B0000169C9060CD50599013105910599B1F150
:1030C000706F03D80169C906D7D401E04FF0010A37
:1030D0005FFA8EF94FF00008B9F1000FC0F81088C0
:1030E000C0F81488C0F81C8800F00D81CDF80CA041
:1030F000CDE9015ED0F800194FF0006404EA111127
:103100004FF67F35B9F1010BC0F80019C0F81089EE
:10311000C0F8085974D0A9F1020103290BF0030A81
:1031200004D20121BAF1000F40D169E000962BF0E2
:10313000030700F5186600234FF0904C4FF67F32DE
:103140004FF0000E56F8601C0EF1040E0CEAE1710F
:1031500046F8601C46F8503C46F8582C56F8401C7F
:1031600077450CEAE17146F8401C46F8303C46F8D9
:10317000382C56F8201C0CEAE17146F8201C46F861
:10318000103C46F8182C31680CEAE171316033616B
:10319000B26006F18006D5D1009E0EF101014FF616
:1031A0007F354FF00064BAF1000F29D000F51063AD
:1031B0004F01B446DE594FF0904202EAE67603EB47
:1031C0004111DE51664600274FF67F33BAF1010FF9
:1031D0000F618B6014D00E6ABAF1020F02EAE67238
:1031E00066460A620F638B620AD00A6C4FF0904306
:1031F00003EAE2720A6400220A654FF67F328A64AB
:10320000D0F8001BBBF1000F04EA1111C0F8001B3D
:103210004FF00001C0F8101BC0F8085BDDE9015E4B
:10322000DDF80CA06FD0A9F1020103290BF0030C0B
:1032300004D20121BCF1000F3BD164E0A946009605
:103240002BF0030500F5386600234FF090474FF64A
:103250007F32002156F8604C043107EAE47446F8E6
:10326000604C46F8503C46F8582C56F8404C8D427D
:1032700007EAE47446F8404C46F8303C46F8382CEF
:1032800056F8204C07EAE47446F8204C46F8103C07
:1032900046F8182C346807EAE47434603361B2608D
:1032A00006F18006D6D1009E01314D46BCF1000FDB
:1032B00029D000F530634F013446DE594FF090427B
:1032C00002EAE67603EB4111DE51264600274FF66F
:1032D0007F33BCF1010F0F618B6014D00E6ABCF11B
:1032E000020F02EAE67226460A620F638B620AD078
:1032F0000A6C4FF0904303EAE2720A6400220A6506
:103300004FF67F328A64D0F810181EF47F0F21F434
:103310008071C0F810186FF08041C0F818804161CA
:1033200003D1816941F010018161816943F6000296
:10333000C8F23C02114316F47F0F816103D081690A
:1033400041F008018161012D05D1816941F0804181
:1033500041F004018161504606B0BDE8F08F0000E5
:103360000146806820F0010200208A60704700005A
:10337000B0B50446C068002920F0C040E06000F00D
:103380009980012940F0B080E0680A2540F00050A3
:10339000E0600A20FDF7A0F854F8140FC00740F0D1
:1033A0009C800A20FDF798F82068C00740F09E80B6
:1033B0000A20FDF791F82068C00740F0A5800A2098
:1033C000FDF78AF82068C00740F0AC800A20FDF7BE
:1033D00083F82068C00740F0B3800A20FDF77CF82E
:1033E0002068C00740F0BA800A20FDF775F8206811
:1033F000C00740F0C1800A20FDF76EF82068C007C2
:1034000040F0C8800A20FDF767F82068C00740F048
:10341000CF800A20FDF760F82068C00740F0D68012
:103420000A20FDF759F82068C00740F0DD800A2027
:10343000FDF752F82068C00740F0E4800A20FDF74D
:103440004BF82068C00740F0EB800A20FDF744F8F5
:103450002068C00740F0F2800A20FDF73DF82068A0
:10346000C00740F0F9800A20FDF736F82068C00751
:1034700040F000810A20FDF72FF82068C00740F0D7
:1034800007810A20FDF728F82068C00740F00E8168
:103490000A20FDF721F82068C00740F016810A20B5
:1034A000FDF71AF82068C825A5F1C800B0FA80F029
:1034B0004009B0BDE0680A2540F08040E0600A2085
:1034C000FDF70AF854F8140FC00706D00A20FDF7DC
:1034D00003F82068C00711D11425A5F1C800B0FA7F
:1034E00080F04009B0BD00BF0120B0BD1425A5F19A
:1034F000C800B0FA80F04009B0BD00BF0A20FCF758
:10350000EBFF2068C00707D11E25A5F1C800B0FA5F
:1035100080F04009B0BD00BF0A20FCF7DDFF206845
:10352000C00707D12825A5F1C800B0FA80F04009EE
:10353000B0BD00BF0A20FCF7CFFF2068C00707D14D
:103540003225A5F1C800B0FA80F04009B0BD00BF37
:103550000A20FCF7C1FF2068C00707D13C25A5F170
:10356000C800B0FA80F04009B0BD00BF0A20FCF7E7
:10357000B3FF2068C00707D14625A5F1C800B0FAFF
:1035800080F04009B0BD00BF0A20FCF7A5FF20680D
:10359000C00707D15025A5F1C800B0FA80F0400956
:1035A000B0BD00BF0A20FCF797FF2068C00707D115
:1035B0005A25A5F1C800B0FA80F04009B0BD00BF9F
:1035C0000A20FCF789FF2068C00707D16425A5F110
:1035D000C800B0FA80F04009B0BD00BF0A20FCF777
:1035E0007BFF2068C00707D16E25A5F1C800B0FA9F
:1035F00080F04009B0BD00BF0A20FCF76DFF2068D5
:10360000C00707D17825A5F1C800B0FA80F04009BD
:10361000B0BD00BF0A20FCF75FFF2068C00707D1DC
:103620008225A5F1C800B0FA80F04009B0BD00BF06
:103630000A20FCF751FF2068C00707D18C25A5F1AF
:10364000C800B0FA80F04009B0BD00BF0A20FCF706
:1036500043FF2068C00707D19625A5F1C800B0FA3E
:1036600080F04009B0BD00BF0A20FCF735FF20689C
:10367000C00707D1A025A5F1C800B0FA80F0400925
:10368000B0BD00BF0A20FCF727FF2068C00707D1A4
:10369000AA25A5F1C800B0FA80F04009B0BD00BF6E
:1036A0000A20FCF719FF2068C00707D1B425A5F14F
:1036B000C800B0FA80F04009B0BD00BF0A20FCF796
:1036C0000BFF2068C0077FF4EAAEBE25A5F1C80055
:1036D000B0FA80F04009B0BDFEE7000086B040F2CD
:1036E0000048C4F20208FCF7F5FFFFF7BFF9002617
:1036F00043F630000596CDE90366CDE901660096F4
:10370000C4F202000168A8F5806441F00401016080
:103710000168012201F004010091009900960168FE
:103720004FF0100B41F08001016001684FF001097A
:1037300001F08001009100990096016841F00101BB
:103740000160016801F00101009100990096016893
:1037500041F002010160016801F00201009100994D
:103760000096016841F020010160016801F020012C
:10377000009100990096016841F00801016001681C
:1037800001F00801009100990096016841F04001A4
:1037900001600068102100F0400000900098204671
:1037A000FCF77EFF404644F281010022FCF778FFDF
:1037B00008F5A055284640210022FCF771FF40463D
:1037C00010210122FCF76CFF4FF4005001AF019073
:1037D0004FF4881A08F580603946CDE902A6FCF757
:1037E0008FFE20463946CDE901B9CDE90366FCF7E5
:1037F00087FE44F29100CDE9010940463946CDE902
:103800000366FCF77DFE4FF48050CDE9010A08F510
:10381000805039460396FCF773FE4020CDE901093C
:1038200028463946CDE90366FCF76AFE8020CDE9DB
:103830000106284639460396FCF762FE40F2C8505E
:10384000A8F55441C2F200004FF482724FF40073A5
:10385000182780E846000A21C0E90366C0E905632D
:10386000C761C0E90866C0E90A61FDF7B3FE18B197
:1038700072B600BFFEE700BF40F27004C2F200045F
:10388000A8F5DE31204640F82C1F4FF4E1310C2220
:10389000C0E90116C0E90366C0E90526C661FEF766
:1038A0001BFB18B172B600BFFEE700BF40F2E40098
:1038B000C2F200004FF0A0410160062101714FF4F7
:1038C0000071C1804FF48171C0F809100121C181DC
:1038D000FCF7ACFF10B172B6FEE700BF00F048F88D
:1038E0000DA504F12C060FF250080DA7204629461D
:1038F00005226423FEF7BAFEC82830464FF0640361
:1039000019BF3946162241461A22FEF751FB4FF4E1
:10391000FA70FCF7E1FDE9E748656C6C6F000000A8
:103920005472616E736D697373696F6E204661695D
:103930006C65642E0D0A00005472616E736D6973BC
:1039400073696F6E205375636365737366756C215D
:103950000D0A000040F2B111016240F2077181844A
:10396000012180F826100821C6F2FF4181627047CC
:103970002DE9F0438BB040F22069C2F200090A2021
:10398000A9F8080046F6741047F25341C6F26E706B
:10399000C7F26121C9E900104846FCF711FD40F269
:1039A0007006C2F2000606F12C0882B24046494673
:1039B0006423FEF7FDFA6846FFF7CCFF9DE8AF00F1
:1039C000DDE9064C86E8AF00DDE90801B461C6E92F
:1039D00008010020C4F20200306000F5806200F5AA
:1039E000A050C6F81CC030614FF48050B08240F245
:1039F000C850C2F20000B06140F29330306240F231
:103A00000770B084012086F826000820C8F2FC2048
:103A10001021B0623046B180B260B181FEF7C2FBC6
:103A2000C82813D1002089F80C0047F6641045F22D
:103A3000202146F64C72C0F60D20C6F26511C6F282
:103A40005212C9E90021C9F808000FE00F480FA180
:103A50000F1D8CCFD1E9046589E88D00088B897E24
:103A6000C9E90465A9F8180089F81A1040F2206421
:103A7000C2F200042046FCF7A3FC82B24046214675
:103A80006423FEF795FA0BB0BDE8F0834572726FC0
:103A90007220696E204C6F526120636F6E6E656399
:103AA00074696F6E0D0A00002DE9C04130B4DFF873
:103AB000A8C23CEA111418BF3CEA131400F0F080CD
:103AC0001CEA111481EA030544EAD57418BF1CEA04
:103AD000131500F0CB80A4EB050404F17F7404F50A
:103AE00000344FF0004545EAC12145EAC32341EACD
:103AF000505143EA52534FEAC0204FEAC222994242
:103B000008BF904200F0A0804FEA13650FF24816FC
:103B1000765D4FEA134506FB05F7C7F1807706FB94
:103B200007F74FEAD737A7FB03687642A7FB06CE15
:103B3000C8F5803838BFA8F1010807FB08E6A6FBE6
:103B4000028C4FF0000EE6FB03CED8F100086FEABE
:103B50000C0C5CF1000C6FEA0E0E4EF1004EA6FB51
:103B60000C584FF00007E6FB0E87A1FB08C6A0FB30
:103B700007CE16EB0E064FF0000545F10005E1FB00
:103B8000076515F1E04E7EBFA4F580345FEA460676
:103B90006D4116F1800745F100054FEA172747EA06
:103BA00005674FEA15254FEA0666A6F1DE46B6F12F
:103BB000805F20D9384605EBC47124F0010C01EB7D
:103BC0000C11BCF1FE6F02D8F0BCBDE800812442AC
:103BD0005CBF01F5801E9EEAC47F02D4F0BCBDE844
:103BE0000081244200F13980A1F1C041F0BCBDE860
:103BF000004100F049B94FEAD02040EA41504FEA75
:103C0000D1214FEAD22242EA43524FEAD323A7FB03
:103C1000028607FB036605FB02661EEA0E0F58BF0D
:103C2000A6EB0056B6EB00564FEA520E4EEAC37EA4
:103C300018EB0E0E56EB530EBCD518EB02085E4186
:103C40007F1C55F10005B5E74FF480154FF00007D4
:103C50004FF000064FF00008ACE701F1C04101F061
:103C600000414FF00000F0BCBDE800810CEA1315E4
:103C700011EA0C1F00D00CE013EA0C1F00F02580A5
:103C80004FF0000081EA030101F00041F0BCBDE803
:103C90000081F0BCBDE8004181EA030100F0F4B806
:103CA000F0BCBDE8004170B500F0A0F8097EFC3E14
:103CB00000F007B84FF0000081EA030101F0004175
:103CC000704781EA030100F0DFB8F0BCBDE80041B5
:103CD00022494FF000007047FFFDFBF9F7F5F4F2C1
:103CE000F0EEEDEBE9E8E6E4E3E1E0DEDDDBDAD897
:103CF000D7D5D4D3D1D0CFCDCCCBCAC8C7C6C5C4F5
:103D0000C2C1C0BFBEBDBCBBBAB9B8B7B6B5B4B30B
:103D1000B2B1B0AFAEADACABAAA9A8A8A7A6A5A4F6
:103D2000A3A3A2A1A09F9F9E9D9C9C9B9A999998BA
:103D30009797969595949393929191908F8F8E8E5D
:103D40008D8C8C8B8B8A89898888878786858584EA
:103D500084838382828181800000FF070000F87FD6
:103D60004FEA41034FEA5353A3F58063D3F11E0397
:103D7000C8BFD3F1210C0CDD4FF0004242EAC12252
:103D800042EA505232FA03FC8CEAE17CACEBE1707F
:103D90007047102BC4BF0020704703F5787CBCF13E
:103DA000FF3F04D06FF0004282EA2100704770B5F7
:103DB00000F01CF84992248000207047F2E710F0D0
:103DC000004248BF4042B0FA80F310FA03F10AD033
:103DD000C3F11D0303F5806302EB03524FEA415028
:103DE00002EBD12170474FF0000070470EF1020E38
:103DF0002EF0030E5EF8046B364205D4012A43EB25
:103E0000030515F5001F12D8012841EB010C1CF524
:103E1000001F0CD80ED14FEAD17C0CEB4C0C0CF1EE
:103E2000020C15F5001F08BF4CEBD37C04E04FF0EB
:103E3000080C01E04FEAD37C0CEB4C0526FA05F6A2
:103E400006F00706B6F1040C06D20EEB860CBDE8B0
:103E500070404CF0010C6047DFE80CF0090B0202E7
:103E60004FF00041A1F500214FF0000070BD194650
:103E70001046012851EB010418BFD4F5001484BF8B
:103E8000002001F0004170BD0808A0F500114FEAC4
:103E900031017047F1EE100A4FF6FF71C0F2C031E8
:103EA00020EA010040F04070E1EE100A7047000087
:103EB0003333333333331F40CDCCCCCCCCCC244044
:103EC0003333333333332F40CDCCCCCCCCCC344014
:103ED0000000000000403F409A99999999D94440C8
:103EE0000000000000404F400000000000405F4024
:103EF0000000000000406F400000000000407F40D4
:103F00000000000000000000010203040607080989
:103F10000000000001020304383F000800000020F8
:103F20001000000028020008483F00081000002090
:103F3000780C00004802000801000000100000009A
:083F40000024F4000000000061
:04000005080001C529
:00000001FF
