:020000040800F2
:10000000E80C002099020008E534000835290008B2
:10001000E1340008C5060008854200080000000021
:100020000000000000000000000000001136000881
:10003000D906000800000000E93400081536000861
:10004000B3020008B3020008B3020008B3020008BC
:10005000B3020008B3020008B3020008B3020008AC
:10006000B3020008B3020008B3020008B30200089C
:10007000B3020008B3020008B3020008B30200088C
:10008000B3020008B3020008B3020008B30200087C
:10009000B3020008B3020008B3020008B30200086C
:1000A000B3020008B3020008B3020008B30200085C
:1000B000B3020008B3020008B3020008B30200084C
:1000C000B3020008B3020008B3020008B30200083C
:1000D000B3020008B3020008B3020008B30200082C
:1000E000DD060008B3020008B3020008B3020008EE
:1000F000B3020008B3020008B3020008B30200080C
:10010000B3020008B3020008B3020008B3020008FB
:10011000B3020008B3020008B3020008B3020008EB
:10012000B3020008B3020008B3020008B3020008DB
:10013000B30200080000000000000000B302000845
:10014000B3020008B3020008B3020008B3020008BB
:10015000B3020008B3020008B3020008B3020008AB
:10016000B3020008B3020008B3020008B30200089B
:10017000B3020008B3020008B30200080000000048
:1001800000000000B30200080000000000000000B2
:10019000B30200080000000000000000B3020008E5
:1001A000000000000000000000000000B302000892
:1001B000B3020008B3020008B3020008B30200084B
:1001C000B302000800F002F800F057F814A696E811
:1001D000000CB244B344DA4501D100F04EF8BAE85D
:1001E0000F000FA696E83000A5EB040504EB060708
:1001F000AAEB0704A7F101074FEA15154FEA3414DB
:10020000A4F10104AC4201D300F037F813F0010F60
:1002100018BFFB1A43F0010300F001F8DBE71847B1
:10022000804A0000A04A0000103A24BF78C878C174
:10023000FAD8520724BF30C830C144BF04680C60EC
:1002400070470000704700000023002400250026AE
:10025000103A28BF78C1FBD8520728BF30C148BF29
:100260000B607047642900F0F780002070471FB5CD
:1002700004F0C0FC1FBD10B510BD00F0E8F9114638
:10028000FFF7F5FF04F01AF800F006FA03B4FFF7E1
:10029000F2FF03BC00F00EFA094880470948004706
:1002A000FEE7FEE7FEE7FEE7FEE7FEE7FEE7FEE726
:1002B000FEE7FEE704480549054A064B7047000083
:1002C000C5360008C5010008E8060020E80C00203B
:1002D000E8080020E808002053EA020C00F06980DA
:1002E0002DE9F04B4FF00006002B1FBFB3FA83F54A
:1002F00003FA05F424FA05F65E4012BF1643B2FA7B
:1003000082F502FA05F4C5F120051EBF22FA05FCAC
:1003100044EA0C04203556EA044C4FEA144418BF52
:10032000641C4FF000084FF00009904271EB030C81
:1003300039D3002919BFB1FA81F701FA07F6B0FAEB
:1003400080F700FA07F6C7F120071EBF20FA07FC66
:1003500046EA0C062037B6FBF4FCA7EB0507103F76
:1003600007F01F0BCBF120062CFA06F60CFA0BFB5C
:1003700044BFB3460026202FA4BF5E464FF0000BBB
:100380005BEA060C08BF4FF0010B19EB0B0948EBB9
:100390000608ABFB027C06FB02CC0BFB03CCC01BAC
:1003A00071EB0C01C1E70B46024641464846BDE8E9
:1003B000F08B13B5084318BF4FF0FF300146AFF381
:1003C0000080BDE81C4070470FB41CB5074B06AA5F
:1003D0007B4469460090059800F021F900206946A9
:1003E00000F030F91CBC5DF814FB00007102000045
:1003F0002DE9F0410E460446002020622046E168C7
:10040000884730B3252805D0D4E901219047206AD8
:10041000401CF2E7E168204600278847050018D015
:10042000A5F14100192802D820354FF40067324663
:10043000294620462760FFF715FF40B1012804D068
:10044000F61D26F007060836D8E7361DD6E72846FB
:10045000DAE7206ABDE8F0812DE9F0410646002484
:1004600010687529314616A510D0AFF3008000281A
:1004700002DA404213A507E031688A0701D512A5C8
:1004800002E0490704D511A5012401E0AFF3008083
:1004900000210A2206F1240709E0B0FBF2FCB0FBC0
:1004A000F2F302FB1C00303078541846491C002837
:1004B000F3D123462A463046BDE8F04100F051B85A
:1004C000000000002D0000002B00000020000000B4
:1004D00010B5431C02E010F8011B71B18107FAD17D
:1004E0004FF0013202C88C1A8C4314EAC211F9D0C1
:1004F000C01A0A0603D0C01E10BDC01A10BD0A04DF
:1005000001D0801E10BD0902FCD0401E10BD4FF06E
:10051000000200B5134694469646203922BFA0E853
:100520000C50A0E80C50B1F12001BFF4F7AF09075F
:1005300028BFA0E80C5048BF0CC05DF804EB890050
:1005400028BF40F8042B08BF704748BF20F8022B93
:1005500011F0804F18BF00F8012B704770477047AB
:1005600070472DE9F0470D4699469246044600F142
:1005700024080168880604D5E06921F01001216093
:1005800000E00120A84201DD471B00E00027A1692F
:100590007A1902EB0900081AA0612078C00602D47B
:1005A0002046AFF30080002608E0D4E901211AF8C4
:1005B00006009047206A401C761C20624E45F4DB02
:1005C0002078C0060AD52046AFF3008006E0D4E9C3
:1005D000012130209047206A401C2062381EA7F17C
:1005E0000107F4DC07E0D4E9012118F80500904781
:1005F000206A401C2062281EA5F10105F3DC20467C
:10060000AFF300802078000602D50220BDE8F08715
:100610000120FBE701694A1C02610878704700B5B8
:100620008FB0CDE901310021059105497944CDE92B
:10063000031011466846FFF7DBFE0FB000BD000057
:10064000E5FFFFFF0A6802F8010B0A607047754674
:1006500000F02CF8AE4605006946534620F007002E
:10066000854618B020B5FFF725FEBDE820404FF0C5
:1006700000064FF000074FF000084FF0000BAC46AB
:10068000ACE8C009ACE8C009ACE8C009ACE8C009F6
:1006900021F007018D46704710B50446AFF3008086
:1006A0002046BDE81040FFF7F1BD0000004870474C
:1006B0001000002001491820ABBEFEE72600020012
:1006C00070470000FEE70000016001214171002138
:1006D00002718160704700007047000080B54FF4E0
:1006E000805000F021F84FF40050BDE8804000F049
:1006F0001BB8000072B600BFFEE70000B0B50446AC
:1007000000F0F4F8054640F20000C2F20000007864
:10071000611C18BF044400BF00F0E8F8401BA04271
:10072000FAD3B0BD7047000043F61441C4F2010192
:100730000A68024214BF08607047FFF7F3BF000069
:100740002DE9F04F83B000F1200200F13E4741F661
:100750000005009207F1FF77C4F2020507224FEA75
:10076000B726A84208BF062200254FF000084FF028
:100770000009062E38BF4FEAB72201920AE000BFF7
:1007800009F1010908F10208B9F1100F05F104059A
:1007900000F0A2800F68012202FA09FE17EA0E0A91
:1007A000EED0D1F804C003220CF003077E1E02FA3B
:1007B00008F4012E6FEA040B12D88468CE6804EAAC
:1007C0000B0406FA08F634438460446824EA0E06F3
:1007D000CCF3001404FA09F42643466004E000BF99
:1007E000032F01D103271EE0C6688C6806EA0B06BA
:1007F00004FA08F42643022FC66014D16FF00302F6
:10080000009E02EA590756F807C005F01C040F22A3
:100810000B69A2402CEA0202A3401A43F251D1F81C
:1008200004C00CF00307026807FA08F302EA0B029F
:100830001A431CF4403F0260A2D0002243F6440356
:100840000292C4F202031A6843F6004442F4804262
:100850001A601A68C4F2010402F480420292029AF9
:1008600029F003024FF6084C2244CFF6FF7C52F8E1
:100870000C3005F00C070F26BE40B343019E06FA6C
:1008800007F73B4342F80C30A2684B6842EA0A077C
:1008900043F60C4CDE0258BF22EA0A07A760C4F2F6
:1008A000010CDCF800209E0242EA0A0758BF22EA47
:1008B0000A07CCF8007062689E0342EA0A0758BF34
:1008C00022EA0A0767602268DB0342EA0A0758BF88
:1008D00022EA0A07276053E703B0BDE8F08F000063
:1008E000002A08BF090481617047000040F2E460FB
:1008F000C2F2000000687047002804BF0120704762
:10090000F0B581B0044690F83D0028B9002084F885
:100910003C00204600F07CFA242084F83D0020684A
:10092000016821F001010160016841F400410160AA
:10093000016821F40041016000F0D8FF636848F2CB
:10094000A16CC0F2010C40F60011C0F23D016345FC
:100950003CBF48F28041C0F21E01884202D2012011
:1009600001B0F0BD4DF68361C4F21B31A0FB011252
:100970002168970CD1F804E04FF496762EF03F05ED
:1009800045EA92454D60774348F638160D6AC0F245
:100990004106A7FB067625F03F07634538BF960C56
:1009A000721C3A430A62CA6948F2A0664CF6FF77A5
:1009B000C0F20106B34222EA07020BD801385B00FD
:1009C000B0FBF3F001306FF31F30042898BF042010
:1009D0001BE000BFA768013857B119277B43B0FB64
:1009E000F3F001306FF31F3070B100F5804007E085
:1009F00003EB4303B0FBF3F001306FF31F3018B18A
:100A000000F5004001E000BF01201043C861086804
:100A1000D4E9072320F0C000104318430860886819
:100A200048F2FF3204F10C0790438CCF1843104377
:100A3000A6698860C86820F0FF0038433043C8606A
:100A4000086840F00100086000202021206484F83C
:100A50003D10206384F83E0001B0F0BD2DE9F04761
:100A600084B0994616460F460446FFF73FFF94F8B8
:100A70003D10202927D10546206800BF81698907DC
:100A80001CD5FFF733FF411B20681A29F6D3816973
:100A90008907F3D500202021206384F83D1084F8D5
:100AA0003E00206C04F13C0A40F02000206402204B
:100AB00000218AF8001004B0BDE8F087A2461AF8B9
:100AC0003C1F012904D1022004B0BDE8F08700BF1B
:100AD00001228AF800200368DDE90D180C9ADB0773
:100AE00003D1036843F001030360036823F4006348
:100AF0000360222084F83D00402084F83E0000205E
:100B0000206462626185608D394620850020CFF6C1
:100B1000FF70E062204632464B46CDE9008501F089
:100B20000BFF18B1012004B0BDE8F087208D08B399
:100B3000022813D0012835D121680A6822F4806286
:100B40000A60002203924A6903928A690392039A17
:100B50000A6842F400720A602CE000BF21680A684B
:100B600022F480620A600A6842F400620A6000228D
:100B700003921AE000200390206841690391816983
:100B800003910399016841F400710160202084F809
:100B90003D00002084F83E0000218AF8001004B0D7
:100BA000BDE8F0870021039121684A6903928969B1
:100BB000039103990427C0F201070CE01069087043
:100BC000606A218D01306062481E2085618D013987
:100BD00061850104DAD080B203280FD802284AD0F8
:100BE00001282DD1204641462A4602F043F900282B
:100BF00098D12068616A0069E1E700BF204641465C
:100C00002A4602F037F900287FF48CAF2068616A29
:100C100000690870606A2268411C208D6162013899
:100C20002085638D013B638553695B07D1D580B215
:100C30000328C3D1106820F480601060BEE700BFB5
:100C40002046394600224346009501F0C1FF0028A6
:100C50007FF468AF2068616A026822F480620260F3
:100C600000690870606A218D01306062481E20852D
:100C7000608D013860852046394600224346009544
:100C800001F0A6FF00287FF44DAF2068616A02687A
:100C900042F40072026000690870606A2268411CB8
:100CA0006162218D01392185618D0139618511696B
:100CB000417085E72DE9F04383B0994616460F460B
:100CC0000446FFF713FE94F83D10202924D1054671
:100CD000206800BF816989071AD5FFF707FE411B0D
:100CE00020681A29F6D381698907F3D500202021CD
:100CF000206384F83D1084F83E00216C41F020010F
:100D0000216484F83C00022003B0BDE8F08300BFFA
:100D100094F83C10012903D1022003B0BDE8F08310
:100D2000012284F83C200368DDE90B180A9ADB07EE
:100D300003D1036843F001030360036823F40063F5
:100D40000360212084F83D00402084F83E0000200C
:100D5000206462626185608D394620850020CFF66F
:100D6000FF70E062204632464B46CDE9008501F037
:100D70006DFE18B1012003B0BDE8F083208D98B955
:100D8000204641462A4601F0C5FE88B3206C04285F
:100D9000F0D12068016841F400710160012003B0C6
:100DA000BDE8F0830004EBD0204641462A4602F01D
:100DB000A9F80028EAD1616A2268084610F8013BC8
:100DC0001361238D6062581E2085678D013F678502
:100DD00057697F07E6D50704E4D048781061881C7E
:100DE0006062981E2085618D01396185DAE700BF58
:100DF0002068016841F400710160202084F83D0002
:100E0000002084F83E0084F83C0003B0BDE8F08385
:100E1000B0B586B045F600010068C4F200010024B8
:100E200088420594CDE903440294019402D006B0AF
:100E3000B0BD00BF43F630050094C4F20205286837
:100E4000122240F020002860286800F02000009066
:100E500000980320019004900420059001F5DE30F5
:100E600001A9CDE90224FFF76BFC0094286940F446
:100E700080002861286900F480000090009806B086
:100E8000B0BD000040F2000040F2E461C2F2000098
:100E9000C2F2000100780A68104408607047000040
:100EA00080B543F60040C4F20200016841F40071CD
:100EB0000160016841F480610160016841F4807162
:100EC0000160032000F086F8002000F005F800F033
:100ED00027F8002080BD000070B540F20006C2F285
:100EE000000640F208013278C2F200014FF47A7332
:100EF0000968B3FBF2F20446B1FBF2F1084601F0D7
:100F0000CDFB0F2C4FF0010508D838B94FF0FF305A
:100F100021460022002500F031F87460284670BD9B
:100F200082B0002043F640010190C4F202014A68F9
:100F300042F480424A604A6802F480420192019A77
:100F40000090086840F080500860086800F0805009
:100F50000090009802B07047002848BF704700F02A
:100F60001F01012202FA01F11C2202EAD0004EF216
:100F70000012CEF2000281507047000010B54EF60C
:100F80000C5CCEF2000CDCF80030C3F3022E8EF0C5
:100F90000704042C28BF0424BEF103034FF0FF3ED6
:100FA0000EFA04F438BF0023A14399400EFA03F36C
:100FB0009A43114300F00F0200F160430901043A23
:100FC00003F564436244002848BF02F10C03197022
:100FD00010BD00004EF60C51CEF200010A684FF62B
:100FE000FF031A4060F30A2242F0806040F0FD7077
:100FF0000860704701220168C0F8D824002280F8F8
:10100000CC24886940F000608861486D40F08050D1
:1010100040F0030200204A6570470000002804BF2A
:1010200001207047F0B581B00446056890F895043A
:1010300028B9002084F89404204600F02DF90320FC
:10104000B5F1A04F84F8950404BF0020A07120687A
:1010500002F05CFF94E80F00267C009602F0B0FBE3
:10106000002840F000812068002102F057FF00288E
:1010700040F0F98094F804E0BEF1000F00F0EC803D
:101080000EF0030CBEF1040F4FF0000240D30EF03F
:10109000FC03A4F190000321012500BFCE1E80F8BF
:1010A000A460A0F8BE608E1E80F8C860A0F8E26060
:1010B0004E1E80F8EC60A0F8066180F81011A0F8D0
:1010C0002A110E1D013180F8A55080F8A820C0E932
:1010D0002B22C0F8B42080F8C95080F8CC20C0E999
:1010E0003422C0F8D82080F8ED5080F8F020C0E914
:1010F0003D22C0F8FC2080F8115180F81421C0E98D
:101100004622C0F82021903099423146C6D1F21EC5
:10111000BCF1000F31D004F1140002EBC20100EB6E
:101120008105012300F821200021BCF1010F6B7023
:101130006A832971C5E9021129611ED0551C05EB8E
:10114000C50600EB8607BCF1020F7B7000F8265045
:101150007D833971C7E9021139610ED0911C01EB11
:10116000C10200EB8203012500F8221000205D700F
:1011700059831871C3E902001861BEF1000F6BD0EA
:10118000BEF1040F4FF0000236D30EF0FC00032135
:10119000234600BFCF1E83F854728F1E83F87872E7
:1011A0004F1E83F8C0120D1D013183F8552283F8BC
:1011B0005822C3E99722C3F8642283F8792283F87E
:1011C0007C22C3E9A022C3F8882283F89D2283F8F9
:1011D0009C7283F8A022C3E9A922C3F8AC2283F849
:1011E000C12283F8C422C3E9B222C3F8D0229033CB
:1011F00081422946CED1EA1EBCF1000F2CD004F565
:10120000157002EBC20300EB83070021BCF1010F54
:10121000797000F823203971C7E9021139611BD0B8
:10122000531C03EBC30700EB8706BCF1020F717080
:1012300000F827303171C6E9021131610CD0911CE0
:1012400001EBC10200EB820300275F7000F822105F
:101250001F71C3E902771F6194E80F00277C009794
:1012600002F0FAFB30B1022084F89504012001B0AD
:10127000F0BD00BF00206074012084F89504207B3D
:10128000012802D12046FFF7B5FE206802F0D4FB0A
:10129000002001B0F0BD0000F0B59DB00446002074
:1012A0001C90CDE91A00CDE9180001A8043058219E
:1012B000FFF72DF92068B0F1A04F01D01DB0F0BDAF
:1012C0004FF48070019001A800F03EF8002818BF8C
:1012D000FFF710FA002743F630060097C4F2020623
:1012E0003068002440F0010030603068C4F202042D
:1012F00000F00100009000984FF4E8501890022090
:10130000CDE9190703201B900A2018AD1C90204638
:101310002946FFF715FA4FF40070CDE9180720466B
:1013200029461A97FFF70CFA706840F08000706049
:101330000097706940F480407061706900F48040EB
:10134000009000981DB0F0BD2DE9F04381B0044637
:10135000006843F68C06C107C4F2020604D14FF0C0
:10136000000981070CD415E03168A26B21F0C0613F
:1013700011433160B2FA82F14FEA5119810709D560
:101380003168E26B21F0C05111433160002A08BF7F
:101390004FF00109410705D44FF00008010712D4AE
:1013A00020E000BF3168226B21F44011114331600D
:1013B000B2FA82F14FEA5118B2F5801F08BF4FF020
:1013C000010901070ED53168626B21F44001114318
:1013D000B2F5800F316008BF4FF00109002A08BF45
:1013E0004FF0010881065AD50020009056F84C0CA9
:1013F00047F2000740F0805046F84C0C56F84C0C71
:10140000C4F2000700F0805000900098386840F463
:1014100080703860FFF76AFA054600BF3868C0057B
:1014200006D4FFF763FA401B0228F7D990E100BF0A
:1014300056F81C0C10F4407017D0216C01F4407168
:10144000884212D056F81C0C40F64061C4F2472185
:10145000012220F440700A6000220A6046F81C0C49
:1014600056F81C0CC00740F07B812068216C56F8B0
:10147000842C4FF6FF4701F4407322F4F812C0F6B3
:10148000FF770F40B3F5407F08BF3A4346F8842CFE
:1014900056F81C2C6FF31F31114346F81C1CC10673
:1014A00010D4010619D441061FD4C10525D48105E5
:1014B00030D4410536D4B9F1010F18BFB0F5006F33
:1014C0003CD062E094F8580040F64061C4F24721F5
:1014D000C1F8A00320680106E5D5B168E26C21F4EB
:1014E00040011143B1604106DFD5B168A26C21F023
:1014F00080611143B160C105D9D5B168626D21F039
:1015000000611143B160B2F1006F08BF4FF00108F4
:101510008105CED5B168626C21F080511143B16074
:101520004105C8D5B268216D22F000520A43B0F5DA
:10153000006FB26018BFB1F1005F23D140F26809BB
:10154000C4F247290020C9F80000FFF7CFF905468B
:1015500056F88C0C000105D5FFF7C8F9401B02288E
:10156000F6D9F5E02068C10702D0A16B00296FD041
:10157000810702D5E16B00296AD0410700F17D8027
:101580007FE000BFB9F1010FD8D0B8F1000F4FF0E4
:10159000000000F0DE806827C4F24727B860FFF73C
:1015A000A5F9054656F88C0C800005D5FFF79EF985
:1015B000401B0228F6D9CBE02068410701D5216BFA
:1015C00019B101071AD5616BC1B956F8041CD4E9E9
:1015D000062301F44031656A114341EA831141EA6F
:1015E0000561D4F82CC046F8041C31686FF0FF0286
:1015F00021F4F85102EB0C2211433160C00516D5DD
:10160000606DB0F1006F12D156F8040C226AD4E973
:10161000061300F07060D2034FF6FF75AA4308432B
:10162000A2F5803240EA8310104346F8040C0120F2
:10163000B860FFF75BF9044656F88C0C800000F1A7
:101640008B80FFF753F9001B0328F5D380E000BF20
:1016500056F8081C56F8082CD4E9013501F440313D
:1016600002F0706219436769114341EA851141EA4A
:10167000077146F8081C410703D5216BB1F5801F9F
:1016800005D001071FD5616BB1F5800F1BD156F84E
:10169000081C56F8082CD4E9013701F4403102F057
:1016A000E04219432569114341EA871141EA056186
:1016B000D4F828C046F8081C3168ACF1010221F0CA
:1016C0001F011143316041051FD5216DB1F1005F4C
:1016D0001BD1271D56F808CC56F8082CA8CFFF03BD
:1016E0004FF6FF7127EA01014FF0C06702F0E042B8
:1016F00007EA4C2707F100771A433A43A1F58031F6
:1017000042EA8512114346F8081C000510D5271D32
:101710008FCF40EA8110D1034FF6FF729143A1F5BC
:10172000803140EA0360084340EA077046F8080C3D
:101730000120C9F80000FFF7D9F8054656F88C0CCF
:1017400000013FF522AFFFF7D1F8401B0228F5D981
:10175000032001B0BDE8F083002001B0BDE8F083B4
:10176000FFF7C4F8054641F2883700BF56F81C0C55
:1017700080073FF57AAEFFF7B9F8401BB8424FF04B
:101780000300F3D9E5E70000002804BF01207047FB
:101790002DE9F04143F60808C4F202080446D8F8DF
:1017A000F8030D4600F00F00814207D988F8F8537E
:1017B000D8F8F80300F00F00A84277D1206881071D
:1017C00017D5410705D5D8F8001041F4E051C8F805
:1017D0000010010705D5D8F8001041F46041C8F8A1
:1017E0000010D8F80010A26821F0F0011143C8F8E9
:1017F0000010C00740D1D8F8F80300F00F00854270
:1018000007D288F8F853D8F8F80300F00F00A84280
:101810004CD12068410707D5D8F80010E26821F4C0
:10182000E0511143C8F80010000708D5D8F80000AF
:10183000216920F4604040EAC100C8F8000000F0CF
:101840007DF8D8F8001044F66042C1F30311C0F6E9
:101850000002515C40F2080220FA01F140F204005B
:10186000C2F200000068C2F200021160FFF734FB10
:101870000020BDE8F08100BF6068811E022907D208
:1018800058F8081C89015CBF0120BDE8F08111E017
:10189000012807D158F8081C89035CBF0120BDE866
:1018A000F08107E058F8081C890703D40120BDE83F
:1018B000F08100BFD8F8001021F003010843C8F8F8
:1018C0000000FFF713F8064641F28837D8F8000009
:1018D000616800F00C00B0EB810F8CD0FFF706F8C8
:1018E000801BB842F2D90320BDE8F08140F2080025
:1018F00043F60801C2F20000C4F202010068096860
:1019000044F67042C1F38221C0F60002515CC84027
:101910007047000040F2080043F60801C2F20000E0
:10192000C4F202010068096844F67042C1F3423112
:10193000C0F60002515CC8407047000010B543F685
:101940000404C4F202046068C0F3810142F2004062
:10195000C0F2F400DFE801F04202081841F2002072
:10196000C0F27A0010BD00BF216801F03F0221687B
:1019700023684902C3F3881116D4A1FB0001002398
:10198000FEF7AAFC17E000BF216801F03F022168C2
:1019900023684902C3F3881114D4A1FB000100237A
:1019A000FEF79AFC15E000BF41F20020C0F27A0079
:1019B0004843B0FBF2F021680222C1F3014102EB7F
:1019C000410109E041F20020C0F27A004843B0FB37
:1019D000F2F02168C1F30271B0FBF1F010BD00001C
:1019E000002804BF012070472DE9F04182B0044671
:1019F000007843F60006C007C4F202060CD0B068B7
:101A000000F00C00042840F089803068800303D582
:101A10006068002800F050812078800723D5B068E6
:101A200010F00C0F11D0B06800F00C00082802D1A3
:101A30007068400209D5B06800F00C000C2840F036
:101A40009F807068400200F19B803068800703D55A
:101A5000E068012840F030813068216920F0F8000A
:101A600040EAC10030602078000713D42078400796
:101A70002AD4A569002D00F01A81B06800F00C008E
:101A8000082840F0AB80012D40F0E880012002B032
:101A9000BDE8F0816069002840F20000C4F24720F0
:101AA00000F088800121C0F8801EFEF71FFF054668
:101AB000706F8007DAD4FEF719FF401B0228F7D9B0
:101AC000032002B0BDE8F081306C5FEAC0080AD4A0
:101AD00000200190306C40F080503064306C00F099
:101AE00080500190019847F20007C4F2000738685F
:101AF000C00537D4386840F480703860FEF7F6FED1
:101B0000054600BF3868C0052CD4FEF7EFFE401B29
:101B10000228F7D9032002B0BDE8F081B06800F0D8
:101B20000C00082803D1706840023FF56EAFB06822
:101B300000F00C000C2803D1706840023FF565AF3F
:101B400061683068B1F5803F07D0B1F5A02F40F053
:101B5000CB8040F480203060306840F480303060CA
:101B6000CBE000BFA168306F012905D0052957D10E
:101B700040F004003067306F40F00100306759E0FA
:101B8000E068002800F09C800020C4F2472001217A
:101B90000160FEF7ABFE0546306880073FF55CAF9D
:101BA000FEF7A4FE401B02284FF00300F4D902B058
:101BB000BDE8F0810021C0F8801EFEF797FE0546C3
:101BC000706F80077FF552AFFEF790FE401B022832
:101BD000F6D9032002B0BDE8F08100BF0027C4F2AF
:101BE000472700203866FEF781FE022D05460BD1FF
:101BF0003068800140F19280FEF778FE401B022899
:101C00004FF00300F4D9D2E7306880014FD5FEF7DA
:101C10006DFE401B02284FF00300F5D9C7E700BF57
:101C200020F001003067306F002920F00400306799
:101C300000F09880FEF75AFE054641F2883700BF53
:101C4000306F800700F1A080FEF750FE401BB842C5
:101C5000F6D9032002B0BDE8F08100BF7068E169E9
:101C600000F480028A4227D1216A00F03F028A42B2
:101C700022D147F6C071626A0140B1EB821F1BD1CD
:101C8000A16A4FF6FF73C903994300F44032A1F5EE
:101C900080318A4210D1E16A00F07062B2EB016FCC
:101CA0000AD1216B00F0E040B0EB017F04D10020AD
:101CB00002B0BDE8F08100BF012002B0BDE8F081B4
:101CC0000020C4F2472000210160FEF70FFE054608
:101CD000306880077FF5C7AEFEF708FE401B02287C
:101CE0004FF00300F4D962E720F4803030603068B0
:101CF000002920F48020306050D0FEF7F7FD054623
:101D0000306880033FF588AEFEF7F0FD401B642885
:101D1000F6D9032002B0BDE8F08100BF04F11C0534
:101D20002FCD246B084340EA8210D9034FF6FF728F
:101D30009143A1F5803140EA0560084340EA047010
:101D4000706001203866FEF7D1FD044630688001DE
:101D5000ADD4FEF7CBFD001B02284FF00300F5D9F0
:101D600025E700BFFEF7C2FD054641F2883700BFF8
:101D7000306F800708D5FEF7B9FD401BB8424FF021
:101D80000300F5D913E700BFB8F1000F3FF571AEBE
:101D9000306C20F0805030646BE600BFFEF7A6FD8B
:101DA000054600BF306880037FF536AEFEF79EFD26
:101DB000401B64284FF00300F4D9F8E690F8510076
:101DC0007047000070B528B1416A29B10021016156
:101DD000142106E0012070BD4168B1F5827F02D078
:101DE0001C21002242500026866290F8511029B929
:101DF00080F85060054600F03DF82846022180F842
:101E0000511090E82E0002F482720C6803F404432F
:101E100024F040040C601A4405F4006305691A4478
:101E200005F0020345691A4405F001038569C46998
:101E30001A4405F400731A4404F03803046A1A447F
:101E400004F08003846A1A4304F400531A430A60BE
:101E5000436A042202EA154203F010031A444A605E
:101E6000CA6922F40062CA610121466580F85110F6
:101E7000304670BD80B586B043F200010068C4F200
:101E80000101002288420592CDE9032202920192CB
:101E900002D006B080BD00BF43F630000092C4F20D
:101EA0000200436943F480534361436903F4805360
:101EB0000093009B0092036843F0010303600068F5
:101EC00000F0010000900098E02001900220CDE990
:101ED0000202032004900520059001F5504001A95D
:101EE000FEF72EFC06B080BD2DE9F04182B004461D
:101EF00090F8510001281AD100294FF0010018BFB5
:101F0000002A03D102B0BDE8F08100BF60681D4621
:101F10001746B0F5827F03D1A068002800F0BC808E
:101F20000E46FEF7E3FC94F85010012904D102207C
:101F300002B0BDE8F08100BF8046012084F8500067
:101F40000420002184F851006165A663A787E78714
:101F50002163A186E186A2682068B2F5004F216462
:101F6000616437D0016849063FD5E168E08F0029F8
:101F700043D000287AD0681C0BD11AE0C068A16B4E
:101F800021F8020BA163E08F0138E087E08F002881
:101F90006CD020688168C907F0D1FEF7A7FCA0EBE0
:101FA0000800A842F2D342E0FEF7A0FCE08F002830
:101FB0005CD020688168C907F6D0C068A16B21F8A1
:101FC000020BA163E08F0138E087E08F0028F0D199
:101FD0004CE000BF016821F040010160016821F47C
:101FE0008041016001684906BFD4016841F04001A9
:101FF0000160E168E08F0029BBD1B8B3681C0CD147
:1020000024E000BF007BA16B0870A06B0130A063CF
:10201000E08F0138E087E08F40B320688168C9070E
:10202000F0D1FEF763FCA0EB0800A842F3D3012037
:1020300084F85100002084F85000032002B0BDE86D
:10204000F08100BFFEF752FCE08F78B12068816814
:10205000C907F7D0007BA16B0870A06B0130A063AB
:10206000E08F0138E087E08F0028EFD16068B0F59D
:10207000827F0ED1A068B0F5004F02D0B0F5806F1E
:1020800016D12168B0F5806F0A6822F040020A601C
:102090000ED1204601210DE0042084F85100204695
:1020A0000A463B46009500F059F902B0BDE8F081C0
:1020B0002046802100222B46CDF8008001F016FA40
:1020C00028B1606D40F0200060652020606501202F
:1020D00084F85100002084F85000606D002818BF7B
:1020E000012002B0BDE8F0812DE9F04184B01D4629
:1020F00016460F460446FEF7F9FB94F851100129E5
:102100000ED18046002F4FF0010018BF002E03D1E2
:1021100004B0BDE8F08100BF94F85000012803D15D
:10212000022004B0BDE8F081012084F850000320B3
:10213000002184F8510061652763A686E686A163C5
:10214000A187E187A0682164B0F5004F2068616431
:1021500007D1016821F040010160016841F480412C
:1021600001600168490603D4016841F04001016043
:102170006168731EE268B1FA81F1B3FA83F3490929
:102180005B09B2F5006F41EA030139D131B137F88B
:10219000021BC1602763E08E0138E086E08E0028D4
:1021A00070D0681C0BD11AE0216B31F8022BC26091
:1021B0002163E08E0138E086E08E002862D020683E
:1021C00081688907F0D4FEF791FBA0EB0800A842D4
:1021D000F2D338E0FEF78AFBE08E002852D0206868
:1021E00081688907F6D5216B31F8022BC260216323
:1021F000E08E0138E086E08E0028F0D142E000BF9A
:1022000039B139780173206B01302063E08E0138D9
:10221000E086E08EB0B3681C0BD123E0216B097817
:102220000173206B01302063E08E0138E086E08E80
:1022300040B3206881688907F0D4FEF757FBA0EB14
:102240000800A842F3D3012084F85100002084F84C
:102250005000032004B0BDE8F08100BFFEF746FB4C
:10226000E08E78B1206881688907F7D5216B0978FD
:102270000173206B01302063E08E0138E086E08E30
:102280000028EFD12046022101222B46CDF8008004
:1022900001F02CF9E0B1606D40F020006065202075
:1022A0006065A06838B9002002902068C16802917A
:1022B000806802900298012084F85100002084F880
:1022C0005000606D002818BF012004B0BDE8F08107
:1022D00040F20800C2F20000006849F68171C1F2C4
:1022E0005E61A0FB0101480D4FF47A7148430390F1
:1022F0006068B0F5827F0BD12046802100222B46FA
:10230000CDF8008001F0F2F80028C4D1C9E700BF81
:1023100003980028C5D0039801380390206881688D
:102320000906BED503990029BBD003990139039151
:1023300081680906B5D503990029B2D003990139FE
:10234000039181680906ACD503990029A9D00399A6
:102350000139039180680006DAD4A2E72DE9F04341
:1023600083B01E4615460F460446FEF7BFFA94F8A2
:1023700051108146012909D1002F4FF0010018BFEB
:10238000002D0FD103B0BDE8F08300BF6068B0F549
:10239000827F0DD104294FF00200F3D1A1680029FA
:1023A000EAD0EFE7002EEDD094F85000012803D1D9
:1023B000022003B0BDE8F083012084F8500094F8B7
:1023C0005100002104281CBF052084F851006165DC
:1023D000A563E687A6872763E6862068A68621642C
:1023E00061640168490603D4016841F0400101605D
:1023F0006168731EE268B1FA81F1B3FA83F3DDF824
:10240000288049095B09B2F5006F41EA030165D1F3
:1024100031B137F8021BC1602763E08E0138E086D6
:10242000012518F1010032D102E000BFFEF75EFA8B
:10243000E08E18B9E08F002800F0B880206881682D
:1024400089070CD5E18E51B1012D08D1216B0025F2
:1024500031F8022BC2602163E18E0139E186816887
:10246000C907E3D0E18F0029E0D0C068A16B012546
:1024700021F8020BA163E08F0138E087D6E700BFA7
:10248000FEF734FAA0EB0900404580F0A580E08E0D
:1024900018B9E08F002800F08980206881688907DA
:1024A0000CD5E18E51B1012D08D1216B002531F8F9
:1024B000022BC2602163E18E0139E1868168C90780
:1024C000DED0E18F0029DBD0C068A16B012521F8A7
:1024D000020BA163E08F0138E087D1E739B1397889
:1024E0000173206B01302063E08E0138E086012506
:1024F00018F1010032D101E0FEF7F8F9E08E10B9D1
:10250000E08F002852D02068816889070ED5E18EBF
:1025100061B1012D0AD1216B002509780173216B6E
:10252000206801312163E18E0139E1868168C907A4
:10253000E2D0E18F0029DFD0C068A16B01250870CF
:10254000A06B0130A063E08F0138E087D4E700BFC3
:10255000FEF7CCF9A0EB090040453DD2E08E08B96A
:10256000E08F18B32068816889070ED5E18E61B1CC
:10257000012D0AD1216B002509780173216B206898
:1025800001312163E18E0139E1868168C907DFD01D
:10259000E18F0029DCD0C068A16B01250870A06B19
:1025A0000130A063E08F0138E087D1E720460221A7
:1025B00001224346CDF8009000F098FFB0B1606D65
:1025C00040F02000606520206065002084F8500005
:1025D000012003B0BDE8F083012084F85100002001
:1025E00084F85000032003B0BDE8F08340F20800F7
:1025F000C2F20000006849F68171C1F25E61A0FB81
:102600000101480D4FF47A71484302906068B0F5BB
:10261000827F0BD12046802100224346CDF80090D6
:1026200000F064FF0028CAD121E000BF0298F0B199
:1026300002980138029020688168090617D502992E
:10264000A9B1029901390291816809060FD5029951
:1026500069B10299013902918168090607D5029989
:1026600029B102990139029180680006DED4A06880
:1026700038B9002001902068C168019180680190FC
:102680000198012084F85100002084F85000606D0A
:10269000002818BF012003B0BDE8F083411E0020D0
:1026A000B0EB116F1CBF012070474EF21002CEF24A
:1026B000000251604EF62351CEF20001F0230B7060
:1026C0000721906011607047002804BF0120704707
:1026D00010B5044690F8410028B9002084F8400065
:1026E000204600F021F8242084F841002068C168C9
:1026F00021F40051C160204600F0EEFF206801691E
:1027000021F490410161416921F02A014161C168D0
:1027100041F40051C16000202021606484F8411020
:1027200084F84210606310BD80B586B044F60001A5
:102730000068C4F20001002288420592CDE903221C
:102740000292019202D006B080BD00BF43F6300075
:102750000092C4F20200036943F480230361036919
:1027600003F480230093009B0092036843F0080366
:102770000360006800F00800009000984FF440707B
:1027800001900220CDE90202032004900720059069
:1027900001F5E23001A9FDF7D3FF06B080BD0000CE
:1027A0002DE9F04381B0044690F84100202809D17A
:1027B00000294FF0010018BF002A07D101B0BDE881
:1027C000F08300BF022001B0BDE8F0830020606408
:1027D00021201D460E4684F841001746FEF786F874
:1027E000A784E784A1688146B1F5805F02D12069A2
:1027F00000285DD037460020E28C2168002A5DD099
:102800006A1C24D0002D4AD0804600BF086800060C
:1028100008D4FEF76BF8A0EB0900A8427AD821682B
:10282000C868F3E717B117F8010B04E038F8020B9A
:1028300000276FF35F204860E08C0138E084E08C73
:102840000028E3D13AE000BF0A68120609D40A68FA
:10285000120606D40A6812065CBF0A685FEA0262C2
:10286000F2D51FB117F8012B05E000BF30F8022B9D
:1028700000276FF35F224A60E28C013AE284E28C27
:10288000002AE4D11AE000BF30F8022B00276FF3D2
:102890005F224A60E28C013AE284E28C72B10A68FB
:1028A000120635D5002FEFD017F8012BF1E700BF46
:1028B00000273046E28C2168002AA1D10868400632
:1028C0001ED42DB3681C14D1086840062AD40868A9
:1028D000400627D40868400624D4086840064FF014
:1028E0000000F1D50DE000BF2068C1680068400617
:1028F00018D4FDF7FBFFA0EB0900A842F4D909E0CA
:102900000020202184F8411001B0BDE8F08300BF11
:10291000FDF7ECFF0320202184F8411001B0BDE851
:10292000F08300BF0020202184F8411001B0BDE8F1
:10293000F0830000FEE700002DE9F04782B0044676
:1029400000689A460B9D0A9E0368914643F4806294
:10295000026002680F4642F48071016020464FF029
:10296000011100223346009500F032F950B1206881
:102970000068C00544BF4FF400702064032002B01B
:10298000BDE8F08740F202082068C0F2010807F0B5
:10299000FE0707612046414632462B4600F0FEF90D
:1029A00020B1012002B0BDE8F08700BF00200190F7
:1029B00020682A4641690191806931460190019859
:1029C000204600F09FFAB0B92068BAF1010F09D093
:1029D0004FEA19210161204631462A4600F092FA59
:1029E00048B920685FFA89F10161204631462A46DC
:1029F00000F088FA60B1206C0428D2D12068016808
:102A000041F400710160012002B0BDE8F08700BF11
:102A1000206800220168334641F48071016020463D
:102A20004FF00111009500F0D3F800289FD147F036
:102A3000010C27682046414632462B46C7F810C095
:102A400002B0BDE8F04700F0A9B900002DE9F0435D
:102A500083B0044600680F4601680A9D0B9E41F44E
:102A6000807199469046016020464FF00111002286
:102A70002B46009600F0ACF850B120680068C00505
:102A800044BF4FF400702064032003B0BDE8F0831E
:102A9000206807F0FE0101610221C0F20101204619
:102AA0002A46334600F07AF920B1012003B0BDE890
:102AB000F08300BF002002902068324641690291F5
:102AC0008069294602900298204600F01BFA58B10E
:102AD000206C0428E9D12068016841F4007101608C
:102AE000012003B0BDE8F0832068B9F1010F0AD0DE
:102AF0004FEA1821016120462946324600F002FAC9
:102B00000028E5D120685FFA88F10161002003B058
:102B1000BDE8F08370B50368044653F8140F40070E
:102B200011D40E46481C29D086BB00BF186840054A
:102B300027D4FDF7DBFE236853F8140F400737D581
:102B400018684007F2D5002070BD00BF1868400724
:102B5000F9D41868400514D418684007F3D41868ED
:102B600040050ED418684007EDD41868400508D415
:102B7000186840074FF0000048BF70BD1868400556
:102B8000E4D56FF480601860042012E0154603E07D
:102B900053F8140F4007D6D418684005F1D4FDF758
:102BA000A5FE401B2368B042F2D958694007EFD414
:102BB000202000212022216384F83D2084F83E104B
:102BC000226C10432064012084F83C1070BD00008A
:102BD0002DE9F041054600681E46144601F47F02C7
:102BE00001338FB242D0DDF81880B2F5803F40F05B
:102BF000878040693840C01BB0FA80F040098442A9
:102C000040F0C8804EB924E040693840C01BB0FA9B
:102C100080F04009844240F0BD80FDF767FEA0EBE4
:102C200008012868B142EFD941693940C91BB1FA9E
:102C300081F149098C42E7D19BE000BF40693840EF
:102C4000C01BB0FA80F0400984424FF0000040F011
:102C5000A280FDF74BFE286841693940C91BB1FAD3
:102C600081F149098C42E9D183E000BFB2F5803F90
:102C700024D100BF41693940C91BB1FA81F149092A
:102C80008C4240F0878041693940C91BB1FA81F11B
:102C900049098C4240F07E8041693940C91BB1FA34
:102CA00081F149098C4275D141693940C91BB1FA9A
:102CB00081F149098C42DDD06CE000BF8169394067
:102CC000C91BB1FA81F149098C4263D1816939404C
:102CD000C91BB1FA81F149098C425BD18169394044
:102CE000C91BB1FA81F149098C4253D1816939403C
:102CF000C91BB1FA81F149098C42DFD04AE000BF1B
:102D000080693840C01BB0FA80F04009844241D14C
:102D100046B923E080693840C01BB0FA80F0400912
:102D2000844237D1FDF7E2FDA0EB08012868B142EB
:102D3000F0D981693940C91BB1FA81F149098C4246
:102D4000E8D116E080693840C01BB0FA80F0400935
:102D500084424FF0000018BFBDE8F081FDF7C6FDCA
:102D6000286881693940C91BB1FA81F149098C424F
:102D7000E8D100202021286385F83D1085F83E0029
:102D8000296C41F02001296485F83C000120BDE850
:102D9000F08100BF0020BDE8F0810000F0B581B0F7
:102DA000044600681D4643698FB203EA0701B94231
:102DB00002D1002001B0F0BD4169164601323CD07D
:102DC000490512D47EB300BFFDF790FD411B20687A
:102DD000B14203D941693940B9422BD141693940E7
:102DE000B942E6D041694905EED5016841F4007168
:102DF00001606FF480614161042000212022216381
:102E000084F83D2084F83E10226C1043206484F83E
:102E10003C10012001B0F0BD41693940B942C8D031
:102E200041694905E1D4FDF761FD206841693940F8
:102E3000B942F1D02020E0E741694905D5D4416984
:102E40003940B942B5D041694905CED441693940CC
:102E5000B942AED041694905C7D441693940B94248
:102E6000A7D041694905C0D441693940B942E3D18D
:102E70009FE7000070B504460068154650F8143FFF
:102E80005A063DD40E4629B926E000BF50F8141F5B
:102E9000490635D40168C90621D4FDF727FD411B39
:102EA0002068B142F2D941694906EFD400202021BF
:102EB000206384F83D1084F83E00206C40F0200030
:102EC00018E000BFFDF712FD206850F8141F4906F6
:102ED000ECD50168490613D40168C906F2D56FF034
:102EE0001001016000202021206384F83D1084F847
:102EF0003E00206C2064002084F83C00012070BD5E
:102F0000002070BD70B50368044653F8140F000626
:102F100011D40E46481C29D086BB00BF1868400556
:102F200027D4FDF7E3FC236853F8140F000637D5C8
:102F300018680006F2D5002070BD00BF18680006B2
:102F4000F9D41868400514D418680006F3D418683A
:102F500040050ED418680006EDD41868400508D462
:102F6000186800064FF0000048BF70BD18684005A3
:102F7000E4D56FF480601860042012E0154603E089
:102F800053F8140F0006D6D418684005F1D4FDF7A5
:102F9000ADFC401B2368B042F2D958690006EFD45B
:102FA000202000212022216384F83D2084F83E1057
:102FB000226C10432064012084F83C1070BD000096
:102FC0002DE9F04182B001250DF106010DF1070355
:102FD000012204468DF80650009500F0B9F99DF8DD
:102FE0000700002700F0F8004FF081088DF8070077
:102FF0000DF106010DF1070320460122E7618DF86E
:103000000680009500F040FA0A20FDF777FB0DF1ED
:1030100006010DF10703204601228DF806500095A8
:1030200000F096F99DF807600A20FDF767FB46F06F
:1030300080008DF807000DF106010DF10703204611
:1030400001228DF80680009500F01EFA6420FDF73D
:1030500055FB266A8621B0088DF806108DF807000A
:103060000DF106010DF1070320460122009500F045
:103070000BFA0520FDF742FBB00187218DF8061001
:103080008DF807000DF106010DF10703204601221E
:10309000009500F0F9F90520FDF730FB88208DF848
:1030A00006000DF106010DF10703204601228DF8FF
:1030B0000770009500F0E8F90520FDF71FFB94F874
:1030C0002A0089218DF806108DF807000DF1060100
:1030D0000DF1070320460122009500F0D5F90A20E2
:1030E000FDF70CFB94F82B00CD2301462D2898BF4B
:1030F0002D21F02928BFF021A1F12D02D2B25A438F
:103100001E3141F69A135943090C792838BF910AA8
:1031100001F120008B218DF806108DF807000DF1CC
:1031200006010DF1070320460122009500F0ACF9DD
:103130000A20FDF7E3FA8C208DF8060023208DF895
:1031400007000DF106010DF107032046012200954D
:1031500000F09AF91E208DF806000DF106010DF120
:10316000070320460122009500F0F2F89DF80700C1
:103170009E2140F007008DF806108DF807000DF134
:1031800006010DF1070320460122009500F07CF9AD
:103190000A20FDF7B3FA94F82410204600F004F951
:1031A0009F208DF80600FF208DF807000DF1060125
:1031B0000DF1070320460122009500F065F994F80F
:1031C000260094F82510400000EB01109D218DF899
:1031D00006108DF807000DF106010DF107032046DA
:1031E0000122009500F050F994F8240094F825602D
:1031F00005FA00F001F093FC44F61042C0F600021C
:1032000002EBC60292ED000B53EC102B01F0FCFA1E
:1032100001F056FC10284FF02600C8BF01278DF89A
:1032200006000DF106010DF107032046012200956D
:1032300000F08EF89DF80700A62100F0F70040EAA4
:10324000C7008DF806108DF807000DF106010DF18D
:10325000070320460122009500F016F90A20FDF729
:103260004DFA94F82900A0218DF806108DF807007A
:103270000DF106010DF1070320460122009500F033
:1032800003F994F82800A1218DF806108DF80700A5
:103290000DF106010DF1070320460122009500F013
:1032A000F3F840208DF806000DF106010DF107033B
:1032B00020460122009500F04BF89DF80700C02140
:1032C00040F03F008DF806108DF807000DF1060163
:1032D0000DF1070320460122009500F0D5F80DF10D
:1032E00006010DF10703204601228DF806500095D6
:1032F00000F02EF89DF807000DF1060100F0F8002F
:1033000001308DF807000DF1070320460122E56129
:103310008DF80680009500F0B7F80A20E561FDF70A
:10332000EDF942208DF806000DF106010DF10703BD
:1033300020460122009500F00BF89DF807104FF48D
:10334000CA70122908BFC82002B0BDE8F081000091
:103350002DE9F04104461746A2880068069E0D46F6
:10336000114600229846FDF7BBFAA06929463A4665
:103370004FF4FA63FEF7B8FEA069FEF71FFD0128BF
:10338000FAD1A069414632464FF4FA63FEF7ACFD2C
:10339000A069FEF713FD0128FAD12068A188012257
:1033A000BDE8F041FDF79CBAF0B583B00D46044688
:1033B0000C29A8BF0C251E20072DD8BF07258DF886
:1033C0000400012601A90DF1050320460122009603
:1033D000FFF7BEFF9DF805700A20FDF78FF907F093
:1033E0000F0040EA05109E218DF806108DF80700A9
:1033F0000DF106010DF1070320460122009600F0B1
:1034000043F80A20FDF77AF994F8240094F825503F
:1034100006FA00F001F083FB44F61042C0F6000209
:1034200002EBC50292ED000B53EC102B01F0ECF90E
:1034300001F046FB002510284FF02600C8BF0125EB
:103440008DF8080002A90DF109032046012200961B
:10345000FFF77EFF9DF80900A62100F0F70040EA83
:10346000C5008DF80A108DF80B000DF10A010DF161
:103470000B0320460122009600F006F80A20FDF713
:103480003DF903B0F0BD00002DE9F04104461746B8
:10349000A2880068069E0D46114600229846FDF758
:1034A0001FFAA06929463A464FF4FA63FEF71CFE5C
:1034B000A069FEF783FC0128FAD1A0694146324693
:1034C0004FF4FA63FEF710FEA069FEF777FC0128BF
:1034D000FAD12068A1880122BDE8F041FDF700BAC9
:1034E000FEE70000FEE70000704700002DE9F04312
:1034F00081B0089C984615460E468146FDF7F6F9C0
:10350000201A00EB0804FDF7F1F940F20801C2F2BD
:1035100000010968C1F3CB3161430091D9F8001073
:103520008A683240921BB2FA82F25209954203D164
:10353000002001B0BDE8F083074618F101000ED16C
:1035400030E000BF009801380090D9F80000806892
:103550003040801BB0FA80F040098542E8D0FDF78A
:10356000C5F9C01BA04227D200980028EAD1002448
:10357000EBE700BF88683040801BB0FA80F040095C
:103580008542D5D088683040801BB0FA80F0400971
:103590008542CDD088683040801BB0FA80F0400969
:1035A0008542C5D088683040801BB0FA80F0400961
:1035B0008542DFD1BCE700BFD9E900014268B1F51F
:1035C000827F22F0E00242600BD1D9F80810B1F5F9
:1035D000004F02D0B1F5806F03D1016821F04001A6
:1035E0000160D9F82810B1F5005F07D1016821F416
:1035F00000510160016841F400510160012089F827
:103600005100002089F85000032001B0BDE8F0838C
:1036100070470000FDF736BC70B594B007AC20468B
:103620003421FCF774FF002543F640000695CDE9F0
:103630000455CDE902550195C4F202000168022645
:1036400041F080510160006800F0805001900198C5
:1036500047F200000195C4F20000016841F44041C6
:103660000160006800F4404001900198012007903B
:103670004FF4A02008904FF480000E9004200F908B
:10368000A820CDE910060720CDE9120620460D96A8
:10369000FEF7A6F910B172B6FEE700BF0F20CDE924
:1036A00002064FF4A05005904FF48050069002A8F7
:1036B00005210495FEF768F810B172B6FEE700BF69
:1036C00014B070BD4EF68850CEF20000016841F48F
:1036D0007001016070470000B0B50446006804F155
:1036E00008030ECB0569194325F440552A430261AE
:1036F0006269E3691143C268194349F20C639A4352
:103700001143C1604169A26921F4407141F2004353
:10371000114340F48062C4F201039A42416103D133
:10372000FEF7F8F802E000BFFEF7E0F8E1694FF6B7
:103730009C7563681922C0F6FF75B1F5004FA0FBB8
:1037400002011FD15A00DB0FFCF7C6FD48F21F51E2
:10375000C5F2EB11A0FB01235A0905F1805302FBCE
:103760000300322303EBC000A0FB01014FF4F8700B
:1037700000EA111000EB0210C1F342110844216865
:103780008860B0BD9A009B0FFCF7A6FD48F21F5160
:10379000C5F2EB11A0FB01235A0902FB05003223FD
:1037A00003EB0010A0FB0101F02000EA511000EB38
:1037B0000210C1F34311084421688860B0BD0000C5
:1037C00082B002F47F42B2F5807F40F09980826B34
:1037D0004FF6BF7322F480328263C268CFF6BD73A6
:1037E0001A40C260029BC268DBB222F44012012B75
:1037F000C26003D1C26842F48012C260002200920B
:10380000009A01320092009AB2F1706F00F2F080DB
:103810000269002A21D4009A01320092009AB2F182
:10382000706F00F2E5800269002A16D4009A013216
:103830000092009AB2F1706F00F2DA800269002AF9
:103840000BD4009A01320092009AB2F1706F00F22C
:10385000CF800269B2F1FF3FD2DC0A220092009AC7
:10386000AAB100BF009A013A0092009A7AB1009A78
:10387000013A0092009A52B1009A013A0092009ADD
:103880002AB1009A013A0092009A002AEAD102690C
:1038900042F001020261009A01320092009AB2F1F4
:1038A000706F00F2A5800269D20720D0009A013221
:1038B0000092009AB2F1706F00F29A800269D2070A
:1038C00015D0009A01320092009AB2F1706F00F2A6
:1038D0008F800269D2070AD0009A01320092009AC2
:1038E000B2F1706F00F284800269D207D3D14FF039
:1038F000000C01F47F01B1F5803F40F099808FE02A
:10390000C26842F04002C26000220192019A013274
:103910000192019AB2F1706F72D80269002A1ED426
:10392000019A01320192019AB2F1706F68D802696E
:10393000002A14D4019A01320192019AB2F1706FF7
:103940005ED80269002A0AD4019A01320192019AD2
:10395000B2F1706F54D80269B2F1FF3FD6DC0A228F
:103960000192019AAAB100BF019A013A0192019A0B
:103970007AB1019A013A0192019A52B1019A013A3F
:103980000192019A2AB1019A013A0192019A002A00
:10399000EAD1026942F001020261019A0132019208
:1039A000019AB2F1706F2BD80269D2071DD0019A2B
:1039B00001320192019AB2F1706F21D80269D207E7
:1039C00013D0019A01320192019AB2F1706F17D8A7
:1039D0000269D20709D0019A01320192019AB2F12B
:1039E000706F0DD80269D207D7D14FF0000C09E0F3
:1039F0004FF0030C01F47F01B1F5803F18D10FE0C7
:103A00004FF0030C826B13F47F4F14BF22F480320B
:103A100042F48032826301F47F01B1F5803F07D127
:103A2000816841F006018160816841F02001816078
:103A3000604602B0704700000146D0F8000E20F04A
:103A40000300C1F8000ED1F8040840F00202002083
:103A5000C1F80428704700002DE9F04F86B0C3F389
:103A6000074516468E460021C0F80411C0F808111B
:103A7000C0F80C11C0F81011C0F81411C0F81811DA
:103A8000C0F81C11C0F82011C0F82411C0F828118A
:103A9000C0F82C11C0F83011C0F83411C0F838113A
:103AA000C0F83C1125B100F138014FF400120FE0CD
:103AB000D0F80418802241F00201C0F80418816B8C
:103AC00021F400118163016841F040010160014669
:103AD0000B681A430A6006F47F420021B2F5807F2A
:103AE000C0F8001E08D1D0F80028B1EB1E6F09D134
:103AF000C0F800280AE000BFD0F8001841F0030128
:103B000002E000BF42F00101C0F80018002104915A
:103B10000499013104910499B1F1706F52D801698F
:103B200000291ED40499013104910499B1F1706FF8
:103B300048D80169002914D40499013104910499E9
:103B4000B1F1706F3ED8016900290AD4049901319E
:103B500004910499B1F1706F34D80169B1F1FF3F5C
:103B6000D6DC002104914FF4846101610499013194
:103B700004910499B1F1706F24D8016989061DD5AB
:103B80000499013104910499B1F1706F1AD8016957
:103B9000890613D50499013104910499B1F1706F2C
:103BA00010D80169890609D5049901310491049955
:103BB000B1F1706F06D801698906D7D44FF0000AB9
:103BC00002E000BF4FF0010A002105910599013183
:103BD00005910599B1F1706F4ED8016900291ED485
:103BE0000599013105910599B1F1706F44D80169CA
:103BF000002914D40599013105910599B1F1706F2F
:103C00003AD8016900290AD405990131059105992D
:103C1000B1F1706F30D80169B1F1FF3FD6DC0021FE
:103C20000591102101610599013105910599B1F1C5
:103C3000706F21D80169C90620D505990131059118
:103C40000599B1F1706F17D80169C90616D50599A4
:103C5000013105910599B1F1706F0DD80169C9065F
:103C60000CD50599013105910599B1F1706F03D813
:103C70000169C906D7D401E04FF0010A5FFA8EF955
:103C80004FF00008B9F1000FC0F81088C0F8148890
:103C9000C0F81C8800F00D81CDF80CA0CDE9015EC4
:103CA000D0F800194FF0006404EA11114FF67F3587
:103CB000B9F1010BC0F80019C0F81089C0F8085913
:103CC00074D0A9F1020103290BF0030A04D20121E7
:103CD000BAF1000F40D169E000962BF0030700F520
:103CE000186600234FF0904C4FF67F324FF0000ED5
:103CF00056F8601C0EF1040E0CEAE17146F8601CE7
:103D000046F8503C46F8582C56F8401C77450CEACB
:103D1000E17146F8401C46F8303C46F8382C56F81D
:103D2000201C0CEAE17146F8201C46F8103C46F8CD
:103D3000182C31680CEAE17131603361B26006F130
:103D40008006D5D1009E0EF101014FF67F354FF070
:103D50000064BAF1000F29D000F510634F01B4469A
:103D6000DE594FF0904202EAE67603EB4111DE5154
:103D7000664600274FF67F33BAF1010F0F618B6063
:103D800014D00E6ABAF1020F02EAE67266460A62BF
:103D90000F638B620AD00A6C4FF0904303EAE27221
:103DA0000A6400220A654FF67F328A64D0F8001B4D
:103DB000BBF1000F04EA1111C0F8001B4FF0000125
:103DC000C0F8101BC0F8085BDDE9015EDDF80CA04F
:103DD0006FD0A9F1020103290BF0030C04D20121D9
:103DE000BCF1000F3BD164E0A94600962BF003051F
:103DF00000F5386600234FF090474FF67F320021E0
:103E000056F8604C043107EAE47446F8604C46F812
:103E1000503C46F8582C56F8404C8D4207EAE47462
:103E200046F8404C46F8303C46F8382C56F8204CC2
:103E300007EAE47446F8204C46F8103C46F8182C83
:103E4000346807EAE47434603361B26006F18006D6
:103E5000D6D1009E01314D46BCF1000F29D000F5AE
:103E600030634F013446DE594FF0904202EAE67665
:103E700003EB4111DE51264600274FF67F33BCF19C
:103E8000010F0F618B6014D00E6ABCF1020F02EAC1
:103E9000E67226460A620F638B620AD00A6C4FF004
:103EA000904303EAE2720A6400220A654FF67F3209
:103EB0008A64D0F810181EF47F0F21F48071C0F8C6
:103EC00010186FF08041C0F81880416103D18169FA
:103ED00041F010018161816943F60002C8F23C02A1
:103EE000114316F47F0F816103D0816941F008010D
:103EF0008161012D05D1816941F0804141F00401CA
:103F00008161504606B0BDE8F08F00000146806830
:103F100020F0010200208A6070470000B0B504461E
:103F2000C068002920F0C040E06000F099800129BD
:103F300040F0B080E0680A2540F00050E0600A20C0
:103F4000FCF7DCFB54F8140FC00740F09C800A20FB
:103F5000FCF7D4FB2068C00740F09E800A20FCF7E5
:103F6000CDFB2068C00740F0A5800A20FCF7C6FB07
:103F70002068C00740F0AC800A20FCF7BFFB206837
:103F8000C00740F0B3800A20FCF7B8FB2068C007E8
:103F900040F0BA800A20FCF7B1FB2068C00740F06F
:103FA000C1800A20FCF7AAFB2068C00740F0C88047
:103FB0000A20FCF7A3FB2068C00740F0CF800A204E
:103FC000FCF79CFB2068C00740F0D6800A20FCF775
:103FD00095FB2068C00740F0DD800A20FCF78EFBCF
:103FE0002068C00740F0E4800A20FCF787FB2068C7
:103FF000C00740F0EB800A20FCF780FB2068C00778
:1040000040F0F2800A20FCF779FB2068C00740F0FE
:10401000F9800A20FCF772FB2068C00740F000819D
:104020000A20FCF76BFB2068C00740F007810A20DC
:10403000FCF764FB2068C00740F00E810A20FCF703
:104040005DFB2068C00740F016810A20FCF756FB94
:104050002068C825A5F1C800B0FA80F04009B0BDBD
:10406000E0680A2540F08040E0600A20FCF746FB4B
:1040700054F8140FC00706D00A20FCF73FFB206855
:10408000C00711D11425A5F1C800B0FA80F040098D
:10409000B0BD00BF0120B0BD1425A5F1C800B0FA25
:1040A00080F04009B0BD00BF0A20FCF727FB206864
:1040B000C00707D11E25A5F1C800B0FA80F040095D
:1040C000B0BD00BF0A20FCF719FB2068C00707D16C
:1040D0002825A5F1C800B0FA80F04009B0BD00BFA6
:1040E0000A20FCF70BFB2068C00707D13225A5F199
:1040F000C800B0FA80F04009B0BD00BF0A20FCF74C
:10410000FDFA2068C00707D13C25A5F1C800B0FA28
:1041100080F04009B0BD00BF0A20FCF7EFFA20682C
:10412000C00707D14625A5F1C800B0FA80F04009C4
:10413000B0BD00BF0A20FCF7E1FA2068C00707D134
:104140005025A5F1C800B0FA80F04009B0BD00BF0D
:104150000A20FCF7D3FA2068C00707D15A25A5F139
:10416000C800B0FA80F04009B0BD00BF0A20FCF7DB
:10417000C5FA2068C00707D16425A5F1C800B0FAC8
:1041800080F04009B0BD00BF0A20FCF7B7FA2068F4
:10419000C00707D16E25A5F1C800B0FA80F040092C
:1041A000B0BD00BF0A20FCF7A9FA2068C00707D1FC
:1041B0007825A5F1C800B0FA80F04009B0BD00BF75
:1041C0000A20FCF79BFA2068C00707D18225A5F1D9
:1041D000C800B0FA80F04009B0BD00BF0A20FCF76B
:1041E0008DFA2068C00707D18C25A5F1C800B0FA68
:1041F00080F04009B0BD00BF0A20FCF77FFA2068BC
:10420000C00707D19625A5F1C800B0FA80F0400993
:10421000B0BD00BF0A20FCF771FA2068C00707D1C3
:10422000A025A5F1C800B0FA80F04009B0BD00BFDC
:104230000A20FCF763FA2068C00707D1AA25A5F178
:10424000C800B0FA80F04009B0BD00BF0A20FCF7FA
:1042500055FA2068C00707D1B425A5F1C800B0FA07
:1042600080F04009B0BD00BF0A20FCF747FA206883
:10427000C0077FF4EAAEBE25A5F1C800B0FA80F011
:104280004009B0BDFEE7000080B584B0002302689D
:1042900001798DF80F3001200DF10F034FF0640C00
:1042A000CDE90030104623220123CDF808C0FCF7E9
:1042B00001FD3220FCF722FA04B080BD86B040F246
:1042C0000048C4F20208FCF7EBFDFFF7A5F9002453
:1042D00043F630000594CDE90344CDE90144009450
:1042E000C4F202000168A8F5806641F00401016093
:1042F0000168012201F00401009100990094016815
:104300004FF0100B41F02001016001684FF00109EE
:1043100001F02001009100990094016841F08001B2
:104320000160016801F0800100910099009401682A
:1043300041F001010160016801F001010091009963
:104340000094016841F002010160016801F002017E
:10435000009100990094016841F008010160016832
:1043600001F00801009100990094016841F04001BA
:1043700001600068102100F0400000900098304675
:10438000FCF7AEFA404644F281010022FCF7A8FA9D
:1043900008F5A055284640210022FCF7A1FA404626
:1043A00010210122FCF79CFA4FF4005001AF01905C
:1043B0004FF4881A08F580603946CDE902A4FCF76D
:1043C000BFF930463946CDE901B9CDE90344FCF7E0
:1043D000B7F944F29100CDE9010940463946CDE9EB
:1043E0000344FCF7ADF94FF48050CDE9010A08F51C
:1043F000805039460394FCF7A3F94020CDE9010928
:1044000028463946CDE90344FCF79AF98020CDE9E6
:104410000104284639460394FCF792F9282000212C
:104420000022FCF7ABFD2820FCF796FD40F2E0509F
:10443000A8F55441C2F200004FF482724FF40073A9
:10444000182780E816000A21C0E90344C0E90543A3
:10445000C761C0E90844C0E90A41FDF7B3FC18B1DF
:1044600072B600BFFEE700BF40F23860A8F5DE314B
:10447000C2F200000C234FF4E13280E81600C0E9DC
:104480000344C0E90534C461FEF71EF910B172B6E9
:10449000FEE700BF40F2FC00C2F200004FF0A04176
:1044A0000160062101714FF40071C1804FF48171E8
:1044B000C0F809100121C181FCF7B0FD10B172B63E
:1044C000FEE700BF40F2A800A8F5D631C2F2000016
:1044D00048F2A06200234FF48047C0F2010280E856
:1044E0000E00C0E90337C0E90533C0E90733FCF724
:1044F00003FA18B172B600BFFEE700BF00F02AF859
:10450000FEE7000040F2B111016240F207718184C0
:10451000012180F826100821C6F2FF418162704710
:1045200080B584B0026803798DF80F1001200DF179
:104530000F014FF0640CCDE90010104619462222FD
:104540000123CDF808C0FCF7B5FB3220FCF7D6F804
:1045500004B080BD2DE9F0438FB040F28069C2F213
:1045600000090A20A9F8080046F6741047F25341E2
:10457000C6F26E70C7F26121C9E900104846FBF728
:10458000A7FF82B240F23860C2F2000049466423BD
:10459000FEF706F90DF110084046FFF7B3FF0DF1E5
:1045A000100E40F270009EE80250C2F20000DDE9F9
:1045B0000C52079F40F80C1FDDE90816DDE90A439D
:1045C000C0E908520022C4F20202C0E903711021BE
:1045D00080E80450C0E90564C3618180818102F5EF
:1045E000A05101614FF48051818240F2E051C2F24A
:1045F0000001816140F29331016240F207718184D0
:10460000012180F82610082102F58063C8F2FC2100
:1046100083608162FEF7D4FCC82813D1002089F89A
:104620000C0047F6641045F2202146F64C72C0F6A5
:104630000D20C6F26511C6F25212C9E90021C9F86F
:1046400008000FE0524852A10F1D8CCFD1E904653C
:1046500089E88D00088B897EC9E90465A9F81800EE
:1046600089F81A1040F28065C2F200052846FBF76F
:104670002FFF82B240F23860C2F200002946642364
:104680006424FEF78DF840F2700640F2A807C2F2EB
:104690000006C2F20007304639462022FCF714F823
:1046A0003046FFF7F1FD6420FCF728F80120CDE942
:1046B0000080384620211E2201230294FCF7CEF907
:1046C000E0B13AA14A6AD1E90730DFF8E0C0D1E9A8
:1046D0000189D1E90376D1E9054EC5E9080291F8CF
:1046E0002A00098DC5E900C8C5E90297C5E9046437
:1046F000C5E906E385F82A00298536E09DF81020F3
:10470000202A2BD144F67841C0F600012846202209
:10471000FBF75AFE2846FBF7DBFE82B240F2386018
:10472000C2F2000029466423FEF73AF840F2700016
:10473000C2F200000721FFF7F3FE6420FBF7DEFF63
:104740000020287246F6207044F64761C0F66E20BD
:10475000C5F25331C5E9001007E000BF40F28060A8
:10476000C2F200001CA1FBF72FFE40F28064C2F2EF
:1047700000042046FBF7ACFE82B240F23860C2F281
:10478000000021466423FEF70BF80FB0BDE8F0836C
:104790004572726F7220696E204C6F526120636F98
:1047A0006E6E656374696F6E0D0A00004572726FFC
:1047B0007220696E20636F6E6E656374696F6E2020
:1047C0002D20646576696365206E6F74206465745E
:1047D00065637465640A00004465766963652061F9
:1047E000646472657373206973202564202D2057DB
:1047F000726F6E67206465766963652061646472B8
:104800006573730A000000002DE9C04130B4DFF881
:10481000A8C23CEA111418BF3CEA131400F0F0805F
:104820001CEA111481EA030544EAD57418BF1CEA96
:10483000131500F0CB80A4EB050404F17F7404F59C
:1048400000344FF0004545EAC12145EAC32341EA5F
:10485000505143EA52534FEAC0204FEAC2229942D4
:1048600008BF904200F0A0804FEA13650FF248168F
:10487000765D4FEA134506FB05F7C7F1807706FB27
:1048800007F74FEAD737A7FB03687642A7FB06CEA8
:10489000C8F5803838BFA8F1010807FB08E6A6FB79
:1048A000028C4FF0000EE6FB03CED8F100086FEA51
:1048B0000C0C5CF1000C6FEA0E0E4EF1004EA6FBE4
:1048C0000C584FF00007E6FB0E87A1FB08C6A0FBC3
:1048D00007CE16EB0E064FF0000545F10005E1FB93
:1048E000076515F1E04E7EBFA4F580345FEA460609
:1048F0006D4116F1800745F100054FEA172747EA99
:1049000005674FEA15254FEA0666A6F1DE46B6F1C1
:10491000805F20D9384605EBC47124F0010C01EB0F
:104920000C11BCF1FE6F02D8F0BCBDE8008124423E
:104930005CBF01F5801E9EEAC47F02D4F0BCBDE8D6
:104940000081244200F13980A1F1C041F0BCBDE8F2
:10495000004100F049B94FEAD02040EA41504FEA07
:10496000D1214FEAD22242EA43524FEAD323A7FB96
:10497000028607FB036605FB02661EEA0E0F58BFA0
:10498000A6EB0056B6EB00564FEA520E4EEAC37E37
:1049900018EB0E0E56EB530EBCD518EB02085E4119
:1049A0007F1C55F10005B5E74FF480154FF0000767
:1049B0004FF000064FF00008ACE701F1C04101F0F4
:1049C00000414FF00000F0BCBDE800810CEA131577
:1049D00011EA0C1F00D00CE013EA0C1F00F0258038
:1049E0004FF0000081EA030101F00041F0BCBDE896
:1049F0000081F0BCBDE8004181EA030100F0F4B899
:104A0000F0BCBDE8004170B500F0A0F8097EFC3EA6
:104A100000F007B84FF0000081EA030101F0004107
:104A2000704781EA030100F0DFB8F0BCBDE8004147
:104A300022494FF000007047FFFDFBF9F7F5F4F253
:104A4000F0EEEDEBE9E8E6E4E3E1E0DEDDDBDAD829
:104A5000D7D5D4D3D1D0CFCDCCCBCAC8C7C6C5C487
:104A6000C2C1C0BFBEBDBCBBBAB9B8B7B6B5B4B39E
:104A7000B2B1B0AFAEADACABAAA9A8A8A7A6A5A489
:104A8000A3A3A2A1A09F9F9E9D9C9C9B9A9999984D
:104A90009797969595949393929191908F8F8E8EF0
:104AA0008D8C8C8B8B8A898988888787868585847D
:104AB00084838382828181800000FF070000F87F69
:104AC0004FEA41034FEA5353A3F58063D3F11E032A
:104AD000C8BFD3F1210C0CDD4FF0004242EAC122E5
:104AE00042EA505232FA03FC8CEAE17CACEBE17012
:104AF0007047102BC4BF0020704703F5787CBCF1D1
:104B0000FF3F04D06FF0004282EA2100704770B589
:104B100000F01CF84992248000207047F2E710F062
:104B2000004248BF4042B0FA80F310FA03F10AD0C5
:104B3000C3F11D0303F5806302EB03524FEA4150BA
:104B400002EBD12170474FF0000070470EF1020ECA
:104B50002EF0030E5EF8046B364205D4012A43EBB7
:104B6000030515F5001F12D8012841EB010C1CF5B7
:104B7000001F0CD80ED14FEAD17C0CEB4C0C0CF181
:104B8000020C15F5001F08BF4CEBD37C04E04FF07E
:104B9000080C01E04FEAD37C0CEB4C0526FA05F635
:104BA00006F00706B6F1040C06D20EEB860CBDE843
:104BB00070404CF0010C6047DFE80CF0090B02027A
:104BC0004FF00041A1F500214FF0000070BD1946E3
:104BD0001046012851EB010418BFD4F5001484BF1E
:104BE000002001F0004170BD0808A0F500114FEA57
:104BF00031017047F1EE100A4FF6FF71C0F2C0317B
:104C000020EA010040F04070E1EE100A7047000019
:104C10003333333333331F40CDCCCCCCCCCC2440D6
:104C20003333333333332F40CDCCCCCCCCCC3440A6
:104C30000000000000403F409A99999999D944405A
:104C40000000000000404F400000000000405F40B6
:104C50000000000000406F400000000000407F4066
:104C6000000000000000000001020304060708091C
:104C70000000000001020304446576696365206159
:104C8000646472657373206973202564202D204746
:104C90004E53532064657465637465640A000000B4
:104CA000C04C00080000002010000000280200088E
:104CB000D04C000810000020D80C0000480200086A
:104CC00001000000100000000024F40000000000BB
:04000005080001C529
:00000001FF
