:020000040800F2
:10000000480E0020BD020008295F0008513A000890
:10001000255F00089D0F0008C96C00080000000063
:100020000000000000000000000000005560000813
:10003000A10F0008000000002D5F000859600008B3
:10004000D7020008D7020008D7020008D70200082C
:10005000D7020008D7020008D7020008D70200081C
:10006000D7020008D7020008D7020008D70200080C
:10007000D7020008D7020008D7020008D7020008FC
:10008000D7020008D7020008D7020008D7020008EC
:10009000D7020008D7020008D7020008D7020008DC
:1000A000D7020008D7020008D7020008D7020008CC
:1000B000D7020008D7020008D7020008D7020008BC
:1000C000D7020008D7020008D7020008D7020008AC
:1000D000D7020008D7020008D7020008D70200089C
:1000E000A50F0008D7020008D7020008D7020008B1
:1000F000D7020008D7020008D7020008D70200087C
:10010000D7020008D7020008D7020008D70200086B
:10011000D7020008D7020008D7020008D70200085B
:10012000D7020008D7020008D7020008D70200084B
:10013000D70200080000000000000000D7020008FD
:10014000D7020008D7020008D7020008D70200082B
:10015000D7020008D7020008D7020008D70200081B
:10016000D7020008D7020008D7020008D70200080B
:10017000D7020008D7020008D702000800000000DC
:1001800000000000D702000800000000000000008E
:10019000D70200080000000000000000D70200089D
:1001A000000000000000000000000000D70200086E
:1001B000D7020008D7020008D7020008D7020008BB
:1001C000D702000800F002F800F068F814A696E8DC
:1001D000000CB244B344DA4501D100F05FF8BAE84C
:1001E0000F000FA696E83000A5EB040504EB060708
:1001F000AAEB0704A7F101074FEA15154FEA3414DB
:10020000A4F10104AC4201D300F048F813F0010F4F
:1002100018BFFB1A43F0010300F001F8DBE71847B1
:1002200098A10000B8A10000103A24BF78C878C196
:10023000FAD8520724BF30C830C144BF04680C60EC
:1002400070470000704700000023002400250026AE
:10025000103A28BF78C1FBD8520728BF30C148BF29
:100260000B607047662909F0E080642900F01C816A
:10027000632900F01085732900F015850020704770
:100280001FB509F0C5F800F013FD0400002000219F
:1002900008F008FDE0601FBD10B510BD00F008FEBD
:1002A0001146FFF7EDFF06F011FD00F026FE03B446
:1002B000FFF7F2FF03BC00F069FE00000948804729
:1002C00009480047FEE7FEE7FEE7FEE7FEE7FEE738
:1002D000FEE7FEE7FEE7FEE704480549054A064B50
:1002E0007047000009610008C501000848080020A7
:1002F000480E0020480A0020480A002053EA020C59
:1003000000F069802DE9F04B4FF00006002B1FBF75
:10031000B3FA83F503FA05F424FA05F65E4012BF3A
:100320001643B2FA82F502FA05F4C5F120051EBFA4
:1003300022FA05FC44EA0C04203556EA044C4FEA44
:10034000144418BF641C4FF000084FF0000990429D
:1003500071EB030C39D3002919BFB1FA81F701FA07
:1003600007F6B0FA80F700FA07F6C7F120071EBFBC
:1003700020FA07FC46EA0C062037B6FBF4FCA7EB94
:100380000507103F07F01F0BCBF120062CFA06F6ED
:100390000CFA0BFB44BFB3460026202FA4BF5E46D9
:1003A0004FF0000B5BEA060C08BF4FF0010B19EB96
:1003B0000B0948EB0608ABFB027C06FB02CC0BFBEF
:1003C00003CCC01B71EB0C01C1E70B460246414652
:1003D0004846BDE8F08B13B5084318BF4FF0FF3017
:1003E0000146AFF30080BDE81C4070470FB41CB558
:1003F000074B06AA7B4469460090059800F021FC53
:100400000020694600F030FC1CBC5DF814FB0000C5
:10041000710800000FB41CB50C0007AA009007D0AB
:100420004142A14202D32044401E01E04FF0FF3080
:10043000074B7B4469460190069800F002FC0020BF
:10044000002C01D0009908701CBC5DF814FB000062
:100450003D08000070B50C460546012A05D02878F5
:10046000800600D5EA69002302E0012305E05B1C59
:10047000934202D2E05C0028F9D1A869E618C01ABC
:10048000A861286A184428622846AFF3008004E077
:10049000D5E9012114F8010B9047B442F8D328465E
:1004A000AFF3008070BD00002DE9F0410646002446
:1004B00010687529314616A510D0AFF300800028CA
:1004C00002DA404213A507E031688A0701D512A578
:1004D00002E0490704D511A5012401E0AFF3008033
:1004E00000210A2206F1240709E0B0FBF2FCB0FB70
:1004F000F2F302FB1C00303078541846491C0028E7
:10050000F3D123462A463046BDE8F04100F02CB92D
:10051000000000002D0000002B0000002000000063
:100520002DE9F0474FF0000A89460446C0F820A0A4
:100530002046E1688847002876D0252806D0D4E9EF
:1005400001219047206A401C2062F1E7E1682046C3
:1005500000258847C4F81CA006460027C4F818A048
:100560002A2E09D0304608F095FB38B304EB8708F3
:10057000303EC8F8186019E059F8041B204604EB17
:1005800087029161E1688847012F064618D1E0692A
:10059000002820DA25F020051DE0D8F8180000EB2F
:1005A000800006EB40003038C8F818002046E168AB
:1005B0008847064608F06EFB0028EED1012F0AD0CE
:1005C0002E2E08D12046E16888477F1C0646022F60
:1005D00045F02005C4DBA069002803DA404245F05D
:1005E0000105A061E80701D025F01005B6B1A6F11C
:1005F0004100192802D8203645F400654A463146A4
:10060000204625604D46FFF72DFE58B1012806D043
:10061000ED1D25F0070000F1080989E704E005F168
:10062000040985E730468AE7206ABDE8F08710B5FF
:10063000431C02E010F8011B71B18107FAD14FF0A1
:10064000013202C88C1A8C4314EAC211F9D0C01AC4
:100650000A0603D0C01E10BDC01A10BD0A0401D086
:10066000801E10BD0902FCD0401E10BD10B5203AFE
:10067000C0F00B80B1E81850A0E81850B1E818504D
:10068000A0E81850203ABFF4F5AF5FEA027C24BF1F
:10069000B1E81850A0E8185044BF18C918C0BDE808
:1006A00010405FEA827C24BF51F8043B40F8043BD1
:1006B00008BF7047D20728BF31F8023B48BF11F886
:1006C000012B28BF20F8023B48BF00F8012B7047E0
:1006D0004FF000020429C0F0128010F0030C00F06B
:1006E0001B80CCF1040CBCF1020F18BF00F8012BE9
:1006F000A8BF20F8022BA1EB0C0100F00DB85FEAB7
:10070000C17C24BF00F8012B00F8012B48BF00F882
:10071000012B70474FF0000200B5134694469646F1
:10072000203922BFA0E80C50A0E80C50B1F1200104
:10073000BFF4F7AF090728BFA0E80C5048BF0CC0B2
:100740005DF804EB890028BF40F8042B08BF704710
:1007500048BF20F8022B11F0804F18BF00F8012B82
:1007600070477047704770472DE9F0470D4699462E
:100770009246044600F124080168880604D5E06921
:1007800021F01001216000E00120A84201DD471B9B
:1007900000E00027A1697A1902EB0900081AA0619C
:1007A0002078C00602D42046AFF30080002608E07F
:1007B000D4E901211AF806009047206A401C761CF3
:1007C00020624E45F4DB2078C0060AD52046AFF300
:1007D000008006E0D4E9012130209047206A401CC7
:1007E0002062381EA7F10107F4DC07E0D4E90121FB
:1007F00018F805009047206A401C2062281EA5F1C9
:100800000105F3DC2046AFF300802078000602D516
:100810000220BDE8F0870120FBE72DE9FF4F0C46E1
:100820001E464FF0FF378BB0D2E90001DDF8608043
:100830000A908A46C1F30A5505B93D46002108468B
:100840004FF00000BAF1000F00F4400005DA00EBB1
:1008500080004FF4400101EA50004FEA9059B9F18D
:10086000010F00DDB9460A9850EA4A000ED044F65E
:100870001050A5F2FF3545432F14B8F1000F1ED0DC
:100880007542291E1EDDC9F100021CE0B8F1010FFE
:100890004FF0000001D0302103E0F24305E0215485
:1008A000401CB042FBDB30460022002121540B9952
:1008B000C1F80880C1E900200FB0BDE8F08FBD1B72
:1008C0006D1CDEE74A4600DA694206A800F07AFAB3
:1008D00006AB93E8070003AB83E8070050460A998C
:1008E00007F0F7FD8DE80700A0F500501F380090D5
:1008F0000398002D0ADD42F21F014A4608440023F6
:1009000003A90390684608F061F809E0A0F50050DB
:100910004A461F38002303A90390684608F06BF885
:100920008DE807000004000C03D04FF0FF304108B1
:1009300000E01046B8F1000F03D0002200921546E7
:100940001EE0751E05D400F0B7F9303262556D1EF9
:10095000F9D5B3460122084302D000227F1C04E0EF
:100960002078302801D100227F1E002A099784D0E8
:100970001DE0112D07DA00F09FF9303262556D1C31
:1009800050EA0102F5D1084302D00098C8B10EE048
:100990000021681E05E0235C625C63542254401E03
:1009A000491C8142F7DBAB46A81B401E0990002082
:1009B00004F80B000B98099AC0F80880C0E9002BD6
:1009C0007AE711264FF0000857E72DE9F04F8846E7
:1009D0000446D21D22F0070191B0D1E90001CDE912
:1009E0000A0108F03FF902460B98C00F01D02D20F4
:1009F00007E02068810701D52B2002E0202101EAD1
:100A0000C000032A099001D0072A05DB03464146AE
:100A1000204600F097F90BE12078800601D5E069C7
:100A200000E00620B8F1650F814606D0B8F1660FE8
:100A300018D0B8F1670F70D131E00020B9F1110F73
:100A4000009001DB112301E009F101030AAA01A9C9
:100A50000CA8FFF7E2FEDDE90C70002609F10105A4
:100A6000834647E001204B4600904FF000470AAA1A
:100A700001A90CA8FFF7D1FEDDE90DB00C995D4688
:100A8000002610B909F101000D18B9EB050003D4D7
:100A9000C0F1FF3609F10105A5EB09002BE0B9F122
:100AA000010F01DA4FF001090020B9F1110F009098
:100AB000484601DD112300E003460AAA01A90CA85B
:100AC000FFF7ABFEDDE90C704D460026834620782B
:100AD00000070AD4AB4500DA5D4601A8012D04DD0C
:100AE000411911F8011C302907D04F4502DA17F1DE
:100AF000040F04DA012082460FE06D1EEEE7002F9E
:100B000002DCED1B3E4403E0781CA84200DD7D1CA6
:100B1000B81B00F1010A4FF000472078000703D40A
:100B2000AA4501DB4FF0FF3A0021B7F1004F0DF16C
:100B300043088DF8431024D002202B23002F01DA24
:100B40007F422D230A21021EA0F1010000DC5FB1CB
:100B500097FBF1FC97FBF1F201FB1C7C17460CF1B3
:100B6000300C08F801CDEEE7A8F1010003702188F0
:100B7000090501D5452100E06521A0F1010800F833
:100B8000011C09980FA9A1EB0807FF1D00B1012066
:100B9000411901EBEA70A1693844081A401EA061AE
:100BA0002078C00602D42046AFF30080099828B10F
:100BB000D4E901219047206A401C20622078C006B9
:100BC00022D52046AFF300801EE0002E04DBB345A3
:100BD00002DD01A8805D00E03020D4E901219047CA
:100BE000206A401C2062761CAAF101005FEA000A1C
:100BF0000AD100F05DF8C0680168405CD4E90121C9
:100C00009047206A401C2062281EA5F10105DCDC0B
:100C100007E0D4E9012118F8010B9047206A401C35
:100C20002062381EA7F10107F3DC2046AFF30080F5
:100C3000032011B041E6000001694A1C02610878F6
:100C4000704700B58FB0CDE901310021059105490C
:100C50007944CDE9031011466846FFF761FC0FB0F7
:100C600000BD0000E5FFFFFF0A6802F8010B0A6003
:100C70007047D1E900239A4202D2531C0B601070D6
:100C8000704710B5436913B1AFF3008001E0FFF77F
:100C9000E1FB012010BD127800F124010A7000224E
:100CA0004A700122EDE711684FF0FF32E9E70000DA
:100CB000004870473800002030B5B0F10A0271F1E9
:100CC00000034FEA900E4EEA817EB0EB0E0061EB1E
:100CD00091014FEA101E4EEA017E10EB0E0041EB2F
:100CE00011114FEA102E4EEA016E10EB0E0041EB8F
:100CF00011214FEA104E4EEA014E10EB0E0041EB6F
:100D00001141401841F100014FEAD00040EA417022
:100D10004FEAD1014FEA810444EA907410EB800558
:100D200044EB01046D1944EB0404521BA3414FF042
:100D3000000348BF0A3200D530BD401C41F100011C
:100D400030BD00002DE9F0411F460446032601682E
:100D5000072A01F4006004DB08B116A505E016A51A
:100D600003E008B115A500E015A521F010002060F2
:100D7000A069C01EA0610FB1401EA0612046AFF364
:100D800000804FB1D4E9012138469047206A401CC9
:100D90002062C01C206206E0206AFAE7D4E9012143
:100DA00015F8010B9047761EF8D22046AFF300806D
:100DB000BDE8F0814E414E006E616E00494E460026
:100DC000696E66002DE9F047814616468AB03548BF
:100DD00078440DC88DE80D0032487844801C03AC7F
:100DE0000DC884E80D0041F69B300844372190FB84
:100DF000F1F290FBF1F5A5F1800501FB12041B3C1B
:100E000002D56442012000E00020DFF898A080466F
:100E10000027FA44AAF1BE0A0EE0E0070AD03246E3
:100E2000684607EB470101230AEB810107F0E3FD68
:100E30008DE8070064107F1C002CEED1194F7F4411
:100E4000AE3F19E0E80715D007EB04100DF1180AC2
:100E500090E80E008AE80E00C068F04201D19819AF
:100E600008903246012306A903A807F0C4FD03AB8E
:100E700083E807006D10641C002DE3D14FF00103DF
:100E800032466946B8F1000F03A802D007F09EFD74
:100E900001E007F0B0FDC9E90001C9F808200AB077
:100EA000BDE8F087D8860000004870471800002091
:100EB0007546FFF7F9FFAE4605006946534620F038
:100EC0000700854618B020B5FFF706FABDE82040B8
:100ED0004FF000064FF000074FF000084FF0000BF6
:100EE000AC46ACE8C009ACE8C009ACE8C009ACE865
:100EF000C00921F007018D46704710B50446AFF3D5
:100F000000802046BDE81040FFF7D1B90000000086
:100F100030B44FF0013C50F8042B51F8043BCCFAAC
:100F200052F4D51A20D1FCB950F8042B51F8043BE7
:100F3000CCFA52F4D51A17D1B4B950F8042B51F8A1
:100F4000043BCCFA52F4D51A0ED16CB950F8042BEC
:100F500051F8043BCCFA52F4D51A05D1002CDAD062
:100F600030BC4FF00000704729BAB1FA81F111F09E
:100F70001801D1F120008440F2D1CA40CB4012F0D8
:100F8000FF0213F0FF0330BCD01A7047014918204C
:100F9000ABBEFEE72600020070470000FEE700003F
:100FA0007047000080B54FF4805000F041FB4FF4D3
:100FB0000050BDE8804000F03BBB000072B600BFAF
:100FC000FEE70000000000002DE9F04F85B00D465F
:100FD00038218146FFF79EFB286829790DF10E061E
:100FE000072201234FF0640B4FF0060A8DE8400CF6
:100FF000012400F0C1FDB8BB9DF811109DF8102030
:1010000009029DF80E0041EA02419DF812209DF868
:101010000F7001EB020808F0A5F8064638460C46AA
:1010200008F0A0F89FED880B53EC102B07F0F8FEAA
:101030003246234607F04CFE044640460F460DF16B
:101040000E0608F08FF89FED820B53EC102B07F083
:10105000E7FE02460B4620463946012407F038FEDB
:1010600041EC100B89ED000B2868297909F1100279
:10107000CDE9002412220123CDF808B000F07CFD58
:10108000286829790D220123CDE9006ACDF808B03E
:1010900000F072FDB0BB9DF811109DF81020090200
:1010A0009DF80E0041EA02419DF812209DF80F4084
:1010B000B24601EB020808F055F8074620460E46F6
:1010C00008F050F89FED600B53EC102B07F0A8FED2
:1010D0003A46334607F0FCFD044640460F46564666
:1010E00008F040F89FED5A0B53EC102B07F098FED8
:1010F00002460B462046394607F0EAFD41EC100B4C
:1011000089ED020B2868297909F11102012464276D
:10111000CDE900240C220123029700F02DFD0022CE
:101120004B462868297903F8302FCDE90034132283
:101130000123029700F020FD286829794FF0030B66
:1011400014220123CDE9006B029700F015FDF0B9E0
:101150009DF80E009DF80F1000F07F009DF81040E4
:1011600041EA002007F0FEFF804620468A4607F04D
:10117000F9FF9FED390B53EC102B07F051FE42465F
:10118000534607F0A5FD41EC100B89ED060B2868CE
:10119000297917220123CDE9006B029700F0ECFCBE
:1011A000F0B99DF80E009DF80F1000F07F009DF83B
:1011B000104041EA002007F0D5FF804620460F4648
:1011C00007F0D0FF9FED240B53EC102B07F028FE07
:1011D00042463B4607F07CFD41EC100B89ED080BC5
:1011E0002868297903226427CDE900621A220123A5
:1011F000029700F0C1FC18B105B0BDE8F08F00BF48
:101200009DF80E009DF80F1000F07F009DF8104033
:1012100041EA002007F0A6FF054620460E4607F0EB
:10122000A1FF9FED0D0B53EC102B07F0F9FD2A46A3
:10123000334607F04DFD41EC100B89ED0A0B05B06C
:10124000BDE8F08F00BF00BF0000000000004E406E
:101250000000000060E3564100000000000059401B
:101260000160CC21017100218160704780B584B09C
:1012700081F00103026801798DF80F3001200DF132
:101280000F034FF0640CCDE90030104623220123F8
:10129000CDF808C000F09CFD322000F0B3F904B096
:1012A00080BD000080B584B0026803798DF80F100E
:1012B00001200DF10F014FF0640CCDE90010104634
:1012C000194622220123CDF808C000F081FD32200A
:1012D00000F098F904B080BDF0B581B00022009212
:1012E00090F83C20012A03D1022001B0F0BD00BFDC
:1012F0000F6801231FFA87FC80F83C304FEA4C034B
:1013000007EB470213FA87F31024092F88BFA3F1D4
:101310001E0288BF0C2403684FF0070E1E590EFAF8
:1013200002F5AE431E518E681D5906FA02F22A4399
:101330001A514968062907D801EB81014A1F19464D
:1013400051F8345F0FE000BF0C2901EB810105D893
:10135000A1F12302194651F8305F04E0A1F14102E6
:10136000194651F82C5F1F26964025EA06060E60A6
:101370000CFA02FE42F2043C0A68C4F2010CACF51D
:10138000417642EA0E02B3420A6005D0002180F89D
:101390003C10002001B0F0BD1221112FC1F200015C
:1013A00018BF8F423AD1DCF800208F4222F480022D
:1013B000CCF80020DCF8002042F40002CCF8002039
:1013C000E4D140F21001C2F2000109684DF68362D7
:1013D000C4F21B32A1FB0212910C01EB8101490006
:1013E000009100990029D1D000990139009100990C
:1013F0000029CBD000990139009100990029C5D06E
:1014000000990139009100990029BFD00099013954
:10141000009100990029E7D1B8E700BF122FB5D19C
:10142000DCF8001021F40001CCF80010DCF800100A
:1014300041F48001CCF80010A8E70000002804BFA8
:101440000120704710B5016C00293DD0016CC90620
:1014500045D4016C41F202129143023142F204324E
:101460000164C4F20102116821F440311160136873
:1014700090E812102343D0F810E013604A6801246A
:1014800022F480724A604A68C0F6007442EA0E2272
:101490004A604A6822F040724A604A6842EA0C0296
:1014A0004A608A6822F400628A60C2688B681A43C4
:1014B0008A60826A8B68A24223F070638B608B68BB
:1014C00010D123F0405216E0044600F065F82046A3
:1014D0000021616484F83C10016CC906B9D5012172
:1014E00053E000BF1A438A608A6822F040528A6043
:1014F000C26A8B681A438A608A6822F002028A6094
:101500008A68037E90F8204042EA43028A604A6873
:1015100084B142F400624A604A684EF2000322F449
:1015200060424A60426ACFF6FF734C6803EB423276
:10153000224301E022F400624A60CA6A40F2000CD1
:1015400022F47002CA62C3694269CFF6F07CCC6AA9
:101550000CEB03532343CB628B6823F400738B6043
:1015600090F830308C6844EA43238B608B6823F416
:1015700080638B608B6843EA82228A600021416429
:10158000026C012363F301020264002280F83C2014
:10159000BDE810400846704780B586B042F2002191
:1015A0000068C4F20101002288420592CDE90322BD
:1015B0000292019202D006B080BD00BF43F6300017
:1015C0000092C4F20200436943F4806343614369BB
:1015D00003F480630093009B0092036843F02003B0
:1015E0000360006800F02000009000982020019027
:1015F0000320CDE9020201F5724001A900F024F8B0
:1016000006B080BDB0B5044600F0F4F8054640F2DF
:101610000000C2F200000078611C18BF044400BF43
:1016200000F0E8F8401BA042FAD3B0BD70470000BC
:1016300043F61441C4F201010A68024214BF086073
:101640007047FFF7F3BF00002DE9F04F83B000F1C2
:10165000200200F13E4741F60005009207F1FF77B6
:10166000C4F2020507224FEAB726A84208BF0622A5
:1016700000254FF000084FF00009062E38BF4FEA52
:10168000B72201920AE000BF09F1010908F102083E
:10169000B9F1100F05F1040500F0A2800F680122D6
:1016A00002FA09FE17EA0E0AEED0D1F804C00322AE
:1016B0000CF003077E1E02FA08F4012E6FEA040BF9
:1016C00012D88468CE6804EA0B0406FA08F634439C
:1016D0008460446824EA0E06CCF3001404FA09F48A
:1016E0002643466004E000BF032F01D103271EE01C
:1016F000C6688C6806EA0B0604FA08F42643022F33
:10170000C66014D16FF00302009E02EA590756F832
:1017100007C005F01C040F220B69A2402CEA02024C
:10172000A3401A43F251D1F804C00CF00307026839
:1017300007FA08F302EA0B021A431CF4403F026066
:10174000A2D0002243F644030292C4F202031A68B4
:1017500043F6004442F480421A601A68C4F201045D
:1017600002F480420292029A29F003024FF6084CDA
:101770002244CFF6FF7C52F80C3005F00C070F2600
:10178000BE40B343019E06FA07F73B4342F80C30D4
:10179000A2684B6842EA0A0743F60C4CDE0258BFC7
:1017A00022EA0A07A760C4F2010CDCF800209E02BE
:1017B00042EA0A0758BF22EA0A07CCF800706268BA
:1017C0009E0342EA0A0758BF22EA0A0767602268B6
:1017D000DB0342EA0A0758BF22EA0A07276053E7F9
:1017E00003B0BDE8F08F0000002A08BF0904816142
:1017F0007047000040F64000C2F2000000687047E9
:10180000002804BF01207047F0B581B0044690F86D
:101810003D0028B9002084F83C00204600F086FBFB
:10182000242084F83D002068016821F00101016056
:10183000016841F400410160016821F40041016048
:1018400001F0E2F8636848F2A16CC0F2010C40F6C6
:101850000011C0F23D0163453CBF48F28041C0F237
:101860001E01884202D2012001B0F0BD4DF6836115
:10187000C4F21B31A0FB01122168970CD1F804E0DF
:101880004FF496762EF03F0545EA92454D6077433A
:1018900048F638160D6AC0F24106A7FB067625F019
:1018A0003F07634538BF960C721C3A430A62CA6907
:1018B00048F2A0664CF6FF77C0F20106B34222EA76
:1018C00007020BD801385B00B0FBF3F001306FF377
:1018D0001F30042898BF04201BE000BFA768013810
:1018E00057B119277B43B0FBF3F001306FF31F3082
:1018F00070B100F5804007E003EB4303B0FBF3F069
:1019000001306FF31F3018B100F5004001E000BF57
:1019100001201043C8610868D4E9072320F0C00003
:10192000104318430860886848F2FF3204F10C073E
:1019300090438CCF18431043A6698860C86820F094
:10194000FF0038433043C860086840F00100086079
:1019500000202021206484F83D10206384F83E009C
:1019600001B0F0BD2DE9F04F83B01E469246884687
:101970000446FFF73FFF94F83D10202924D1216849
:10198000054600BF886980071AD5FFF733FF401B63
:1019900021681A28F6D388698007F3D50020202112
:1019A000206384F83D1084F83E00216C41F0200152
:1019B000216484F83C00022003B0BDE8F08F00BF32
:1019C00094F83C00012803D1022003B0BDE8F08F59
:1019D0004FF0010984F83C900868C00703D10868FB
:1019E00040F0010008600868002720F400600860EB
:1019F000242084F83D000020CFF6FF702764E062C9
:101A000008F0FE08BAF1010F88BFD1464FF0A00AD6
:101A10004FF0200B04E000BF01374F4500F0A280DB
:101A20000868002240F48070086020464FF00111E1
:101A30003346009502F05AF92168002856D1C1F8C2
:101A40001080FFF7D7FE21684B694A6994F83D5032
:101A5000A02D054605D013F0020008BF12F48060E7
:101A60001AD084F83DB048690A68800742F40072D1
:101A70000A6045D46FF48060486100BF88698007C0
:101A8000CAD5FFF7B7FE401B21681A28F6D388692C
:101A90008007F3D54AE000BFB6B100BFFFF7AAFE4A
:101AA000401BB04288BF84F83DA021684A6948695C
:101AB00094F83D30A02BD4D012F0020208BF10F4ED
:101AC0008060EBD0CDE700BFFFF794FE84F83DA027
:101AD00021684A69486994F83D30A02BC1D012F0C2
:101AE0000202BED110F48060EED0BAE70868C005EB
:101AF00044BF4FF400702064032003B0BDE8F08FB2
:101B000000200290486902908869029002988869D2
:101B100001E000BF806980071AD5FFF76BFE411B0B
:101B200020681A29F6D381698907F3D5002020217E
:101B3000206384F83D1084F83E00216C41F02001C0
:101B4000216484F83C00012003B0BDE8F08F00BFA1
:101B5000202084F83D00002084F83C0003B0BDE85C
:101B6000F08F00BF202084F83D00002084F83C0066
:101B7000012003B0BDE8F08F2DE9F04784B099460D
:101B800016460F460446FFF735FE94F83D1020290F
:101B900027D10546206800BF816989071CD5FFF75A
:101BA00029FE411B20681A29F6D381698907F3D5DC
:101BB00000202021206384F83D1084F83E00206C32
:101BC00004F13C0A40F020002064022000218AF841
:101BD000001004B0BDE8F087A2461AF83C1F0129A6
:101BE00004D1022004B0BDE8F08700BF01228AF8CA
:101BF00000200368DDE90D180C9ADB0703D10368A8
:101C000043F001030360036823F4006303602220B0
:101C100084F83D00402084F83E0000202064626289
:101C20006185608D394620850020CFF6FF70E06227
:101C3000204632464B46CDE9008501F00BFF18B136
:101C4000012004B0BDE8F087208D08B3022813D02E
:101C5000012835D121680A6822F480620A600022D6
:101C600003924A6903928A690392039A0A6842F4CA
:101C700000720A602CE000BF21680A6822F48062CA
:101C80000A600A6842F400620A60002203921AE0C5
:101C900000200390206841690391816903910399B1
:101CA000016841F400710160202084F83D000020AB
:101CB00084F83E0000218AF8001004B0BDE8F087E7
:101CC0000021039121684A6903928969039103996C
:101CD0000427C0F201070CE010690870606A218DCA
:101CE00001306062481E2085618D013961850104E3
:101CF000DAD080B203280FD802284AD001282DD18B
:101D0000204641462A4602F043F9002898D120682F
:101D1000616A0069E1E700BF204641462A4602F0B9
:101D200037F900287FF48CAF2068616A0069087079
:101D3000606A2268411C208D616201382085638DB4
:101D4000013B638553695B07D1D580B20328C3D1BA
:101D5000106820F480601060BEE700BF204639465E
:101D600000224346009501F0C1FF00287FF468AFD0
:101D70002068616A026822F480620260006908706B
:101D8000606A218D01306062481E2085608D0138B7
:101D900060852046394600224346009501F0A6FFA3
:101DA00000287FF44DAF2068616A026842F4007237
:101DB000026000690870606A2268411C6162218DBE
:101DC00001392185618D013961851169417085E78E
:101DD0002DE9F04383B0994616460F460446FFF7B7
:101DE00009FD94F83D10202924D10546206800BF44
:101DF000816989071AD5FFF7FDFC411B20681A2964
:101E0000F6D381698907F3D500202021206384F867
:101E10003D1084F83E00216C41F02001216484F8DB
:101E20003C00022003B0BDE8F08300BF94F83C10F2
:101E3000012903D1022003B0BDE8F083012284F818
:101E40003C200368DDE90B180A9ADB0703D103681D
:101E500043F001030360036823F40063036021205F
:101E600084F83D00402084F83E0000202064626237
:101E70006185608D394620850020CFF6FF70E062D5
:101E8000204632464B46CDE9008501F06DFE18B183
:101E9000012003B0BDE8F083208D98B9204641466B
:101EA0002A4601F0C5FE88B3206C0428F0D12068D2
:101EB000016841F400710160012003B0BDE8F083C6
:101EC0000004EBD0204641462A4602F0A9F800283B
:101ED000EAD1616A2268084610F8013B1361238D3C
:101EE0006062581E2085678D013F678557697F07AF
:101EF000E6D50704E4D048781061881C6062981E1B
:101F00002085618D01396185DAE700BF20680168AD
:101F100041F400710160202084F83D00002084F825
:101F20003E0084F83C0003B0BDE8F083B0B586B055
:101F300045F600010068C4F20001002488420594BF
:101F4000CDE903440294019402D006B0B0BD00BFB5
:101F500043F630050094C4F202052868122240F0CE
:101F600020002860286800F02000009000980320DE
:101F7000019004900420059001F5DE3001A9CDE91F
:101F80000224FFF761FB0094286940F48000286177
:101F9000286900F480000090009806B0B0BD0000F1
:101FA00040F2000040F64001C2F20000C2F200011F
:101FB00000780A68104408607047000080B543F656
:101FC0000040C4F20200016841F400710160016840
:101FD00041F480610160016841F480710160032077
:101FE00000F086F8002000F005F800F027F8002047
:101FF00080BD000070B540F20006C2F2000640F25B
:1020000010013278C2F200014FF47A730968B3FB11
:10201000F2F20446B1FBF2F1084601F0CDFB0F2CC1
:102020004FF0010508D838B94FF0FF3021460022A3
:10203000002500F031F87460284670BD82B00020A1
:1020400043F640010190C4F202014A6842F4804222
:102050004A604A6802F480420192019A009008683E
:1020600040F080500860086800F0805000900098B0
:1020700002B07047002848BF704700F01F010122DE
:1020800002FA01F11C2202EAD0004EF20012CEF256
:10209000000281507047000010B54EF60C5CCEF285
:1020A000000CDCF80030C3F3022E8EF00704042C81
:1020B00028BF0424BEF103034FF0FF3E0EFA04F4E0
:1020C00038BF0023A14399400EFA03F39A4311430A
:1020D00000F00F0200F160430901043A03F5644384
:1020E0006244002848BF02F10C03197010BD0000C3
:1020F0004EF60C51CEF200010A684FF6FF031A406B
:1021000060F30A2242F0806040F0FD700860704782
:1021100001220168C0F8D824002280F8CC24886904
:1021200040F000608861486D40F0805040F003024C
:1021300000204A6570470000002804BF0120704756
:10214000F0B581B00446056890F8950428B90020E0
:1021500084F89404204600F02DF90320B5F1A04F37
:1021600084F8950404BF0020A071206804F0F0FBFF
:1021700094E80F00267C009604F044F8002840F014
:1021800000812068002104F0EBFB002840F0F9807A
:1021900094F804E0BEF1000F00F0EC800EF0030CA8
:1021A000BEF1040F4FF0000240D30EF0FC03A4F187
:1021B00090000321012500BFCE1E80F8A460A0F886
:1021C000BE608E1E80F8C860A0F8E2604E1E80F8E7
:1021D000EC60A0F8066180F81011A0F82A110E1D1D
:1021E000013180F8A55080F8A820C0E92B22C0F862
:1021F000B42080F8C95080F8CC20C0E93422C0F85F
:10220000D82080F8ED5080F8F020C0E93D22C0F8D9
:10221000FC2080F8115180F81421C0E94622C0F852
:102220002021903099423146C6D1F21EBCF1000FF8
:1022300031D004F1140002EBC20100EB810501234F
:1022400000F821200021BCF1010F6B706A83297115
:10225000C5E9021129611ED0551C05EBC50600EB2E
:102260008607BCF1020F7B7000F826507D83397120
:10227000C7E9021139610ED0911C01EBC10200EBDC
:102280008203012500F8221000205D705983187127
:10229000C3E902001861BEF1000F6BD0BEF1040F5C
:1022A0004FF0000236D30EF0FC000321234600BF9E
:1022B000CF1E83F854728F1E83F878724F1E83F8F6
:1022C000C0120D1D013183F8552283F85822C3E94D
:1022D0009722C3F8642283F8792283F87C22C3E929
:1022E000A022C3F8882283F89D2283F89C7283F889
:1022F000A022C3E9A922C3F8AC2283F8C12283F843
:10230000C422C3E9B222C3F8D022903381422946C5
:10231000CED1EA1EBCF1000F2CD004F5157002EBF3
:10232000C20300EB83070021BCF1010F797000F8B4
:1023300023203971C7E9021139611BD0531C03EB0B
:10234000C30700EB8706BCF1020F717000F827305D
:102350003171C6E9021131610CD0911C01EBC1024F
:1023600000EB820300275F7000F822101F71C3E9A1
:1023700002771F6194E80F00277C009704F08EF825
:1023800030B1022084F89504012001B0F0BD00BFF7
:1023900000206074012084F89504207B012802D17C
:1023A0002046FFF7B5FE206804F068F8002001B071
:1023B000F0BD0000F0B59DB0044600201C90CDE9B2
:1023C0001A00CDE9180001A804305821FEF7A2F93F
:1023D0002068B0F1A04F01D01DB0F0BD4FF4807067
:1023E000019001A800F03EF8002818BFFEF7E6FDB6
:1023F000002743F630060097C4F202063068002436
:1024000040F0010030603068C4F2020400F00100C6
:10241000009000984FF4E85018900220CDE9190779
:1024200003201B900A2018AD1C9020462946FFF778
:102430000BF94FF40070CDE91807204629461A978A
:10244000FFF702F9706840F08000706000977069D3
:1024500040F480407061706900F480400090009802
:102460001DB0F0BD2DE9F04381B00446006843F68D
:102470008C06C107C4F2020604D14FF0000981079F
:102480000CD415E03168A26B21F0C06111433160BA
:10249000B2FA82F14FEA5119810709D53168E26B2E
:1024A00021F0C05111433160002A08BF4FF00109EB
:1024B000410705D44FF00008010712D420E000BF07
:1024C0003168226B21F4401111433160B2FA82F17C
:1024D0004FEA5118B2F5801F08BF4FF001090107FC
:1024E0000ED53168626B21F440011143B2F5800FC3
:1024F000316008BF4FF00109002A08BF4FF0010802
:1025000081065AD50020009056F84C0C47F200077F
:1025100040F0805046F84C0C56F84C0CC4F20007C2
:1025200000F0805000900098386840F48070386067
:10253000FFF760F9054600BF3868C00506D4FFF70D
:1025400059F9401B0228F7D990E100BF56F81C0C3E
:1025500010F4407017D0216C01F44071884212D001
:1025600056F81C0C40F64061C4F24721012220F4C9
:1025700040700A6000220A6046F81C0C56F81C0CD9
:10258000C00740F07B812068216C56F8842C4FF600
:10259000FF4701F4407322F4F812C0F6FF770F40B2
:1025A000B3F5407F08BF3A4346F8842C56F81C2CFC
:1025B0006FF31F31114346F81C1CC10610D40106ED
:1025C00019D441061FD4C10525D4810530D4410555
:1025D00036D4B9F1010F18BFB0F5006F3CD062E0FE
:1025E00094F8580040F64061C4F24721C1F8A003B6
:1025F00020680106E5D5B168E26C21F44001114381
:10260000B1604106DFD5B168A26C21F08061114351
:10261000B160C105D9D5B168626D21F00061114387
:10262000B160B2F1006F08BF4FF001088105CED54F
:10263000B168626C21F080511143B1604105C8D589
:10264000B268216D22F000520A43B0F5006FB2600B
:1026500018BFB1F1005F23D140F26809C4F24729E5
:102660000020C9F80000FFF7C5F8054656F88C0CA5
:10267000000105D5FFF7BEF8401B0228F6D9F5E0AA
:102680002068C10702D0A16B00296FD0810702D555
:10269000E16B00296AD0410700F17D807FE000BF37
:1026A000B9F1010FD8D0B8F1000F4FF0000000F0E1
:1026B000DE806827C4F24727B860FFF79BF805461D
:1026C00056F88C0C800005D5FFF794F8401B0228C3
:1026D000F6D9CBE02068410701D5216B19B101077C
:1026E0001AD5616BC1B956F8041CD4E9062301F46C
:1026F0004031656A114341EA831141EA0561D4F82A
:102700002CC046F8041C31686FF0FF0221F4F85128
:1027100002EB0C2211433160C00516D5606DB0F19B
:10272000006F12D156F8040C226AD4E9061300F0A7
:102730007060D2034FF6FF75AA430843A2F58032BA
:1027400040EA8310104346F8040C0120B860FFF7FC
:1027500051F8044656F88C0C800000F18B80FFF78E
:1027600049F8001B0328F5D380E000BF56F8081C89
:1027700056F8082CD4E9013501F4403102F07062BA
:1027800019436769114341EA851141EA077146F827
:10279000081C410703D5216BB1F5801F05D0010747
:1027A0001FD5616BB1F5800F1BD156F8081C56F888
:1027B000082CD4E9013701F4403102F0E04219431A
:1027C0002569114341EA871141EA0561D4F828C01F
:1027D00046F8081C3168ACF1010221F01F011143D9
:1027E000316041051FD5216DB1F1005F1BD1271D5F
:1027F00056F808CC56F8082CA8CFFF034FF6FF7107
:1028000027EA01014FF0C06702F0E04207EA4C27D7
:1028100007F100771A433A43A1F5803142EA851265
:10282000114346F8081C000510D5271D8FCF40EA3C
:102830008110D1034FF6FF729143A1F5803140EA38
:102840000360084340EA077046F8080C0120C9F805
:102850000000FEF7CFFF054656F88C0C00013FF54F
:1028600022AFFEF7C7FF401B0228F5D9032001B0B5
:10287000BDE8F083002001B0BDE8F083FEF7BAFFA9
:10288000054641F2883700BF56F81C0C80073FF51B
:102890007AAEFEF7AFFF401BB8424FF00300F3D90A
:1028A000E5E70000002804BF012070472DE9F04152
:1028B00043F60808C4F202080446D8F8F8030D46A7
:1028C00000F00F00814207D988F8F853D8F8F803D0
:1028D00000F00F00A84277D12068810717D5410783
:1028E00005D5D8F8001041F4E051C8F800100107F0
:1028F00005D5D8F8001041F46041C8F80010D8F8A8
:102900000010A26821F0F0011143C8F80010C007C0
:1029100040D1D8F8F80300F00F00854207D288F8BC
:10292000F853D8F8F80300F00F00A8424CD1206803
:10293000410707D5D8F80010E26821F4E0511143AF
:10294000C8F80010000708D5D8F80000216920F465
:10295000604040EAC100C8F8000000F07DF8D8F8F7
:10296000001049F21852C1F30311C0F60002515C85
:1029700040F2100220FA01F140F20400C2F200001D
:102980000068C2F200021160FFF734FB0020BDE8CE
:10299000F08100BF6068811E022907D258F8081C28
:1029A00089015CBF0120BDE8F08111E0012807D159
:1029B00058F8081C89035CBF0120BDE8F08107E0DE
:1029C00058F8081C890703D40120BDE8F08100BF36
:1029D000D8F8001021F003010843C8F80000FEF702
:1029E00009FF064641F28837D8F80000616800F018
:1029F0000C00B0EB810F8CD0FEF7FCFE801BB842C0
:102A0000F2D90320BDE8F08140F2100043F608013E
:102A1000C2F20000C4F202010068096849F22852BB
:102A2000C1F38221C0F60002515CC840704700002B
:102A300040F2100043F60801C2F20000C4F20201A5
:102A40000068096849F22852C1F34231C0F6000219
:102A5000515CC8407047000010B543F60404C4F24E
:102A600002046068C0F3810142F20040C0F2F40049
:102A7000DFE801F04202081841F20020C0F27A00BB
:102A800010BD00BF216801F03F02216823684902A0
:102A9000C3F3881116D4A1FB00010023FDF72EFC1F
:102AA00017E000BF216801F03F0221682368490256
:102AB000C3F3881114D4A1FB00010023FDF71EFC11
:102AC00015E000BF41F20020C0F27A004843B0FB9D
:102AD000F2F021680222C1F3014102EB410109E059
:102AE00041F20020C0F27A004843B0FBF2F02168C6
:102AF000C1F30271B0FBF1F010BD0000002804BF6B
:102B0000012070472DE9F04182B00446007843F679
:102B10000006C007C4F202060CD0B06800F00C003A
:102B2000042840F089803068800303D5606800285D
:102B300000F050812078800723D5B06810F00C0F8A
:102B400011D0B06800F00C00082802D17068400273
:102B500009D5B06800F00C000C2840F09F80706828
:102B6000400200F19B803068800703D5E0680128AF
:102B700040F030813068216920F0F80040EAC1005F
:102B800030602078000713D4207840072AD4A56944
:102B9000002D00F01A81B06800F00C00082840F009
:102BA000AB80012D40F0E880012002B0BDE8F0814B
:102BB0006069002840F20000C4F2472000F08880DD
:102BC0000121C0F8801EFEF715FE0546706F8007D4
:102BD000DAD4FEF70FFE401B0228F7D9032002B01B
:102BE000BDE8F081306C5FEAC0080AD40020019093
:102BF000306C40F080503064306C00F080500190B8
:102C0000019847F20007C4F200073868C00537D4BE
:102C1000386840F480703860FEF7ECFD054600BF70
:102C20003868C0052CD4FEF7E5FD401B0228F7D913
:102C3000032002B0BDE8F081B06800F00C00082865
:102C400003D1706840023FF56EAFB06800F00C0031
:102C50000C2803D1706840023FF565AF61683068A9
:102C6000B1F5803F07D0B1F5A02F40F0CB8040F404
:102C700080203060306840F480303060CBE000BFAE
:102C8000A168306F012905D0052957D140F0040013
:102C90003067306F40F00100306759E0E06800288D
:102CA00000F09C800020C4F2472001210160FEF763
:102CB000A1FD0546306880073FF55CAFFEF79AFD41
:102CC000401B02284FF00300F4D902B0BDE8F081A8
:102CD0000021C0F8801EFEF78DFD0546706F80074D
:102CE0007FF552AFFEF786FD401B0228F6D9032080
:102CF00002B0BDE8F08100BF0027C4F247270020E2
:102D00003866FEF777FD022D05460BD1306880014D
:102D100040F19280FEF76EFD401B02284FF0030049
:102D2000F4D9D2E7306880014FD5FEF763FD401B30
:102D300002284FF00300F5D9C7E700BF20F00100DB
:102D40003067306F002920F00400306700F0988071
:102D5000FEF750FD054641F2883700BF306F80070F
:102D600000F1A080FEF746FD401BB842F6D90320D3
:102D700002B0BDE8F08100BF7068E16900F4800234
:102D80008A4227D1216A00F03F028A4222D147F6C7
:102D9000C071626A0140B1EB821F1BD1A16A4FF67C
:102DA000FF73C903994300F44032A1F580318A4290
:102DB00010D1E16A00F07062B2EB016F0AD1216BB1
:102DC00000F0E040B0EB017F04D1002002B0BDE88C
:102DD000F08100BF012002B0BDE8F0810020C4F204
:102DE000472000210160FEF705FD05463068800799
:102DF0007FF5C7AEFEF7FEFC401B02284FF0030034
:102E0000F4D962E720F4803030603068002920F483
:102E10008020306050D0FEF7EDFC0546306880031E
:102E20003FF588AEFEF7E6FC401B6428F6D9032088
:102E300002B0BDE8F08100BF04F11C052FCD246B6A
:102E4000084340EA8210D9034FF6FF729143A1F57F
:102E5000803140EA0560084340EA04707060012058
:102E60003866FEF7C7FC044630688001ADD4FEF733
:102E7000C1FC001B02284FF00300F5D925E700BF75
:102E8000FEF7B8FC054641F2883700BF306F800777
:102E900008D5FEF7AFFC401BB8424FF00300F5D950
:102EA00013E700BFB8F1000F3FF571AE306C20F0B2
:102EB000805030646BE600BFFEF79CFC054600BF07
:102EC000306880037FF536AEFEF794FC401B642823
:102ED0004FF00300F4D9F8E690F851007047000075
:102EE00070B528B1416A29B100210161142106E0C1
:102EF000012070BD4168B1F5827F02D01C21002203
:102F000042500026866290F8511029B980F850602E
:102F1000054600F03DF82846022180F8511090E85F
:102F20002E0002F482720C6803F4044324F040047F
:102F30000C601A4405F4006305691A4405F00203A5
:102F400045691A4405F001038569C4691A4405F40A
:102F500000731A4404F03803046A1A4404F080032E
:102F6000846A1A4304F400531A430A60436A042231
:102F700002EA154203F010031A444A60CA6922F4B7
:102F80000062CA610121466580F85110304670BD6B
:102F900080B586B043F200010068C4F2010100224E
:102FA00088420592CDE903220292019202D006B036
:102FB00080BD00BF43F630000092C4F202004369B6
:102FC00043F480534361436903F480530093009BAF
:102FD0000092036843F001030360006800F0010001
:102FE00000900098E02001900220CDE90202032029
:102FF00004900520059001F5504001A9FEF724FB3F
:1030000006B080BD2DE9F04182B0044690F8510031
:1030100001281AD100294FF0010018BF002A03D15E
:1030200002B0BDE8F08100BF60681D461746B0F5EC
:10303000827F03D1A068002800F0BC800E46FEF716
:10304000D9FB94F85010012904D1022002B0BDE848
:10305000F08100BF8046012084F850000420002148
:1030600084F851006165A663A787E7872163A1867D
:10307000E186A2682068B2F5004F2164616437D010
:10308000016849063FD5E168E08F002943D0002858
:103090007AD0681C0BD11AE0C068A16B21F8020B32
:1030A000A163E08F0138E087E08F00286CD02068B2
:1030B0008168C907F0D1FEF79DFBA0EB0800A8428C
:1030C000F2D342E0FEF796FBE08F00285CD0206848
:1030D0008168C907F6D0C068A16B21F8020BA16313
:1030E000E08F0138E087E08F0028F0D14CE000BF8E
:1030F000016821F040010160016821F48041016014
:1031000001684906BFD4016841F040010160E168EF
:10311000E08F0029BBD1B8B3681C0CD124E000BFFC
:10312000007BA16B0870A06B0130A063E08F0138B9
:10313000E087E08F40B320688168C907F0D1FEF7CF
:1031400059FBA0EB0800A842F3D3012084F85100FA
:10315000002084F85000032002B0BDE8F08100BFD9
:10316000FEF748FBE08F78B120688168C907F7D087
:10317000007BA16B0870A06B0130A063E08F013869
:10318000E087E08F0028EFD16068B0F5827F0ED134
:10319000A068B0F5004F02D0B0F5806F16D121685D
:1031A000B0F5806F0A6822F040020A600ED1204616
:1031B00001210DE0042084F8510020460A463B46D8
:1031C000009500F059F902B0BDE8F0812046802159
:1031D00000222B46CDF8008002F0AAFE28B1606DD7
:1031E00040F02000606520206065012084F85100D7
:1031F000002084F85000606D002818BF012002B044
:10320000BDE8F0812DE9F04184B01D4616460F4619
:103210000446FEF7EFFA94F8511001290ED18046CA
:10322000002F4FF0010018BF002E03D104B0BDE8FD
:10323000F08100BF94F85000012803D1022004B0AF
:10324000BDE8F081012084F850000320002184F8BB
:10325000510061652763A686E686A163A187E187A1
:10326000A0682164B0F5004F2068616407D101684F
:1032700021F040010160016841F480410160016872
:10328000490603D4016841F0400101606168731E82
:10329000E268B1FA81F1B3FA83F349095B09B2F547
:1032A000006F41EA030139D131B137F8021BC16027
:1032B0002763E08E0138E086E08E002870D0681C1D
:1032C0000BD11AE0216B31F8022BC2602163E08E32
:1032D0000138E086E08E002862D020688168890786
:1032E000F0D4FEF787FAA0EB0800A842F2D338E04A
:1032F000FEF780FAE08E002852D0206881688907A6
:10330000F6D5216B31F8022BC2602163E08E0138C3
:10331000E086E08E0028F0D142E000BF39B1397874
:103320000173206B01302063E08E0138E086E08E6F
:10333000B0B3681C0BD123E0216B09780173206BBB
:1033400001302063E08E0138E086E08E40B32068D3
:1033500081688907F0D4FEF74DFAA0EB0800A84277
:10336000F3D3012084F85100002084F8500003209A
:1033700004B0BDE8F08100BFFEF73CFAE08E78B102
:10338000206881688907F7D5216B09780173206B64
:1033900001302063E08E0138E086E08E0028EFD116
:1033A0002046022101222B46CDF8008002F0C0FD0C
:1033B000E0B1606D40F02000606520206065A0688D
:1033C00038B9002002902068C1680291806802909C
:1033D0000298012084F85100002084F85000606DAC
:1033E000002818BF012004B0BDE8F08140F21000B1
:1033F000C2F20000006849F68171C1F25E61A0FB73
:103400000101480D4FF47A71484303906068B0F5AC
:10341000827F0BD12046802100222B46CDF80080F0
:1034200002F086FD0028C4D1C9E700BF0398002838
:10343000C5D0039801380390206881680906BED57D
:1034400003990029BBD003990139039181680906CA
:10345000B5D503990029B2D0039901390391816848
:103460000906ACD503990029A9D003990139039124
:1034700080680006DAD4A2E72DE9F04383B01E4647
:1034800015460F460446FEF7B5F994F851108146EB
:10349000012909D1002F4FF0010018BF002D0FD1D5
:1034A00003B0BDE8F08300BF6068B0F5827F0DD146
:1034B00004294FF00200F3D1A1680029EAD0EFE718
:1034C000002EEDD094F85000012803D1022003B063
:1034D000BDE8F083012084F8500094F851000021E9
:1034E00004281CBF052084F851006165A563E687A8
:1034F000A6872763E6862068A68621646164016842
:10350000490603D4016841F0400101606168731EFF
:10351000E268B1FA81F1B3FA83F3DDF82880490952
:103520005B09B2F5006F41EA030165D131B137F8AB
:10353000021BC1602763E08E0138E086012518F187
:10354000010032D102E000BFFEF754F9E08E18B955
:10355000E08F002800F0B8802068816889070CD5CA
:10356000E18E51B1012D08D1216B002531F8022BDC
:10357000C2602163E18E0139E1868168C907E3D029
:10358000E18F0029E0D0C068A16B012521F8020B72
:10359000A163E08F0138E087D6E700BFFEF72AF984
:1035A000A0EB0900404580F0A580E08E18B9E08FBF
:1035B000002800F089802068816889070CD5E18E99
:1035C00051B1012D08D1216B002531F8022BC260C9
:1035D0002163E18E0139E1868168C907DED0E18F80
:1035E0000029DBD0C068A16B012521F8020BA16383
:1035F000E08F0138E087D1E739B139780173206B6A
:1036000001302063E08E0138E086012518F10100C9
:1036100032D101E0FEF7EEF8E08E10B9E08F00281D
:1036200052D02068816889070ED5E18E61B1012DE5
:103630000AD1216B002509780173216B20680131C3
:103640002163E18E0139E1868168C907E2D0E18F0B
:103650000029DFD0C068A16B01250870A06B013084
:10366000A063E08F0138E087D4E700BFFEF7C2F81F
:10367000A0EB090040453DD2E08E08B9E08F18B3B9
:103680002068816889070ED5E18E61B1012D0AD1CC
:10369000216B002509780173216B206801312163BA
:1036A000E18E0139E1868168C907DFD0E18F002909
:1036B000DCD0C068A16B01250870A06B0130A0634D
:1036C000E08F0138E087D1E72046022101224346FE
:1036D000CDF8009002F02CFCB0B1606D40F02000FD
:1036E000606520206065002084F85000012003B050
:1036F000BDE8F083012084F85100002084F85000D8
:10370000032003B0BDE8F08340F21000C2F20000D5
:10371000006849F68171C1F25E61A0FB0101480DAC
:103720004FF47A71484302906068B0F5827F0BD104
:103730002046802100224346CDF8009002F0F8FB9D
:103740000028CAD121E000BF0298F0B102980138E8
:10375000029020688168090617D50299A9B10299DB
:1037600001390291816809060FD5029969B1029960
:10377000013902918168090607D5029929B1029998
:103780000139029180680006DED4A06838B90020B3
:1037900001902068C1680191806801900198012022
:1037A00084F85100002084F85000606D002818BF94
:1037B000012003B0BDE8F083411E0020B0EB116F83
:1037C0001CBF012070474EF21002CEF20002516081
:1037D0004EF62351CEF20001F0230B7007219060CA
:1037E00011607047002804BF0120704710B50446DF
:1037F00090F8410028B9002084F84000204600F0ED
:1038000021F8242084F841002068C16821F4005187
:10381000C160204602F082FC2068016921F49041D9
:103820000161416921F02A014161C16841F40051FF
:10383000C16000202021606484F8411084F84210A7
:10384000606310BD80B586B044F600010068C4F224
:103850000001002288420592CDE9032202920192E2
:1038600002D006B080BD00BF43F630000092C4F223
:103870000200036943F480230361036903F4802396
:103880000093009B0092036843F008030360006804
:1038900000F00800009000984FF440700190022062
:1038A000CDE90202032004900720059001F5E230E3
:1038B00001A9FDF7C9FE06B080BD00002DE9F04367
:1038C00081B0044690F84100202809D100294FF02A
:1038D000010018BF002A07D101B0BDE8F08300BF86
:1038E000022001B0BDE8F0830020606421201D4665
:1038F0000E4684F841001746FDF77CFFA784E78455
:10390000A1688146B1F5805F02D1206900285DD0B1
:1039100037460020E28C2168002A5DD06A1C24D042
:10392000002D4AD0804600BF0868000608D4FDF785
:1039300061FFA0EB0900A8427AD82168C868F3E7C4
:1039400017B117F8010B04E038F8020B00276FF3EA
:103950005F204860E08C0138E084E08C0028E3D1EF
:103960003AE000BF0A68120609D40A68120606D4B3
:103970000A6812065CBF0A685FEA0262F2D51FB1EC
:1039800017F8012B05E000BF30F8022B00276FF37A
:103990005F224A60E28C013AE284E28C002AE4D1A0
:1039A0001AE000BF30F8022B00276FF35F224A6055
:1039B000E28C013AE284E28C72B10A68120635D5D3
:1039C000002FEFD017F8012BF1E700BF002730469A
:1039D000E28C2168002AA1D1086840061ED42DB3CC
:1039E000681C14D1086840062AD40868400627D409
:1039F0000868400624D4086840064FF00000F1D55E
:103A00000DE000BF2068C1680068400618D4FDF7CB
:103A1000F1FEA0EB0900A842F4D909E00020202122
:103A200084F8411001B0BDE8F08300BFFDF7E2FE6D
:103A30000320202184F8411001B0BDE8F08300BFCD
:103A40000020202184F8411001B0BDE8F08300007F
:103A5000FEE700002DE9F04782B0044600689A4670
:103A60000B9D0A9E0368914643F4806202600268DF
:103A70000F4642F48071016020464FF00111002290
:103A80003346009500F032F950B120680068C00557
:103A900044BF4FF400702064032002B0BDE8F087FB
:103AA00040F202082068C0F2010807F0FE07076133
:103AB0002046414632462B4600F0FEF920B1012057
:103AC00002B0BDE8F08700BF0020019020682A46C0
:103AD000416901918069314601900198204600F0CA
:103AE0009FFAB0B92068BAF1010F09D04FEA192145
:103AF0000161204631462A4600F092FA48B9206812
:103B00005FFA89F10161204631462A4600F088FAC1
:103B100060B1206C0428D2D12068016841F40071A2
:103B20000160012002B0BDE8F08700BF20680022DC
:103B30000168334641F48071016020464FF0011165
:103B4000009500F0D3F800289FD147F0010C2768BA
:103B50002046414632462B46C7F810C002B0BDE8A9
:103B6000F04700F0A9B900002DE9F04383B0044606
:103B700000680F4601680A9D0B9E41F480719946CA
:103B80009046016020464FF0011100222B4600961E
:103B900000F0ACF850B120680068C00544BF4FF495
:103BA00000702064032003B0BDE8F083206807F0B4
:103BB000FE0101610221C0F2010120462A4633467E
:103BC00000F07AF920B1012003B0BDE8F08300BF16
:103BD000002002902068324641690291806929469E
:103BE00002900298204600F01BFA58B1206C04287D
:103BF000E9D12068016841F400710160012003B03F
:103C0000BDE8F0832068B9F1010F0AD04FEA18210E
:103C1000016120462946324600F002FA0028E5D12B
:103C200020685FFA88F10161002003B0BDE8F083ED
:103C300070B50368044653F8140F400711D40E46BC
:103C4000481C29D086BB00BF1868400527D4FDF763
:103C5000D1FD236853F8140F400737D51868400783
:103C6000F2D5002070BD00BF18684007F9D418686D
:103C7000400514D418684007F3D4186840050ED4E2
:103C800018684007EDD41868400508D41868400744
:103C90004FF0000048BF70BD18684005E4D56FF4D0
:103CA00080601860042012E0154603E053F8140FFA
:103CB0004007D6D418684005F1D4FDF79BFD401BA2
:103CC0002368B042F2D958694007EFD42020002180
:103CD0002022216384F83D2084F83E10226C10439A
:103CE0002064012084F83C1070BD00002DE9F041F3
:103CF000054600681E46144601F47F0201338FB268
:103D000042D0DDF81880B2F5803F40F087804069EE
:103D10003840C01BB0FA80F04009844240F0C880AF
:103D20004EB924E040693840C01BB0FA80F0400929
:103D3000844240F0BD80FDF75DFDA0EB08012868DE
:103D4000B142EFD941693940C91BB1FA81F1490942
:103D50008C42E7D19BE000BF40693840C01BB0FAFD
:103D600080F0400984424FF0000040F0A280FDF74F
:103D700041FD286841693940C91BB1FA81F14909FF
:103D80008C42E9D183E000BFB2F5803F24D100BF6F
:103D900041693940C91BB1FA81F149098C4240F0AF
:103DA000878041693940C91BB1FA81F149098C42C8
:103DB00040F07E8041693940C91BB1FA81F149095F
:103DC0008C4275D141693940C91BB1FA81F1490969
:103DD0008C42DDD06CE000BF81693940C91BB1FA6B
:103DE00081F149098C4263D181693940C91BB1FA1B
:103DF00081F149098C425BD181693940C91BB1FA13
:103E000081F149098C4253D181693940C91BB1FA0A
:103E100081F149098C42DFD04AE000BF8069384017
:103E2000C01BB0FA80F04009844241D146B923E07A
:103E300080693840C01BB0FA80F04009844237D115
:103E4000FDF7D8FCA0EB08012868B142F0D98169E0
:103E50003940C91BB1FA81F149098C42E8D116E019
:103E600080693840C01BB0FA80F0400984424FF0AE
:103E7000000018BFBDE8F081FDF7BCFC286881692F
:103E80003940C91BB1FA81F149098C42E8D10020BF
:103E90002021286385F83D1085F83E00296C41F00B
:103EA0002001296485F83C000120BDE8F08100BFB5
:103EB0000020BDE8F0810000F0B581B00446006844
:103EC0001D4643698FB203EA0701B94202D10020BF
:103ED00001B0F0BD4169164601323CD0490512D40B
:103EE0007EB300BFFDF786FC411B2068B14203D9B9
:103EF00041693940B9422BD141693940B942E6D0D4
:103F000041694905EED5016841F4007101606FF423
:103F100080614161042000212022216384F83D203A
:103F200084F83E10226C1043206484F83C10012079
:103F300001B0F0BD41693940B942C8D04169490575
:103F4000E1D4FDF757FC206841693940B942F1D00E
:103F50002020E0E741694905D5D441693940B9429B
:103F6000B5D041694905CED441693940B942AED096
:103F700041694905C7D441693940B942A7D041696F
:103F80004905C0D441693940B942E3D19FE70000F7
:103F900070B504460068154650F8143F5A063DD4E3
:103FA0000E4629B926E000BF50F8141F490635D443
:103FB0000168C90621D4FDF71DFC411B2068B142F0
:103FC000F2D941694906EFD400202021206384F80A
:103FD0003D1084F83E00206C40F0200018E000BF47
:103FE000FDF708FC206850F8141F4906ECD501685D
:103FF000490613D40168C906F2D56FF010010160BB
:1040000000202021206384F83D1084F83E00206CBD
:104010002064002084F83C00012070BD002070BDA9
:1040200070B50368044653F8140F000611D40E4609
:10403000481C29D086BB00BF1868400527D4FDF76F
:10404000D9FB236853F8140F000637D5186800060B
:10405000F2D5002070BD00BF18680006F9D41868BA
:10406000400514D418680006F3D4186840050ED42F
:1040700018680006EDD41868400508D418680006D2
:104080004FF0000048BF70BD18684005E4D56FF4DC
:1040900080601860042012E0154603E053F8140F06
:1040A0000006D6D418684005F1D4FDF7A3FB401BE9
:1040B0002368B042F2D958690006EFD420200021CD
:1040C0002022216384F83D2084F83E10226C1043A6
:1040D0002064012084F83C1070BD000001F0FC0158
:1040E00000F0F800C90041EA002040EAD200704721
:1040F0002DE9F04FA1B01D46144650FA83F2C3F3E8
:10410000072651FA93F3013A013B92B29BB203F0B6
:10411000E1F9002E019600F0AB812B984FF4804B13
:10412000010ACA074FF4007208BF4FF000722092D4
:104130008A074FF4005258BF4FF000521F924A07AF
:104140004FF4007258BF4FF000721E920A074FF4EE
:10415000804258BF4FF080421D92CA064FF4004281
:1041600058BF4FF000421C928A064FF4005258BFCD
:104170004FF0005249064FF480411B9258BF4FF058
:1041800080411A9101B2B1F1FF3F4FF40061C8BF05
:104190004FF000611991C1074FF4007108BF4FF053
:1041A0000071189181074FF4005158BF4FF0005132
:1041B000179141074FF4007158BF4FF000711691ED
:1041C00001074FF4804158BF4FF080411591C1065F
:1041D0004FF4004158BF4FF00041149181064FF455
:1041E000005158BF4FF000511391410658BF4FF096
:1041F000804B00062C984FF400664FEA102158BF00
:104200004FF00066CA074FF4007208BF4FF000720B
:1042100012928A074FF4005258BF4FF00052119289
:104220004A074FF4007258BF4FF0007210920A070D
:104230004FF4804258BF4FF080420F92CA064FF4AD
:10424000004258BF4FF000420E928A064FF40052CF
:1042500058BF4FF0005249064FF480410D9258BFAD
:104260004FF080410C9101B2B1F1FF3F4FF400617A
:10427000C8BF4FF000610B91C1074FF4007108BF38
:104280004FF000710A9181074FF4005158BF4FF071
:104290000051099141074FF4007158BF4FF0007170
:1042A000089101074FF4804158BF4FF080410791BA
:1042B000C1064FF4004158BF4FF0004106918106FE
:1042C0004FF4005158BF4FF00051059141064FF493
:1042D000804158BF4FF080410006EFB24FF40060BC
:1042E000049158BF4FF00060002F039000F0C08091
:1042F000019A2A98A4F12001514341F2180840F68E
:10430000000400EB4100C4F202080021C4F20204E0
:10431000009005E0029901980131814200F0A880E7
:1043200000984FF0000A30F8119002914FE000BF62
:1043300012980421C8F8000011980022C8F800045F
:104340001098C8F800080F98C8F800080E98C8F828
:1043500000040D98C8F800000C98C8F800040B98E9
:10436000C8F800002046FDF73FFA2046042101224C
:1043700000BFFDF739FA284610210122FDF734FA73
:104380000A980421C8F8000009980022C8F800041F
:104390000898C8F800080798C8F800080698C8F8F0
:1043A00000040598C8F800000498C8F800040398B1
:1043B000C8F800002046FDF717FA00BF2046042188
:1043C0000122FDF711FA0AF1010A5745A2D008F5BA
:1043D0007A75284610210122FDF706FA09FA0AF03B
:1043E0000004A5D520980421C8F800001F980022D9
:1043F000C8F800041E98C8F800081D98C8F80008FE
:104400001C98C8F800041B98C8F800001A98C8F84F
:1044100000041998C8F800002046FDF7E5F9204689
:104420000421012200BFFDF7DFF9284610210122F7
:10443000FDF7DAF918980421C8F80000179800224F
:10444000C8F800041698C8F800081598C8F80008BD
:104450001498C8F800041398C8F800002046C8F85B
:1044600000B4C8F80060FDF7BFF900BFA6E700BFC1
:1044700021B0BDE8F08F00002DE9F04F81B0002899
:1044800000F1D08040F27803C2F200031E784FF4AE
:10449000A077002E18BF4FF4F077002900F1C280FA
:1044A000874240F2BF809B784FF4F077002B18BF13
:1044B0004FF4A0778F4240F2B58080B289B21646A1
:1044C00002460B4603F006F841F21807C4F2020751
:1044D00007F57A7010210122350A0090FDF784F962
:1044E000E8074FF4007008BF4FF000703860A8076D
:1044F0004FF4005058BF4FF00050C7F80004680751
:104500004FF4007058BF4FF00070C7F8000828073C
:104510004FF4804058BF4FF08040C7F80008E806CD
:104520004FF4004058BF4FF00040C7F80004A80601
:104530004FF4005058BF4FF00050386068064FF4F9
:10454000804058BF4FF08040C7F8000430B2B0F14F
:10455000FF3F4FF4006040F60009C8BF4FF0006015
:10456000C4F2020938604846042100224FF4007466
:104570004FF4005A4FF4804B4FF400484FF400655D
:10458000FDF732F948460421012200BFFDF72CF95E
:10459000009810210122FDF727F9F0074FF4007071
:1045A00008BF4FF000703860B0074FF4005058BF9C
:1045B0004FF00050C7F80004700758BF4FF0007468
:1045C00030074FF48040C7F8004858BF4FF0804094
:1045D000C7F80008F00658BF4FF00048B006C7F80B
:1045E000008458BF4FF0005A7006C7F800A058BFAB
:1045F0004FF0804B300648464FF004014FF0000268
:10460000C7F800B458BF4FF000653D60FDF7ECF807
:1046100048460421012200BF01B0BDE8F04FFDF77C
:10462000E3B800BF01B0BDE8F08F00002DE9F04F06
:1046300083B040F27806C2F2000600903078B1787C
:1046400040F23F12002841F2180418BF40F2DF1276
:1046500040F2DF1300294FF000004FF00001C4F2D8
:10466000020418BF40F23F134FF0000A02F032FF7D
:104670003078B1784FF4A07200284FF4F07018BF72
:104680004FF4F072002918BF4FF4A07000FB02F144
:10469000002003F0BDFB40F60005324600234FF436
:1046A00000584FF4007B4FF08047C4F202050BE046
:1046B00000980344F0071FFA83FA4FF4A07018BF64
:1046C0004FF4F070504577D918B216780028EFD41F
:1046D0004FF0000902930CE0907809F101091FFAEC
:1046E00089F100284FF4F07018BF4FF4A070884291
:1046F000DED9F0074FF4A07018BF4FF4F0705045AA
:10470000EAD998B21FFA89F102460B4602F0E2FE9E
:1047100004F57A76304610210122FDF765F84FF056
:10472000007020604FF40040C4F80084C4F800B862
:10473000C4F80078C4F800044FF00060C4F80080AA
:10474000C4F800742060284604210022FDF74CF8CC
:1047500028460421012200BFFDF746F8304610210B
:104760000122FDF741F84FF0007020604FF000404B
:10477000C4F80084C4F800B8C4F80078C4F8000491
:104780004FF0005020604FF48040C4F800044FF018
:1047900000602060284604210022FDF725F8284605
:1047A0000421012200BFFDF71FF840F27802C2F297
:1047B0000002029B16788FE740F6000A00230025CE
:1047C0004FF000794FF400584FF0804BC4F2020ACA
:1047D0000CE000BF009805449078ABB200284FF47D
:1047E000F07018BF4FF4A070984275D928B2002815
:1047F000F0D40027CDE901530AE000BF0137F107EB
:10480000B8B24FF4A07118BF4FF4F0718142E1D9F2
:10481000907800284FF4F07018BF4FF4A0709842C1
:10482000ECD9B8B2A9B202460B4602F053FE04F529
:104830007A76304610210122FCF7D6FF4FF400753E
:104840004FF40040C4F80090C4F80084C4F8005845
:10485000C4F800B8C4F800044FF00060C4F8008049
:10486000C4F800B42060504604210022FCF7BCFFCD
:1048700050460421012200BFFCF7B6FF304610214C
:104880000122FCF7B1FF4FF00040C4F80090C4F8DB
:104890000084C4F80058C4F800B8C4F800044FF00D
:1048A000005020604FF48040C4F800044FF00060D6
:1048B0002060504604210022FCF796FF5046042158
:1048C000012200BFFCF790FF40F27802C2F2000222
:1048D000DDE90153167891E74408002528B2214606
:1048E00046F2EC72FFF7C8FD40F27800C2F2000019
:1048F00000780135A9B200284FF4A07018BF4FF41A
:10490000F0708842EAD8A0240025F00718BFF024F0
:1049100029B2204646F2EC72FFF7AEFD40F2780075
:10492000C2F2000080780135A9B200284FF4F0707F
:1049300018BF4FF4A0708842EAD803B0BDE8F08FEA
:104940002DE9F04F83B01778002F40D005464FF681
:10495000FF7023EA0000C3F30728DEB240EA082014
:1049600040F2780A0C4600EB060B02F10109C2F294
:10497000000A00BF9AF8001016FA85F09AF8022093
:1049800000294FF4A07118BF4FF4F071884228BF7E
:10499000444418FA84F3002A4FF4F07218BF4FF41D
:1049A000A072934213D288420C9828BF0025009031
:1049B0000D98FAB20E9F0190A8B2A1B25B46029781
:1049C000FFF796FB19F8017B3544002FD2D103B0D5
:1049D000BDE8F08FF0B581B040F27806C2F2000673
:1049E00035784FF4A074002D18BF4FF4F074844252
:1049F00024D9B6784FF4F075002E18BF4FF4A07587
:104A00008D421BD91618A64203EB0106069F88BFEC
:104A1000221AAE4288BF6B1A94B202449DB20B4474
:104A2000013A013B92B29BB202F054FD05FB04F146
:104A3000384601B0BDE8F04003F0EAB901B0F0BD7E
:104A4000B0B540F27805C2F2000504462878A9788E
:104A500040F23F12002818BF40F2DF1240F2DF138D
:104A600000294FF000004FF0000118BF40F23F1343
:104A700002F030FD2878A9784FF4A07200284FF496
:104A8000F07018BF4FF4F072002918BF4FF4A070F7
:104A900000FB02F12046BDE8B04003F0B9B90000C8
:104AA0002DE9F04F81B040F60004C4F20204A4F5F1
:104AB0008065284602210122FCF796FE2846402107
:104AC0000022FCF791FE284604210022FCF78CFE10
:104AD0001420FCF797FD284604210122FCF784FEF0
:104AE0007820FCF78FFD41F21806C4F2020606F5A5
:104AF0007A75284610210022FCF776FE4FF40070EC
:104B000030604FF000594FF0007A4FF0804B4FF477
:104B10000040C6F80094C6F800A8C6F800B8C6F869
:104B200000044FF00060C6F80090C6F800B4306092
:104B30002046042100224FF40048FCF755FE204691
:104B40000421012200BFFCF74FFE7820FCF75AFD3C
:104B5000284610210022FCF747FE4FF48040C6F89B
:104B600000A0C6F80094C6F800A8C6F800B8C6F8B9
:104B70000084C6F80090C6F800044FF4006030606E
:104B8000204604210022FCF72FFE204604210122AA
:104B900000BFFCF729FE284610210122FCF724FE65
:104BA0004FF400714FF400503160C6F800044FF02C
:104BB0000040C6F80018C6F800B8C6F800044FF068
:104BC00000672046042100224FF00048C6F80090FC
:104BD000C6F800B43760FCF707FE20460421012226
:104BE00000BFFCF701FE284610210122FCF7FCFD66
:104BF0004FF40050C6F800A0C6F80004C6F800A89C
:104C0000C6F800B8C6F800844FF480482046042156
:104C10000022C6F80090C6F800843760FCF7E4FD77
:104C200020460421012200BFFCF7DEFD28461021AA
:104C30000122FCF7D9FD4FF400474FF00060C6F8A1
:104C400000A0C6F80094C6F800A8C6F80088C6F808
:104C50000074C6F80090C6F800B430602046042105
:104C600000224FF00068FCF7BFFD2046042101221E
:104C700000BFFCF7B9FD284610210022FCF7B4FD67
:104C80004FF4007030604FF48040C6F80094C6F8CE
:104C900000A8C6F800B8C6F80074C6F80090C6F8B8
:104CA00000044FF400603060204604210022FCF72D
:104CB0009BFD20460421012200BFFCF795FD2846FC
:104CC00010210122FCF790FD4FF0004720460421FF
:104CD0000022C6F800A0C6F80094C6F800A8C6F8DE
:104CE00000B8C6F80074C6F80090C6F800B4C6F85C
:104CF0000080FCF779FD20460421012200BFFCF76B
:104D000073FD284610210122FCF76EFD4FF4007060
:104D10004FF400513060C6F80014C6F80008204671
:104D200004210022C6F800B8C6F80074C6F8009046
:104D3000C6F800B4C6F80080FCF756FD20460421F2
:104D4000012200BFFCF750FD284610210122FCF78C
:104D50004BFD4FF40047204604210022C6F800A076
:104D6000C6F80094C6F800A8C6F800B8C6F80074E3
:104D7000C6F80090C6F800B4C6F80080FCF734FD11
:104D800020460421012200BFFCF72EFD28461021F9
:104D90000022FCF729FD4FF400504FF40071C6F8D3
:104DA00000A0C6F80004C6F80018C6F800B8C6F897
:104DB00000743060204604210022C6F800B4C6F812
:104DC00000804FF00067FCF70FFD20460421012210
:104DD00000BFFCF709FD284610210122FCF704FD65
:104DE0004FF480404FF00041C6F800A0C6F8009490
:104DF000C6F800A8C6F80008C6F80014C6F8009067
:104E0000C6F800042046042100224FF48048376091
:104E10004FF00067FCF7E8FC20460421012200BFA8
:104E2000FCF7E2FC284610210022FCF7DDFC4FF4E1
:104E300000504FF40041C6F800A0C6F80004C6F8C0
:104E400000A8C6F80088C6F8001430602046042187
:104E500000224FF40048C6F800B43760FCF7C4FCE9
:104E600020460421012200BFFCF7BEFC2846102189
:104E70000122FCF7B9FC4FF400703060C6F80094D2
:104E8000C6F800084FF48040C6F800B8C6F80084A1
:104E9000C6F80090C6F800044FF00060306020466D
:104EA000042100224FF48047FCF79EFC2046042199
:104EB000012200BFFCF798FC284610210022FCF7D5
:104EC00093FC4FF400703060C6F80094C6F80008F8
:104ED0004FF00040C6F800B8C6F800044FF4006870
:104EE000204604210022C6F80090C6F80074C6F8D7
:104EF0000080FCF779FC20460421012200BFFCF76A
:104F000073FC284610210122FCF76EFC4FF4004090
:104F1000C6F800A0C6F80094C6F800A8C6F800B805
:104F2000C6F800044FF00060C6F80090C6F800B460
:104F30003060204604210022FCF756FC2046042164
:104F4000012200BFFCF750FC284610210022FCF78C
:104F50004BFC4FF480404FF00047C6F800A0C6F865
:104F60000094C6F800A8C6F80008C6F80074C6F891
:104F70000090C6F80004204604210022C6F80080F4
:104F8000FCF732FC20460421012200BFFCF72CFC78
:104F9000284610210122FCF727FC4FF0006820462C
:104FA00004210022C6F800A0C6F80094C6F800A8A4
:104FB000C6F800B8C6F80074C6F80090C6F800B489
:104FC000C6F80080FCF710FC20460421012200BF37
:104FD000FCF70AFC284610210122FCF705FC4FF4DF
:104FE00000504FF40047C6F800A0C6F80004C6F809
:104FF00000A8C6F800B8C6F8007430602046042146
:105000000022C6F800B4C6F800804FF00068FCF734
:10501000EBFB20460421012200BFFCF7E5FB2846FC
:1050200010210122FCF7E0FB4FF400504FF4007117
:10503000C6F800A0C6F80004C6F80018C6F800B804
:10504000C6F800743060204604210022C6F800B47F
:10505000C6F800804FF00068FCF7C6FB204604212C
:10506000012200BFFCF7C0FB284610210122FCF7FB
:10507000BBFB4FF400703060C6F80094C6F800081F
:105080004FF000474FF48040C6F800B8C6F80074EF
:10509000C6F80090C6F80004204604210022C6F895
:1050A00000804FF00068FCF79FFB2046042101229E
:1050B00000BFFCF799FB284610210122FCF794FB66
:1050C0004FF40050C6F800A0C6F800044FF400707A
:1050D000C6F80008204604210022C6F800B8C6F829
:1050E0000074C6F80090C6F800B4C6F800804FF00F
:1050F0000067FCF779FB20460421012200BFFCF782
:1051000073FB284610210122FCF76EFB4FF4005080
:10511000C6F800A0C6F800044FF40070C6F80008F6
:105120004FF40048204604210022C6F800B8C6F813
:105130000084C6F80090C6F800B43760FCF754FB52
:1051400020460421012200BFFCF74EFB2846102117
:105150000122FCF749FB4FF400704FF4005130601E
:10516000C6F80014C6F800084FF00060C6F800B892
:10517000C6F800843160C6F800B4306020460421CF
:1051800000224FF400774FF40058FCF72DFB204627
:105190000421012200BFFCF727FB28461021012231
:1051A000FCF722FB4FF400403760C6F80094C6F8C5
:1051B0000078C6F800B8C6F800044FF480474FF0F6
:1051C0000060C6F80080C6F80074306020460421F4
:1051D0000022FCF709FB20460421012200BFFCF756
:1051E00003FB284610210122FCF7FEFA4FF4007061
:1051F0004FF400513060C6F80014C6F800084FF4B0
:105200000040C6F800B8C6F800044FF000603160F6
:10521000C6F8007430602046042100224FF4007864
:105220004FF48047FCF7E0FA20460421012200BF3A
:10523000FCF7DAFA284610210122FCF7D5FA4FF4E0
:105240000040C6F800A0C6F80094C6F80088C6F86A
:1052500000B8C6F800044FF00060C6F80090C6F829
:10526000007430602046042100224FF400784FF48F
:105270008047FCF7B9FA20460421012200BFFCF761
:10528000B3FA284610210122FCF7AEFAC6F800A0B6
:10529000C6F80094C6F80088C6F800784FF00047BA
:1052A0004FF00060C6F80074C6F80090C6F800B46D
:1052B00030602046042100224FF00068FCF794FA89
:1052C00020460421012200BFFCF78EFA2846102157
:1052D0000122FCF789FA204604210022C6F800A02A
:1052E000C6F80094C6F800A8C6F800B8C6F800745E
:1052F000C6F80090C6F800B4C6F800804FF0006809
:10530000FCF772FA20460421012200BFFCF76CFA78
:10531000284610210022FCF767FA4FF40070306035
:105320004FF400574FF40040C6F80074C6F800A8C8
:10533000C6F800B8C6F80004204604210022C6F8CA
:105340000090C6F800B4C6F800804FF00068FCF783
:105350004BFA20460421012200BFFCF745FA2846FB
:1053600010210022FCF740FA4FF4007030604FF437
:105370008040C6F80094C6F800A8C6F800084FF0B0
:105380000040C6F800042046042100223760C6F819
:1053900000B4C6F80080FCF727FA20460421012259
:1053A00000BFFCF721FA322001B0BDE8F04FFCF756
:1053B00029B90000F0B581B041F21807C4F2020724
:1053C00007F57A75064640F60004284610210022AB
:1053D000C4F20204FCF708FA4FF0007038604FF492
:1053E00000504FF40071C7F80004C7F800184FF0E0
:1053F00080414FF40042C7F80018C7F80024386015
:105400004FF00060C7F800143860204604210022E5
:10541000FCF7EAF920460421012200BFFCF7E4F979
:10542000032E00F2A780DFE806F00373274D00BFCC
:10543000284610210122FCF7D7F94FF000704FF0F9
:1054400000513860C7F80014C7F800084FF48040D6
:105450004FF00042C7F80008C7F800243960C7F8C9
:1054600000044FF00060386020460421002200252F
:10547000FCF7BAF900BF72E0284610210122FCF7C0
:10548000B3F94FF000704FF000513860C7F80014C6
:10549000C7F800084FF48040C7F800084FF00040FC
:1054A000C7F800044FF080403960C7F800044FF49B
:1054B000006038602046042100220025FCF794F9A2
:1054C00000BF4CE02846102101220125FCF78CF991
:1054D0004FF000704FF000513860C7F80014C7F863
:1054E00000084FF480404FF00041C7F80008C7F8AB
:1054F00000144FF400513960C7F800044FF4006005
:105500003860204604210022FCF76EF900BF26E037
:105510002846102101220125FCF766F94FF00070A2
:105520004FF000513860C7F80014C7F800084FF476
:105530008040C7F800084FF00040C7F800044FF45F
:10554000005038604FF08040C7F800044FF0006012
:105550003860204604210022FCF746F900BF2046AF
:1055600004210122FCF740F940F27800C2F2000069
:105570000570857001B0F0BD70B582B00446164666
:1055800041F080020068A1888DF8072000221D46A6
:10559000FCF72AF9A0690DF1070101224FF4FA6323
:1055A000FDF730FEA069FDF797FC0128FAD1A0694C
:1055B00031462A464FF4FA63FDF724FEA069FDF751
:1055C0008BFC0128FAD12068A1880122FCF70CF994
:1055D00002B070BD2DE9F04182B001250DF1060148
:1055E0000DF10703012204468DF80650009500F0E6
:1055F000B9F99DF80700002700F0F8004FF0810886
:105600008DF807000DF106010DF107032046012278
:10561000E7618DF80680009500F058FC0A20FBF742
:10562000F1FF0DF106010DF10703204601228DF86F
:105630000650009500F096F99DF807600A20FBF7E8
:10564000E1FF46F080008DF807000DF106010DF135
:105650000703204601228DF80680009500F036FCF5
:105660006420FBF7CFFF266A8621B0088DF806106C
:105670008DF807000DF106010DF107032046012208
:10568000009500F023FC0520FBF7BCFFB00187214B
:105690008DF806108DF807000DF106010DF10703D6
:1056A00020460122009500F011FC0520FBF7AAFF1F
:1056B00088208DF806000DF106010DF10703204644
:1056C00001228DF80770009500F000FC0520FBF723
:1056D00099FF94F82A0089218DF806108DF80700AB
:1056E0000DF106010DF1070320460122009500F09F
:1056F000EDFB0A20FBF786FF94F82B00CD23014633
:105700002D2898BF2D21F02928BFF021A1F12D02CD
:10571000D2B25A431E3141F69A135943090C7928E3
:1057200038BF910A01F120008B218DF806108DF809
:1057300007000DF106010DF1070320460122009537
:1057400000F0C4FB0A20FBF75DFF8C208DF80600FB
:1057500023208DF807000DF106010DF10703204607
:105760000122009500F0B2FB1E208DF806000DF11D
:1057700006010DF1070320460122009500F0F2F822
:105780009DF807009E2140F007008DF806108DF867
:1057900007000DF106010DF10703204601220095D7
:1057A00000F094FB0A20FBF72DFF94F8241020460C
:1057B00000F0C0F99F208DF80600FF208DF807004B
:1057C0000DF106010DF1070320460122009500F0BE
:1057D0007DFB94F8260094F82510400000EB0110A2
:1057E0009D218DF806108DF807000DF106010DF1D1
:1057F000070320460122009500F068FB94F824007E
:1058000094F8256005FA00F003F095FC49F2C842CF
:10581000C0F6000202EBC60292ED000B53EC102B17
:1058200003F0FEFA03F058FC10284FF02600C8BF22
:1058300001278DF806000DF106010DF10703204642
:105840000122009500F08EF89DF80700A62100F0D7
:10585000F70040EAC7008DF806108DF807000DF13B
:1058600006010DF1070320460122009500F02EFBF2
:105870000A20FBF7C7FE94F82900A0218DF8061036
:105880008DF807000DF106010DF1070320460122F6
:10589000009500F01BFB94F82800A1218DF806105C
:1058A0008DF807000DF106010DF1070320460122D6
:1058B000009500F00BFB40208DF806000DF106016D
:1058C0000DF1070320460122009500F04BF89DF8EA
:1058D0000700C02140F03F008DF806108DF807004A
:1058E0000DF106010DF1070320460122009500F09D
:1058F000EDFA0DF106010DF10703204601228DF8A6
:105900000650009500F02EF89DF807000DF10601F5
:1059100000F0F80001308DF807000DF10703204674
:105920000122E5618DF80680009500F0CFFA0A208B
:10593000E561FBF767FE42208DF806000DF10601D8
:105940000DF1070320460122009500F00BF89DF8A9
:1059500007104FF4CA70122908BFC82002B0BDE872
:10596000F08100002DE9F04104461746A288006846
:10597000069E0D46114600229846FBF735FFA069AA
:1059800029463A464FF4FA63FDF73CFCA069FDF75F
:10599000A3FA0128FAD1A069414632464FF4FA63CE
:1059A000FDF730FBA069FDF797FA0128FAD12068CE
:1059B000A1880122BDE8F041FBF716BF2DE9F04FA9
:1059C00083B016468B4680461AB158463146FAF7E0
:1059D0007FFE01270DF10A010DF10B034046012264
:1059E0008DF80A700097FFF7BDFF9DF80B0081242A
:1059F00000F0F80001308DF80B000DF10A010DF1F7
:105A00000B0340460122C8F81C708DF80A4000972D
:105A100000F05CFA12208DF80A000DF10A010DF178
:105A20000B03404601220097FFF79CFF9DF80B00F7
:105A3000400659D592208DF80A00FF208DF80B0002
:105A40000DF10A010DF10B0340460122009700F011
:105A50003DFA13208DF80A000DF10A010DF10B0338
:105A6000404601220097FFF77DFF10200DF10B0546
:105A70009DF80B908DF80A000DF10A0140460122B5
:105A80002B460097FFF76EFF8D208DF80A000DF171
:105A90000A01404601222B46009700F017FA4E45B6
:105AA00038BFB146B9F1000F4FF0000A1CD0ABF17E
:105AB000010701240DF10A050DF10B06CB4600BFCD
:105AC00040462946012233468DF80AA00094FFF78C
:105AD00049FF9DF80B00BBF1010B07F8010FEFD157
